S0170000574946492D4D6F746F72735F4543552E73726563F1
S11300000C942A000C9447000C9447000C9447006D
S11300100C9447000C9447000C9447000C94470040
S11300200C9447000C9447000C9447000C948D09E1
S11300300C942D0E0C94FF0E0C942A0F0C94D40ED9
S11300400C9447000C9447000C9447000C94470010
S11300500C94470011241FBECFE5D4E0DEBFCDBF12
S113006011E0A0E6B0E0E2E1F5E202C005900D92F5
S1130070A03BB107D9F721E0A0EBB1E001C01D928C
S1130080A63DB207E1F70E9467050C9487120C9411
S11300900000E82FE695E695E69587706230E1F07A
S11300A0F0E09F01220F331FE20FF31FF195E1955A
S11300B0F10922AD41E050E0082E02C0440F551F63
S11300C00A94E2F7942F9095922301C0660F8A95C3
S11300D0EAF7692B62AF0895F0E09F01220F331F06
S11300E0E20FF31FF195E195F10942AD21E030E013
S11300F0B90102C0660F771F8A95E2F7CB01962FEC
S11301009095942392AF93AD892B83AF0895962F46
S1130110382F369536953695E32FF0E0AF01440F2E
S1130120551FE40FF51FF195E195F10963AD330F08
S1130130330F330F831B21E030E0082E02C0220F5F
S1130140331F0A94E2F720952623692F70E002C03A
S1130150660F771F8A95E2F7622B63AF0895282F05
S1130160269526952695E22FF0E0AF01440F551F02
S1130170E40FF51FF195E195F10933AD220F220F3C
S1130180220F821B282F81E090E002C0880F991F64
S11301902A95E2F7832783AF089581E08093B00125
S11301A08CB18093B501809167008E3F89F483E020
S11301B090E00E94D1098FEF809367008091B50190
S11301C08B3709F050C010926700109266000895B2
S11301D0809167008F3F51F48091B5018B3709F00E
S11301E042C01092670010926600089580916700E3
S11301F0811108C08091B5018093B30181E080939F
S11302006700089580916700813069F58091B50198
S11302108D3789F4E09166000E2E000CFF0BEB5332
S1130220FE4F10828FEF809367008093660081E019
S11302308093B4010895E09166000E2E000CFF0B2C
S11302408091B501EB53FE4F8083809166008F5FF0
S113025080936600809166008B302CF08FEF809342
S1130260660080936700089561E08AE00E94870039
S113027060E08BE00E94870060E088E00E948700D5
S113028061E089E00E948700089560E088E00E94B0
S1130290870061E089E00E94870060E08AE00E94B4
S11302A0870061E08BE00E948700089561E088E0A8
S11302B00E94870060E089E00E94870060E08AE095
S11302C00E94870061E08BE00E948700089561E04E
S11302D088E00E94490061E089E00E94490061E0F1
S11302E08AE00E94490061E08BE00E94490018BA4C
S11302F068EE73E086E00E94690A86E00E94B30C0F
S11303006AE082E00E94E80C6AE584E00E94E80C5E
S113031008950F931F93CF93DF93E091C301F0915E
S1130320C40184819581049788F50091720010912D
S11303307300C5ECD1E0FE0101900020E9F7CF0184
S1130340855C91400E942811F80191838083099073
S11303500020E9F7E0917200F0917300AE01455C72
S1130360514065EC71E0808191810E944912609155
S11303707200709173008091B301FB01828343E0AA
S11303808091C3019091C4010E94850DDF91CF91AA
S11303901F910F910895809167008E3F61F18091C4
S11303A0B001813081F41092B00183E090E00E94AA
S11303B0370A8091B1019091B20101969093B201F4
S11303C08093B10108958091B001811114C00E94FD
S11303D0300A8EEF809367008FEF8093660010924F
S11303E0B2011092B1018091B401813021F40E94D4
S11303F089011092B4010895CF93DF93EC01E8E6EC
S1130400F0E08BE7808361839881992379F0E0E0C1
S1130410AE2FB0E0A859BF4F12969C93EF5FDE0158
S1130420AE0FB11D9C919111F3CF01C0E0E0AE2F4E
S1130430B0E0A859BF4F8DE712968C93EF5FF0E0C0
S1130440E859FF4F1282DF91CF9108950F931F93C4
S1130450CF93DF9303E010E0C8ECD0E080E00E948B
S1130460AF0080ED97E0FE013197F1F70197D9F7DE
S11304700150110999F7DF91CF911F910F910895C0
S1130480CF93DF93C5E0D0E080E00E94AF002FEF70
S113049080E792E0215080409040E1F700C00000E6
S11304A0219791F7DF91CF9108950F931F93CF93E5
S11304B0DF9305E010E0C8ECD0E080E00E94AF00DC
S11304C088EE93E0FE013197F1F70197D9F70150D7
S11304D0110999F7DF91CF911F910F9108950F930F
S11304E01F93CF93DF9300D000D01F92CDB7DEB718
S11304F08C016D8319821A821B821C82FC0101907B
S11305000020E9F7CF0101974AE0BE016F5F7F4FFA
S1130510801B910B0E9452128D81805D8D8340E07F
S113052050E06BE770E080E00E94C90F41E050E0CA
S1130530BE016B5F7F4F80E00E94870F41E050E077
S113054067E870E080E00E94870F40E050E0BE0161
S11305506F5F7F4F80E00E94C90F809167008E3FDC
S1130560E1F760E080E00E943D1040E050E06FE180
S113057071E080E00E94C90F88E491E09F938F931B
S113058089E890E09F938F931F9282E08F9381E09C
S11305908F9384EF8F930E946E100FB6F894DEBF92
S11305A00FBECDBF811103C00E94260204C0823059
S11305B011F40E94550261E080E00E943D1040E089
S11305C050E0B80180E00E94C90F40E050E06FE1C4
S11305D071E080E00E94C90F0F900F900F900F9070
S11305E00F90DF91CF911F910F910895FF920F9378
S11305F01F93CF93DF93CDB7DEB729970FB6F89447
S1130600DEBF0FBECDBFF82E85E0E4E7F0E0DE01EB
S1130610119601900D928A95E1F71F821E8268E07F
S113062082E00E9480098CED95E09987888700ED2F
S113063017E003C0C8010197F1F785E00E94D108D3
S1130640811107C088859985019799878887892BA7
S113065089F788859985892B91F185E00E944B095A
S113066084EC99E09987888700EA1FE003C0C801F9
S11306700197F1F781E00E94D108811107C08885B4
S11306809985019799878887892B89F78885998522
S1130690892BB9F081E00E944B09BE016F5F7F4F47
S11306A081E00E94C30763E5CE0101960E94FC012C
S11306B06F2D88E690E00E946F0281E003C08EEF08
S11306C001C08BEF29960FB6F894DEBF0FBECDBFE5
S11306D0DF91CF911F910F91FF900895EF92FF92B8
S11306E01F93CF93DF93CDB7DEB72F970FB6F89450
S11306F0DEBF0FBECDBF182F81E392E39A838983B7
S11307001C821B8265E081E00E9480098CED95E0EB
S11307109F878E8706C08FEC97E00197F1F700C0A2
S1130720000083E00E94D108811107C08E859F8557
S113073001979F878E87892B71F78E859F85892BDB
S113074009F43DC083E00E944B098CED95E09F873E
S11307508E870F2EF0EDEF2EF7E0FF2EF02D03C065
S1130760C7010197F1F780E00E94D108811107C009
S11307708E859F8501979F878E87892B89F78E8524
S11307809F85892BF1F080E00E944B09BE016B5FCD
S11307907F4F80E00E94C3078F81898388858A8385
S11307A089858B831C8264E5CE0101960E94FC013D
S11307B0612F88E690E00E946F0281E003C08FEF12
S11307C001C08CEF2F960FB6F894DEBF0FBECDBFDD
S11307D0DF91CF911F91FF90EF900895FF920F93B7
S11307E01F93CF93DF93CDB7DEB72E970FB6F89450
S11307F0DEBF0FBECDBFF82E88E399E39A838983C9
S11308001B8268E081E00E9480098CED95E09E8760
S11308108D8700ED17E003C0C8010197F1F783E06D
S11308200E94D108811107C08D859E8501979E87FE
S11308308D87892B89F78D859E85892BB9F183E076
S11308400E944B098CED95E09E878D8700ED17E0A3
S113085003C0C8010197F1F780E00E94D10881111B
S113086007C08D859E8501979E878D87892B89F783
S11308708D859E85892BE1F080E00E944B09BE01A5
S11308806C5F7F4F80E00E94C3078C8189838D81D8
S11308908A831B8268E4CE0101960E94FC016F2DBD
S11308A088E690E00E946F0281E003C08FEF01C0F0
S11308B08CEF2E960FB6F894DEBF0FBECDBFDF913E
S11308C0CF911F910F91FF90089560E080E00E9406
S11308D03D1040E050E06BEA70E080E00E94C90FF8
S11308E088E491E09F938F9389E890E09F938F939E
S11308F01F9282E08F931F9288EC8F930E946E1058
S11309002DB73EB7285F3F4F0FB6F8943EBF0FBEDA
S11309102DBF811103C00E94260207C0823019F442
S11309200E94550202C00E94400240E050E060EB89
S113093070E080E00E94C90F88E491E09F938F9358
S113094089E890E09F938F931F9282E08F931F9288
S113095088EC8F930E946E102DB73EB7285F3F4FEF
S11309600FB6F8943EBF0FBE2DBF811103C00E9485
S1130970260204C0823011F40E94550240E050E087
S11309806EEB70E080E00E94C90F88E491E09F93D1
S11309908F9389E890E09F938F931F9282E08F93C7
S11309A01F9288EC8F930E946E102DB73EB7285F7C
S11309B03F4F0FB6F8943EBF0FBE2DBF811103C049
S11309C00E94260204C0823011F40E94550240E0C5
S11309D050E06CEC70E080E00E94C90F88E491E084
S11309E09F938F9389E890E09F938F931F9282E067
S11309F08F931F9288EC8F930E946E102DB73EB791
S1130A00285F3F4F0FB6F8943EBF0FBE2DBF811134
S1130A1003C00E94260204C0823011F40E945502D1
S1130A2040E050E067ED70E080E00E94C90F88E488
S1130A3091E09F938F9389E890E09F938F931F9207
S1130A4082E08F931F9288EC8F930E946E102DB7D3
S1130A503EB7285F3F4F0FB6F8943EBF0FBE2DBF81
S1130A60811103C00E94260204C0823011F40E9446
S1130A70550240E050E06BEE70E080E00E94C90F48
S1130A8088E491E09F938F9389E890E09F938F93FC
S1130A901F9282E08F931F9288EC8F930E946E10B6
S1130AA02DB73EB7285F3F4F0FB6F8943EBF0FBE39
S1130AB02DBF811103C00E94260204C0823011F4AC
S1130AC00E94550261E080E00E943D100895CF939A
S1130AD0DF93CDB7DEB728970FB6F894DEBF0FBE0D
S1130AE0CDBF1A821982789461E080E00E944900A7
S1130AF061E082E00E94490061E088E00E944900D0
S1130B0061E08FE10E94490061E081E00E944900B8
S1130B100E94790D9093C4018093C3010E946701E0
S1130B20A12CC12CE12C03E023E040E855E260E075
S1130B3070E080E00E94350F61E080E00E943D108B
S1130B406DEC70E080E00E94481040E050E06CEFF3
S1130B5070E080E00E94C90F8BEC91E00E94640A6F
S1130B600E9465040E945208811105C064E071E08E
S1130B700E941B10FFCF2FE835E040E050E060E01A
S1130B8081E00E9455072FE735E040E050E060E047
S1130B9082E00E9455072FE635E040E050E060E037
S1130BA084E00E94550740E050E06EE071E080E090
S1130BB00E94C90F00E011E0CE0101967C0185E09E
S1130BC00E94D108882319F085E00E944B0987E030
S1130BD00E94D108882319F087E00E944B0981E024
S1130BE00E94D108882309F180E00E94AF0081E0CF
S1130BF00E944B09BE016D5F7F4F81E00E94C307D5
S1130C008B81823491F48C81813339F46E2D8EE89A
S1130C1090E00E946F0201E008C0803331F46E2D31
S1130C2083E990E00E946F0200E08091C3019091FB
S1130C30C401FC0124813581232B09F260917200E7
S1130C407091730043E050E00E94C40D40E050E016
S1130C5064E171E080E00E94C90FE0917200F091BC
S1130C60730082818335A9F489810E94F602182FCA
S1130C708E3F31F462E271E080E00E941B1079C083
S1130C808B3F09F076C069E371E080E00E941B109D
S1130C9070C082818435A9F489810E946E03182F63
S1130CA08F3F31F460E571E080E00E941B1061C069
S1130CB08C3F09F05EC066E671E080E00E941B1084
S1130CC058C082818834A1F489810E94EE031F3FB9
S1130CD031F46CE771E080E00E941B104AC01C3FB5
S1130CE009F047C066E971E080E00E941B1041C032
S1130CF082818434F1F50190F081E02D8081823588
S1130D0019F40E94340135C080818C3419F40E9496
S1130D1056012FC08081863499F401112AC061E004
S1130D2088E00E94870060E089E00E94870061E01B
S1130D308AE00E94870060E08BE00E94870019C06F
S1130D408081823419F40E94450113C08081833567
S1130D5081F460E08AE00E94870060E08BE00E94FA
S1130D60870060E088E00E94870060E089E00E94DC
S1130D7087000E94400223CF60E08CE00E9487003D
S1130D8060EC80E00E94C80E61E08CE00E94870065
S1130D9008950F931F93CF93DF93D82F8B01C42F04
S1130DA060E08CE00E94870063E080E00E94C80E4F
S1130DB06D2F80E00E94C80EC13039F460E080E0FD
S1130DC00E94C80EF801808305C04C2FB80180E052
S1130DD00E940F0E61E08CE00E948700DF91CF91AA
S1130DE01F910F910895CF92DF92EF92FF92CF93CC
S1130DF0DF93D82FC62F69017A0160E08CE00E944E
S1130E00870062E080E00E94C80E6D2F80E00E949F
S1130E10C80EC13071F5C701B601052E55E196958E
S1130E208795779567955A95D1F7502D80E00E9464
S1130E30C80ED701C601072E7DE0B695A7959795F4
S1130E4087957A95D1F7702D682F607E8E2D8370EB
S1130E50682B686080E00E94C80E99278F2D7E2D34
S1130E606D2D80E00E94C80E6C2D80E00E94C80E9B
S1130E7011C0B601769567957695679576956795D1
S1130E8080E00E94C80E6C2D6295660F607E80E043
S1130E900E94C80E61E08CE00E948700DF91CF9130
S1130EA0FF90EF90DF90CF900895CF92DF92EF9272
S1130EB0FF92CF93DF93C82FD62F69017A0160E0A8
S1130EC08CE00E948700D130D1F562E080E00E947E
S1130ED0C80EC695C295C07F61E36C0F80E00E9486
S1130EE0C80EC701B601052E55E1969587957795ED
S1130EF067955A95D1F7502D80E00E94C80ED7010E
S1130F00C601072E7DE0B695A795979587957A95A6
S1130F10D1F7702D682F607E8E2D8370682B6860EA
S1130F2080E00E94C80E99278F2D7E2D6D2D80E0C4
S1130F300E94C80E6C2D80E00E94C80E19C0C130FA
S1130F4009F4C0E06C2F606480E00E94C80EB60112
S1130F5076956795769567957695679580E00E9476
S1130F60C80E6C2D6295660F607E80E00E94C80EEC
S1130F7061E08CE00E948700DF91CF91FF90EF90B9
S1130F80DF90CF9008950F931F93CF93C82F8B01B9
S1130F9060E08CE00E94870063E080E00E94C80E5D
S1130FA06C2F6295607F6B5980E00E94C80E60E0F0
S1130FB080E00E94C80E482F4F70B80180E00E9464
S1130FC00F0E61E08CE00E948700CF911F910F917A
S1130FD00895FF920F931F93CF93DF93C82FD62FBB
S1130FE08A01F22E60E08CE00E94870062E080E0DB
S1130FF00E94C80E6C2F66956295607F6B5C80E0E2
S11310000E94C80E80E4D89FB00111246F2980E0AB
S11310100E94C80ED11105C04F2DB80180E00E9476
S1131020F20D61E08CE00E948700DF91CF911F9167
S11310300F91FF900895CF93C82F60E08CE00E9439
S113104087006C2F606880E00E94C80E61E08CE02D
S11310500E94870080E197E20197F1F7CF9108950C
S11310601F93CF93DF93182FD62FC42F60E08CE00B
S11310700E94870065E080E00E94C80E612F80E036
S11310800E94C80E6D2F80E00E94C80E6C2F80E075
S11310900E94C80E61E08CE00E948700DF91CF912E
S11310A01F910895EF920F93E12C00E020E040E8B7
S11310B054E86EE170E080E00E94580E882309F441
S11310C058C00E94BC0640E06FE08CE00E943008EB
S11310D040E067E08DE00E94300840E060E680E692
S11310E00E94300840E060E680E70E9430084FEF3D
S11310F06FEF8BE20E94300841E46FEF8AE20E94B6
S1131100300841EB6FEF89E20E94300845E067E464
S113111088E20E9430082FEF3FE040E050E060E0BA
S113112080E20E94F3062FEF3FE040E050E060E0F1
S113113084E20E94F3062FE835E040E050E060E0EE
S113114080E00E94F3062FE735E040E050E060E0E5
S113115088E00E94F3062FE635E040E050E060E0CE
S113116080E10E94F30648E06FEF8FE20E943008AE
S113117081E00F91EF900895CF9360E08CE00E949E
S1131180870060EA80E00E94C80E60E080E00E9470
S1131190C80EC82F61E08CE00E9487008C2FCF918D
S11311A008951F93CF93DF931F92CDB7DEB7182F07
S11311B0883058F40E94BC0821E030E002C0220FBD
S11311C0331F1A95E2F7822361C0803190F441E025
S11311D0BE016F5F7F4F8CE20E94C906185081E008
S11311E090E002C0880F991F1A95E2F729818223A3
S11311F04DC0883190F441E0BE016F5F7F4F80E3C2
S11312000E94C906105181E090E002C0880F991F26
S11312101A95E2F72981822339C0803290F441E0A3
S1131220BE016F5F7F4F80E40E94C906185181E0C0
S113123090E002C0880F991F1A95E2F72981822352
S113124025C0883290F441E0BE016F5F7F4F80E596
S11312500E94C906105281E090E002C0880F991FD5
S11312601A95E2F72981822311C041E0BE016F5F24
S11312707F4F8DE20E94C906185281E090E002C0BF
S1131280880F991F1A95E2F7298182230F90DF9125
S1131290CF911F9108958830B8F4833031F08530B0
S11312A031F0873029F484E003C082E001C083E098
S11312B061E070E002C0660F771F8A95E2F740E0B4
S11312C08CE20E9430080895803168F4885061E00F
S11312D070E002C0660F771F8A95E2F740E08CE267
S11312E00E9430080895885261E070E002C0660FE1
S11312F0771F8A95E2F740E08CE20E943008089557
S1131300CF93C82F262F40E050E061E00E94E90708
S11313108C2F0E941B08CF9108951F920F920FB635
S11313200F9211242F933F934F935F936F937F9367
S11313308F939F93AF93BF93EF93FF93F894809110
S1131340B6019091B701892B99F08091B6019091E3
S1131350B701019721F48091B801819582BF8091F2
S1131360B6019091B70101979093B7018093B601AC
S1131370E091B901F091BA01309709F00995789498
S1131380FF91EF91BF91AF919F918F917F916F9159
S11313905F914F913F912F910F900FBE0F901F902F
S11313A018950F931F934091B6015091B701452BA7
S11313B009F043C023B7211140C09C01A8EEB3E05B
S11313C00E9419118B019C010F2EFFE03695279581
S11313D017950795FA95D1F7F02D0F5F1F4F1093CE
S11313E0B7010093B60125E023BF29B7216029BFC7
S11313F0DC01CB01887F9F77AA27BB27689416F866
S1131400B695A795979587951694D1F78093B801CB
S11314102091B6013091B7012130310529F4682FAC
S1131420619562BF81E019C08091B6019091B701C6
S1131430029780F012BE81E010C08091B6019091B5
S1131440B701892B49F413BE12BE89B78E7F89BFB9
S113145080E003C081E001C081E01F910F910895F5
S113146013BE12BE1092B7011092B60108950F93E5
S11314701F939C01A8EEB3E00E9419118B019C01FB
S11314800F2EFFE03695279517950795FA95D1F716
S1131490F02D0F5F1F4F1093B7010093B60121E0A9
S11314A029BFDC01CB01887F9F77AA27BB276894DB
S11314B016F8B695A795979587951694D1F78093C6
S11314C0B8011F910F9108959093BA018093B901C7
S11314D008954F925F926F927F928F929F92AF92F4
S11314E0BF92CF92DF92EF92FF920F931F93CF930D
S11314F0DF93182FEB0180FF91C083B7887F83BFF0
S11315006B01E12CF12C60E072E18AE790E0A70125
S113151096010E94F7102F3F31054105510518F43B
S113152081E083BF78C0D701C601880F991FAA1F25
S1131530BB1F880F991FAA1FBB1F9C01AD01220F5F
S1131540331F441F551F60E072E18AE790E00E9458
S1131550F7102F3F31054105510520F483B7826010
S113156083BF59C0D701C601880F991FAA1FBB1F8B
S1131570880F991FAA1FBB1F880F991FAA1FBB1F83
S1131580880F991FAA1FBB1F9C01AD01220F331F97
S1131590441F551F220F331F441F551F60E072E183
S11315A08AE790E00E94F7102F3F3105410551056D
S11315B020F483B7836083BF2EC088249C2CAD2C79
S11315C0BE2C60E072E18AE790E0A50194010E94DC
S11315D0F7102F3F31054105510520F483B784608E
S11315E083BF19C0A7019601012E1AE0220F331FF1
S11315F0441F551F1A95D1F7102D60E072E18AE758
S113160090E00E94F7102F3F31054105510518F471
S113161083B7856083BF83B7886483BF812F867057
S113162009F4A7C08FB5887F8FBD6E01E12CF12C22
S113163060E072E18AE790E0A70196010E94F7104A
S1131640022FB32E2F3F3F4F4105510518F481E07F
S11316508EBD84C0D701C601880F991FAA1FBB1F66
S1131660880F991FAA1FBB1F9C01AD01220F331FB6
S1131670441F551F60E072E18AE790E00E94F71072
S11316802F3F8FEF38074105510530F48EB5826046
S11316908EBD022FB32E62C0D701C601880F991FD9
S11316A0AA1FBB1F880F991FAA1FBB1F880F991F52
S11316B0AA1FBB1F880F991FAA1FBB1F9C01AD0146
S11316C0220F331F441F551F220F331F441F551F62
S11316D060E072E18AE790E00E94F7102F3F8FEFFD
S11316E038074105510530F48EB583608EBD022F55
S11316F0B32E34C044245C2C6D2C7E2C60E072E14B
S11317008AE790E0A30192010E94F7102F3F8FEF28
S113171038074105510530F48EB584608EBD022F23
S1131720B32E1CC0A7019601012E1AE0220F331F0D
S1131730441F551F1A95D1F7102D60E072E18AE716
S113174090E00E94F7102F3F8FEF380741055105B5
S113175028F48EB585608EBD022FB32EB7BC06BDAE
S11317608EB588618EBD8FB582608FBD8FB58E7F3B
S11317708FBD13FFE7C085B5887F85BD6E01E12C61
S1131780F12C60E072E18AE790E0A70196010E94E3
S1131790F7102F3F31054105510518F481E085BD4F
S11317A0CEC0D701C601880F991FAA1FBB1F880F7F
S11317B0991FAA1FBB1F9C01AD01220F331F441F99
S11317C0551F60E072E18AE790E00E94F7102F3F16
S11317D031054105510520F485B5826085BDAFC052
S11317E0D701C601880F991FAA1FBB1F880F991F15
S11317F0AA1FBB1F880F991FAA1FBB1F880F991F01
S1131800AA1FBB1F9C01AD01220F331F441F551F8C
S113181060E072E18AE790E00E94F7102F3F310503
S11318204105510520F485B5836085BD88C0D70185
S1131830C601880F991FAA1FBB1F880F991FAA1FD3
S1131840BB1F880F991FAA1FBB1F880F991FAA1FB0
S1131850BB1F9C01AD01220F331F441F551F220FD4
S1131860331F441F551F60E072E18AE790E00E9435
S1131870F7102F3F31054105510520F485B58460EB
S113188085BD5DC0D701C601880F991FAA1FBB1F64
S1131890880F991FAA1FBB1F880F991FAA1FBB1F60
S11318A0880F991FAA1FBB1F880F991FAA1FBB1F50
S11318B0880F991FAA1FBB1F9C01AD01220F331F64
S11318C0441F551F60E072E18AE790E00E94F71020
S11318D02F3F31054105510520F485B5856085BD4F
S11318E02EC03E2D2D2D1C2D002760E072E18AE7CD
S11318F090E0A90198010E94F7102F3F310541059E
S1131900510520F485B5866085BD19C0A7019601EF
S1131910012E1AE0220F331F441F551F1A95D1F7C9
S1131920102D60E072E18AE790E00E94F7102F3FEB
S113193031054105510518F485B5876085BD85B528
S1131940886485BDDF91CF911F910F91FF90EF9037
S1131950DF90CF90BF90AF909F908F907F906F90CB
S11319605F904F900895CF93C82F80FF0AC061E025
S11319708BE00E94490083B7806283BF83B78F7E68
S113198083BFC1FF0AC061E08DE10E9449008FB5A9
S11319908F7B8FBD8FB580688FBDC2FF0AC061E0A9
S11319A08CE10E9449008FB58F7E8FBD8FB5806218
S11319B08FBDC3FF0BC061E08FE10E9449008F9A85
S11319C085B5806285BD85B58F7E85BDCF9108952F
S11319D0CF93DF93D82FC62F80FF19C0643629F424
S11319E08FEF8CBFD1FD17C07BC08FEF689F900134
S11319F011243695279536952795ABE7B4E10E94D7
S1131A001911969587958CBFD1FD14C06CC081FFC8
S1131A1027C0643679F496B527B530E0322F2227F3
S1131A20892F90E00197820F931F9BBD8ABDD2FD41
S1131A301BC03FC086B527B530E0322F2227280FC0
S1131A40311DAC2FB0E00E94191124E630E040E0D3
S1131A5050E00E94F7103BBD2ABDD2FD14C029C03E
S1131A6082FF27C0643679F496B527B530E0322F6B
S1131A702227892F90E00197820F931F99BD88BD7B
S1131A80D3FD1BC033C086B527B530E0322F2227E3
S1131A90280F311DAC2FB0E00E94191124E630E06C
S1131AA040E050E00E94F71039BD28BDD3FD08C0C6
S1131AB01DC0D3FF1BC0C43619F48FEF83BD16C0FD
S1131AC08FEFC89F90011124369527953695279559
S1131AD0ABE7B4E10E9419119695879583BD06C0C2
S1131AE0D2FDC2CFE6CFD2FDCECFE3CFDF91CF91EF
S1131AF0089586E090E00E942811FC011182108272
S1131B0013821282158214820895CF92DF92EF928B
S1131B10FF920F931F93CF93DF93EC016B01042F7C
S1131B2084E090E00E9428117C0110E0C8010E942A
S1131B302811F70191838083A801B6010E944912FC
S1131B40F701138212828C819D81892B29F4F982F9
S1131B50E882FB82EA820AC0EA81FB81F382E282A4
S1131B60EA81FB81828193819B838A838C819D811D
S1131B7001969D838C83DF91CF911F910F91FF90EC
S1131B80EF90DF90CF9008950F931F93CF93DF933F
S1131B90FC0124813581232BF9F09B01EC01019098
S1131BA0F081E02D60817181C9010E944912088190
S1131BB01981F8018281938199838883808191813D
S1131BC00E94C011C8010E94C0118C819D8101979F
S1131BD09D838C8381E001C08FEFDF91CF911F91B2
S1131BE00F910895FF920F931F93CF93DF93442394
S1131BF081F0F82EEB014150042F10E00F5F1F4FCE
S1131C00060F171F69918F2D0E94C80EC017D107A8
S1131C10C9F7DF91CF911F910F91FF900895FF9223
S1131C200F931F93CF93DF93442389F0F82EEB0196
S1131C304150042F10E00F5F1F4F060F171F60E085
S1131C408F2D0E94C80E8993C017D107C1F7DF9169
S1131C50CF911F910F91FF9008951F920F920FB68D
S1131C600F9211242F933F934F935F936F937F931E
S1131C708F939F93AF93BF93EF93FF93F894E09167
S1131C80BB01F091BC01309709F009957894FF915C
S1131C90EF91BF91AF919F918F917F916F915F91E0
S1131CA04F913F912F910F900FBE0F901F90189559
S1131CB0EF92FF920F93CF93811162C0411589E097
S1131CC058078DE36807710529F48DB18C7F8DB9B0
S1131CD0709A35C0403884E858078EE1680771056A
S1131CE029F48DB18C7F8DB9709829C0403482E479
S1131CF058078FE06807710521F46998689A709A0B
S1131D001EC0403281EA580787E06807710521F454
S1131D106998689A709813C0403980ED580783E039
S1131D206807710521F46898699A709A08C0483464
S1131D30584E6140710531F56898699A7098C22FC0
S1131D4061E08DE00E94490061E08CE00E9449005E
S1131D5061E08FE00E94490060E08EE00E9449004B
S1131D602C2F220F220F2065000F000F000F202BB5
S1131D7080E2E89E700111242E292DB981E003C070
S1131D8080E001C080E0CF910F91FF90EF90089523
S1131D906FB90FB607FE02C06F9904C0779BFECFE0
S1131DA08FB1089581E008951F920F920FB60F929C
S1131DB011242F933F934F935F936F937F938F934C
S1131DC09F93AF93BF93EF93FF93F894E091C10176
S1131DD0F091C201309709F009957894FF91EF9141
S1131DE0BF91AF919F918F917F916F915F914F912F
S1131DF03F912F910F900FBE0F901F9018951F9237
S1131E000F920FB60F9211242F933F934F935F932A
S1131E106F937F938F939F93AF93BF93EF93FF93AE
S1131E20F894E091BF01F091C001309709F0099551
S1131E307894FF91EF91BF91AF919F918F917F9192
S1131E406F915F914F913F912F910F900FBE0F9023
S1131E501F901895F8945D9AE091BD01F091BE0130
S1131E60309709F0099578940895AF92CF92EF9244
S1131E70FF920F93CF93C22F811142C0DB01CA019D
S1131E80880F991FAA1FBB1F880F991FAA1FBB1F6A
S1131E90880F991FAA1FBB1F880F991FAA1FBB1F5A
S1131EA09C01AD01207F5F7760E078E488EE91E0EB
S1131EB00E94F7102250310920FF05C0369527955E
S1131EC02F5F3F4F02C03695279582E08BB9000FF4
S1131ED0000F000F8C2F8470082B0AB9CC0CCC0C8B
S1131EE0CC0C8A2D8068AC2CA82A80E1E89E700175
S1131EF01124EA28C370CC0FEC2AE0BC30BD29B908
S1131F00CF910F91FF90EF90CF90AF900895CF9322
S1131F10DF93EA012097C1F1559B04C036C0559B5D
S1131F2006C033C0A0E0B0E050E0E8EEF3E05D9915
S1131F300DC027EE33E0CF010197F1F75D9904C09E
S1131F4021503109C1F721C0232BF9F0529905C062
S1131F50A60FB71F8C918CB911C0AA0FBB1FA60F77
S1131F60B71F8D919C91119790FF03C08AB1816036
S1131F7002C08AB18E7F8AB98C918CB95F5FA52F1C
S1131F80B0E0AC17BD0758F201C080E0DF91CF91FB
S1131F900895CF93DF93EA0150E0E8EEF3E02CC01C
S1131FA027EE33E0CF010197F1F79BB1892F8072BF
S1131FB095FD04C021503109A9F73AC0232BA9F19A
S1131FC0529906C0DB01A50FB11D8C918CB913C0C9
S1131FD0A52FB0E0AA0FBB1FA60FB71F8D919C9130
S1131FE0119790FF03C08AB1816002C08AB18E7FCD
S1131FF08AB98C918CB95F5F529906C0DB01A50F39
S1132000B11D8C9190E008C0A52FB0E0AA0FBB1FB2
S1132010A60FB71F8D919C918C179D0741F08BB132
S1132020482F407285FFBCCFCBCF842F01C081E005
S1132030DF91CF91089540E050E00E94C90F8823BA
S1132040D9F09BB1892F807295FD13C027EE33E040
S113205048EE53E0FA013197F1F79BB1692F6072B2
S113206095FD05C021503109A9F7862F0895232B2A
S113207019F050981CB881E00895811108C06623B6
S113208019F08AB1806802C08AB18F778AB908953D
S11320907093C0016093BF010895FA012081FC018F
S11320A0E20FF11D308136130CC02F5FFA0120833B
S11320B0FC01E20FF11D81E09081992371F080E031
S11320C00895FC018081681305C081E0FA018083D2
S11320D080E00895FA01108280E008952F923F92E3
S11320E04F925F926F927F928F929F92AF92BF9224
S11320F0CF92DF92EF92FF920F931F93CF93DF93D0
S1132100CDB7DEB7ED88FE88AF88B88C6DB67EB6E5
S1132110C501880F991F2DB73EB7281B390B0FB681
S1132120F8943EBF0FBE2DBF2F5F3F4F522E432E5C
S11321304DB75EB74A195B090FB6F8945EBF0FBE80
S11321404DBFEDB7FEB731964F011A141B0464F46A
S1132150DE015996F901280F391F8D919D918193C4
S11321609193E217F307C9F7312C1FC05F9B1DC081
S11321702CB01A141B04CCF4C52CD42C00E010E0B1
S1132180A401400F511F622DF601819191916F01BD
S11321900E944D10882321F033243394300E05C05F
S11321A00F5F1F4FA016B10659F7C7010E94D1094E
S11321B0882311F03320D1F20E94300A832D0FB608
S11321C0F8947EBE0FBE6DBEDF91CF911F910F912B
S11321D0FF90EF90DF90CF90BF90AF909F908F9043
S11321E07F906F905F904F903F902F900895A1E261
S11321F01A2EAA1BBB1BFD010DC0AA1FBB1FEE1F7D
S1132200FF1FA217B307E407F50720F0A21BB30BC7
S1132210E40BF50B661F771F881F991F1A9469F743
S113222060957095809590959B01AC01BD01CF019F
S11322300895A29FB001B39FC001A39F700D811D9B
S11322401124911DB29F700D811D1124911D0895BB
S11322500F931F93CF93DF938230910510F482E0A4
S113226090E0E091D401F091D50120E030E0A0E0CD
S1132270B0E0309719F140815181028113814817F0
S11322805907C8F08417950769F4109731F012962E
S11322900C93129713961C9327C00093D4011093A8
S11322A0D50122C02115310519F04217530718F43E
S11322B09A01BD01EF01DF01F801DBCF21153105E2
S11322C0F9F0281B390B2430310580F48A819B8175
S11322D06115710521F0FB019383828304C09093FF
S11322E0D5018093D401FE01329644C0FE01E20F71
S11322F0F31F8193919322503109398328833AC083
S11323002091D2013091D301232B41F4209162001A
S1132310309163003093D3012093D2012091600067
S1132320309161002115310541F42DB73EB740913C
S1132330640050916500241B350BE091D201F091AB
S1132340D301E217F307A0F42E1B3F0B281739071C
S113235078F0AC014E5F5F4F2417350748F04E0FFD
S11323605F1F5093D3014093D2018193919302C094
S1132370E0E0F0E0CF01DF91CF911F910F9108953C
S1132380CF93DF93009709F481C0FC013297138245
S11323901282A091D401B091D501109781F42081CB
S11323A03181820F931F2091D2013091D3012817DC
S11323B0390751F5F093D301E093D20167C0ED01E1
S11323C020E030E0CE17DF0740F44A815B819E01B4
S11323D041155105F1F0EA01F5CFD383C283408161
S11323E05181840F951FC817D90759F488819981A1
S11323F0840F951F0296918380838A819B819383A6
S113240082832115310529F4F093D501E093D40199
S11324103DC0E901FB83EA8349915991C40FD51F5B
S1132420EC17FD0761F480819181840F951F02965A
S1132430E90199838883828193819B838A83E0E085
S1132440F0E012968D919C911397009719F0FD017D
S1132450DC01F7CF8D919C9111979D012E5F3F4F29
S1132460820F931F2091D2013091D301281739078D
S113247069F4309729F41092D5011092D40102C066
S113248013821282B093D301A093D201DF91CF9132
S11324900895FB01DC0102C001900D9241505040AF
S11324A0D8F70895BB274A3031F4992322F4BDE2CA
S11324B0909581959F4F0C945E12BB27FB01552785
S11324C0AA27880F991FAA1FA41710F0A41B83958D
S11324D05051B9F7A05DAA3308F0A95DA193009704
S11324E079F7B111B1931192CB010C947712DC01FD
S11324F0FC01672F71917723E1F7329704C07C9137
S11325006D9370836291AE17BF07C8F30895F89472
S1052510FFCFF7
S11325120000D6012000FFFE7B2020202020202066
S11325222000CF013132333400000041542B43499F
S11325325053454E443D002C004F4B0D0A007B4244
S1132542427D007B424E7D003A20534D4F4B450065
S11325523A204E4F425245414B210041540D0A004C
S113256241542B43574D4F44453D310D0A004154CC
S11325722B4349504D55583D310D0A0041542B43CC
S1132582494653520D0A0041542B43495053455274
S11325925645523D312C38300D0A0041542B4349E3
S11325A25053544F3D313030300D0A0068656C6C25
S11325B26F0D0A00535049204552524F5200524562
S11325C2414459000D0A73697A65203E2031200D79
S11325D20A000D0A534D4F4B452043414E20545897
S11325E2204552524F520D0A000D0A534D4F4B458E
S11325F22043414E205258204552524F520D0A0058
S11326020D0A54454D502043414E20545820455202
S1132612524F520D0A000D0A54454D502043414E6B
S1132622205258204552524F520D0A000D0A687525
S11326326D69646974792043414E2054582045528F
S1132642524F520D0A000D0A68756D6964697479F6
S11326522043414E205258204552524F520D0A00F7
S9030000FC
