S0170000574946492D4D6F746F72735F4543552E73726563F1
S11300000C942A000C9447000C9447000C9447006D
S11300100C9447000C9447000C9447000C94470040
S11300200C9447000C9447000C9447000C94C108AE
S11300300C94570D0C94EA0D0C9447000C94BF0DCE
S11300400C9447000C9447000C9447000C94470010
S11300500C94470011241FBECFE5D4E0DEBFCDBF12
S113006011E0A0E6B0E0E2E7F1E202C005900D92F3
S1130070A632B107D9F721E0A6E2B1E001C01D9292
S1130080AA34B207E1F70E9407050C94B7100C9448
S11300900000E82FE695E695E69587706230E1F07A
S11300A0F0E09F01220F331FE20FF31FF195E1955A
S11300B0F10922AD41E050E0082E02C0440F551F63
S11300C00A94E2F7942F9095922301C0660F8A95C3
S11300D0EAF7692B62AF0895F0E09F01220F331F06
S11300E0E20FF31FF195E195F10942AD21E030E013
S11300F0B90102C0660F771F8A95E2F7CB01962FEC
S11301009095942392AF93AD892B83AF0895962F46
S1130110382F369536953695E32FF0E0AF01440F2E
S1130120551FE40FF51FF195E195F10963AD330F08
S1130130330F330F831B21E030E0082E02C0220F5F
S1130140331F0A94E2F720952623692F70E002C03A
S1130150660F771F8A95E2F7622B63AF0895282F05
S1130160269526952695E22FF0E0AF01440F551F02
S1130170E40FF51FF195E195F10933AD220F220F3C
S1130180220F821B282F81E090E002C0880F991F64
S11301902A95E2F7832783AF089581E080932601AF
S11301A08CB180932B01809167008E3F89F483E0AA
S11301B090E00E9405098FEF8093670080912B01E6
S11301C08B3709F050C010926700109266000895B2
S11301D0809167008F3F51F480912B018B3709F098
S11301E042C01092670010926600089580916700E3
S11301F0811108C080912B018093290181E08093B3
S11302006700089580916700813069F580912B0122
S11302108D3789F4E09166000E2E000CFF0BE75C2D
S1130220FE4F10828FEF809367008093660081E019
S113023080932A010895E09166000E2E000CFF0BB6
S113024080912B01E75CFE4F8083809166008F5F75
S113025080936600809166008B302CF08FEF809342
S1130260660080936700089561E08AE00E94870039
S113027060E08BE00E94870060E088E00E948700D5
S113028061E089E00E948700089560E088E00E94B0
S1130290870061E089E00E94870060E08AE00E94B4
S11302A0870061E08BE00E948700089561E088E0A8
S11302B00E94870060E089E00E94870060E08AE095
S11302C00E94870061E08BE00E948700089561E04E
S11302D088E00E94490061E089E00E94490061E0F1
S11302E08AE00E94490061E08BE00E94490018BA4C
S11302F068EE73E086E00E949C0986E00E94E60BAB
S11303006AE082E00E941B0C6AE584E00E941B0CF8
S113031008950F931F93CF93DF93E0913701F091EA
S1130320380184819581049788F5009171001091BA
S11303307200C9E3D1E0FE0101900020E9F7CF018A
S1130340895391400E94580FF8019183808309904A
S11303500020E9F7E0917100F0917200AE01495379
S1130360514069E371E0808191810E94791060912C
S113037071007091720080912901FB01828343E036
S113038080913701909138010E94B80CDF91CF9190
S11303901F910F910895809167008E3F61F18091C4
S11303A02601813081F41092260183E090E00E94BE
S11303B06A09809127019091280101969093280160
S11303C080932701089580912601811114C00E9411
S11303D063098EEF809367008FEF8093660010921D
S11303E028011092270180912A01813021F40E9472
S11303F0890110922A010895CF93DF93EC01E8E676
S1130400F0E08BE7808361839881992379F0E0E0C1
S1130410AE2FB0E0A859BF4F12969C93EF5FDE0158
S1130420AE0FB11D9C919111F3CF01C0E0E0AE2F4E
S1130430B0E0A859BF4F8DE712968C93EF5FF0E0C0
S1130440E859FF4F1282DF91CF9108950F931F93C4
S1130450CF93DF9305E010E0C8ECD0E080E00E9489
S1130460AF0080ED97E0FE013197F1F70197D9F7DE
S11304700150110999F7DF91CF911F910F910895C0
S1130480CF93DF93C5E0D0E080E00E94AF002FEF70
S113049080E792E0215080409040E1F700C00000E6
S11304A0219791F7DF91CF9108950F931F93CF93E5
S11304B0DF930AE010E0C8ECD0E080E00E94AF00D7
S11304C088EE93E0FE013197F1F70197D9F70150D7
S11304D0110999F7DF91CF911F910F910895FF9220
S11304E00F931F93CF93DF9300D000D0CDB7DEB727
S11304F08C01F62E19821A821B821C82FC01019047
S11305000020E9F7CF0101974AE0BE016F5F7F4FFA
S1130510801B910B0E94821040E06AE770E080E04B
S11305200E94A20D60E36F0D80E00E946C0E6CE2ED
S113053080E00E946C0E40E0BE016F5F7F4F80E060
S11305400E94A20D809167008E3FE1F760E080E099
S11305500E94720E40E062E271E080E00E94A20D0F
S113056086E890E09F938F938EE890E09F938F931B
S11305701F9282E08F9381E08F9384EF8F930E9488
S11305809E0E0FB6F894DEBF0FBECDBF811103C01F
S11305900E94260204C0823011F40E94550261E0D8
S11305A080E00E94720E40E0B80180E00E94A20D3B
S11305B040E062E271E080E00E94A20D0F900F9093
S11305C00F900F90DF91CF911F910F91FF9008959D
S11305D0FF920F931F93CF93DF93CDB7DEB7279787
S11305E00FB6F894DEBF0FBECDBFF82E85E0E3E76B
S11305F0F0E0DE01119601900D928A95E1F71F82D9
S11306001E8268E082E00E94B40808EC10E00AC090
S113061088EE93E0F8013197F1F70197D9F780E07C
S11306200E94AF0085E00E940508882389F385E0D5
S11306300E947F0808EC10E00AC088EE93E0F801FD
S11306403197F1F70197D9F780E00E94AF0081E07C
S11306500E940508882389F381E00E947F08BE0177
S11306606F5F7F4F81E00E94080763E5CE0101962A
S11306700E94FC016F2D88E690E00E946F0227968D
S11306800FB6F894DEBF0FBECDBFDF91CF911F919F
S11306900F91FF900895FF920F931F93CF93DF93D1
S11306A0CDB7DEB72D970FB6F894DEBF0FBECDBF22
S11306B0F82E81E392E39A8389831C821B8265E08E
S11306C081E00E94B40883E00E9405088823D9F3DE
S11306D083E00E947F0808EC10E00AC088EE93E0F3
S11306E0F8013197F1F70197D9F780E00E94AF0044
S11306F080E00E940508882389F380E00E947F0837
S1130700BE016B5F7F4F80E00E9408078F81898361
S113071088858A8389858B831C8264E5CE01019652
S11307200E94FC016F2D88E690E00E946F022D96D6
S11307300FB6F894DEBF0FBECDBFDF91CF911F91EE
S11307400F91FF900895FF920F931F93CF93DF9320
S1130750CDB7DEB72C970FB6F894DEBF0FBECDBF72
S1130760F82E88E399E39A8389831B8265E081E00C
S11307700E94B40808EC10E00AC088EE93E0F80187
S11307803197F1F70197D9F780E00E94AF0083E039
S11307900E940508882389F383E00E947F0808ECFF
S11307A010E00AC088EE93E0F8013197F1F7019761
S11307B0D9F780E00E94AF0080E00E9405088823FA
S11307C089F380E00E947F08BE016C5F7F4F80E068
S11307D00E9408078C8189838D818A831B8268E447
S11307E0CE0101960E94FC016F2D88E690E00E94E4
S11307F06F022C960FB6F894DEBF0FBECDBFDF910B
S1130800CF911F910F91FF90089560E080E00E94C6
S1130810720E40E060EB70E080E00E94A20D86E87A
S113082090E09F938F938EE890E09F938F931F9215
S113083082E08F9383E08F9388EE8F930E949E0EC5
S11308402DB73EB7285F3F4F0FB6F8943EBF0FBE9B
S11308502DBF811103C00E94260207C0823019F403
S11308600E94550202C00E94400240E065EB70E025
S113087080E00E94A20D86E890E09F938F938EE81B
S113088090E09F938F931F9282E08F9381E08F93E8
S113089084EF8F930E949E0E2DB73EB7285F3F4F83
S11308A00FB6F8943EBF0FBE2DBF811103C00E9446
S11308B0260204C0823011F40E94550240E063EC29
S11308C070E080E00E94A20D86E890E09F938F93F1
S11308D08EE890E09F938F931F9282E08F9381E044
S11308E08F9384EF8F930E949E0E2DB73EB7285F9F
S11308F03F4F0FB6F8943EBF0FBE2DBF811103C00A
S11309000E94260204C0823011F40E94550240E085
S113091061ED70E080E00E94A20D86E890E09F9374
S11309208F938EE890E09F938F931F9282E08F9332
S113093081E08F9384EF8F930E949E0E2DB73EB774
S1130940285F3F4F0FB6F8943EBF0FBE2DBF8111F5
S113095003C00E94260204C0823011F40E94550292
S113096040E06CED70E080E00E94A20D86E890E02B
S11309709F938F938EE890E09F938F931F9282E0D2
S11309808F9381E08F9384EF8F930E949E0E2DB7F7
S11309903EB7285F3F4F0FB6F8943EBF0FBE2DBF42
S11309A0811103C00E94260204C0823011F40E9407
S11309B0550240E060EF70E080E00E94A20D86E8FE
S11309C090E09F938F938EE890E09F938F931F9274
S11309D082E08F9381E08F9384EF8F930E949E0E29
S11309E02DB73EB7285F3F4F0FB6F8943EBF0FBEFA
S11309F02DBF811103C00E94260204C0823011F46D
S1130A000E94550261E080E00E94720E0895CF9327
S1130A10DF93CDB7DEB728970FB6F894DEBF0FBECD
S1130A20CDBF1A821982789461E080E00E94490067
S1130A3061E082E00E94490061E088E00E94490090
S1130A4061E08FE10E94490061E081E00E94490079
S1130A500E94AC0C90933801809337010E94670187
S1130A60A12CC12CE12C03E023E040E855E260E036
S1130A7070E080E00E941A0E61E080E00E94720E35
S1130A806DEC70E080E00E94150E40E061E071E0E2
S1130A9080E00E94A20D8BEC91E00E9497090E94D5
S1130AA005040E9489072FE835E040E050E060E04B
S1130AB081E00E94A7062FE735E040E050E060E0C7
S1130AC082E00E94A7062FE635E040E050E060E0B7
S1130AD084E00E94A70640E069E071E080E00E94A3
S1130AE0A20D00E0CE0101967C0110E085E00E9499
S1130AF00508882319F085E00E947F0887E00E949A
S1130B000508882319F087E00E947F0881E00E948D
S1130B100508882309F182E00E94AF0081E00E9469
S1130B207F08BE016D5F7F4F81E00E9408078B81C3
S1130B30823491F48C81813339F46E2D83E990E011
S1130B400E946F0201E008C0803331F46E2D88E901
S1130B5090E00E946F02012F80913701909138013B
S1130B60FC0124813581232B09F26091710070917D
S1130B70720043E050E00E94F70C412F6FE071E0F7
S1130B80812F0E94A20DE0917100F0917200828188
S1130B90833521F489810E94E8024FC08281843523
S1130BA021F489810E944B0348C08281883421F456
S1130BB089810E94A30341C082818434F1F50190AC
S1130BC0F081E02D8081823519F40E94340135C012
S1130BD080818C3419F40E9456012FC080818634A0
S1130BE099F401112AC061E088E00E948700612F16
S1130BF089E00E94870061E08AE00E948700612FFB
S1130C008BE00E94870019C08081823419F40E940D
S1130C10450113C08081833581F4612F8AE00E94ED
S1130C208700612F8BE00E948700612F88E00E947B
S1130C308700612F89E00E9487000E94400256CFFE
S1130C4060E08CE00E94870080EC0E94940D61E0DB
S1130C508CE00E94870008950F931F93CF93DF9336
S1130C60D82F8B01C42F60E08CE00E94870083E0C2
S1130C700E94940D8D2F0E94940DC13029F40E947E
S1130C809D0DF801808304C06C2FC8010E943E0DA5
S1130C9061E08CE00E948700DF91CF911F910F915A
S1130CA00895CF92DF92EF92FF92CF93DF93D82FE4
S1130CB0C62F69017A0160E08CE00E94870082E01F
S1130CC00E94940D8D2F0E94940DC13031F5D701EF
S1130CD0C601072E75E1B695A795979587957A95E0
S1130CE0D1F7702D0E94940DD701C601072E7DE027
S1130CF0B695A795979587957A95D1F7702D807EAF
S1130D009E2D9370892B88600E94940D8D2D0E94D6
S1130D10940D8C2D0E94940D0FC0C6019695879555
S1130D2096958795969587950E94940D8C2D82951E
S1130D30880F807E0E94940D61E08CE00E94870001
S1130D40DF91CF91FF90EF90DF90CF900895CF92F5
S1130D50DF92EF92FF92CF93DF93C82FD62F6901D2
S1130D607A0160E08CE00E948700D13081F582E056
S1130D700E94940D8C2F86958295807F8F5C0E94B3
S1130D80940DD701C601072E75E1B695A7959795E1
S1130D9087957A95D1F7702D0E94940DD701C601DD
S1130DA0072E7DE0B695A795979587957A95D1F707
S1130DB0702D807E9E2D9370892B88600E94940DE7
S1130DC08D2D0E94940D8C2D0E94940D16C0C1305F
S1130DD009F4C0E08C2F80640E94940DC60196959E
S1130DE0879596958795969587950E94940D8C2D59
S1130DF08295880F807E0E94940D61E08CE00E94B1
S1130E008700DF91CF91FF90EF90DF90CF9008950E
S1130E100F931F93CF93C82F8B0160E08CE00E9447
S1130E20870083E00E94940D8C2F8295807F8B59DC
S1130E300E94940D0E949D0D682F6F70C8010E943E
S1130E403E0D61E08CE00E948700CF911F910F91CD
S1130E500895EF92FF921F93CF93DF93C82FD62F5D
S1130E607A01122F60E08CE00E94870082E00E94E9
S1130E70940D8C2F86958295807F8B5C0E94940DB7
S1130E8020E4D29FC0011124812B0E94940DD11122
S1130E9004C0612FC7010E94250D61E08CE00E940F
S1130EA08700DF91CF911F91FF90EF900895CF932A
S1130EB0C82F60E08CE00E9487008C2F80680E941D
S1130EC0940D61E08CE00E94870080E197E2019735
S1130ED0F1F7CF9108951F93CF93DF93182FD62F57
S1130EE0C42F60E08CE00E94870085E00E94940D8E
S1130EF0812F0E94940D8D2F0E94940D8C2F0E949F
S1130F00940D61E08CE00E948700DF91CF911F91E6
S1130F1008950E94800D0E94200640E06FE08CE05E
S1130F200E946B0740E067E08DE00E946B0740E0A1
S1130F3060E680E60E946B0740E060E680E70E947E
S1130F406B074FEF6FEF8BE20E946B0741E46FEF8B
S1130F508AE20E946B0741EB6FEF89E20E946B0704
S1130F6045E067E488E20E946B072FEF3FE040E032
S1130F7050E060E080E20E9451062FEF3FE040E045
S1130F8050E060E084E20E9451062FE835E040E042
S1130F9050E060E080E00E9451062FE735E040E039
S1130FA050E060E088E00E9451062FE635E040E022
S1130FB050E060E080E10E9451062FE535E040E01A
S1130FC050E060E084E10E9451062FE435E040E007
S1130FD050E060E088E10E94510648E06FEF8FE244
S1130FE00E946B070895CF9360E08CE00E94870015
S1130FF080EA0E94940D0E949D0DC82F61E08CE050
S11310000E9487008C2FCF9108951F93CF93DF9375
S11310101F92CDB7DEB7182F883058F40E94F3071B
S113102021E030E002C0220F331F1A95E2F7822339
S113103061C0803190F441E0BE016F5F7F4F8CE26C
S11310400E942C06185081E090E002C0880F991F7E
S11310501A95E2F7298182234DC0883190F441E04A
S1131060BE016F5F7F4F80E30E942C06105181E028
S113107090E002C0880F991F1A95E2F72981822314
S113108039C0803290F441E0BE016F5F7F4F80E44D
S11310900E942C06185181E090E002C0880F991F2D
S11310A01A95E2F72981822325C0883290F441E021
S11310B0BE016F5F7F4F80E50E942C06105281E0D5
S11310C090E002C0880F991F1A95E2F729818223C4
S11310D011C041E0BE016F5F7F4F8DE20E942C067C
S11310E0185281E090E002C0880F991F1A95E2F728
S11310F0298182230F90DF91CF911F910895883029
S1131100B8F4833031F0853031F0873029F484E04D
S113111003C082E001C083E061E070E002C0660FBA
S1131120771F8A95E2F740E08CE20E946B070895EE
S1131130803168F4885061E070E002C0660F771F68
S11311408A95E2F740E08CE20E946B07089588528A
S113115061E070E002C0660F771F8A95E2F740E015
S11311608CE20E946B070895CF93C82F262F40E08E
S113117050E061E00E9429078C2F0E945707CF910D
S113118008951F920F920FB60F9211242F933F933D
S11311904F935F936F937F938F939F93AF93BF937B
S11311A0EF93FF93F89480912C0190912D01892B5A
S11311B099F080912C0190912D01019721F4809157
S11311C02E01819582BF80912C0190912D01019770
S11311D090932D0180932C01E0912F01F091300127
S11311E0309709F009957894FF91EF91BF91AF91F1
S11311F09F918F917F916F915F914F913F912F912B
S11312000F900FBE0F901F9018950F931F9340914E
S11312102C0150912D01452B09F042C023B7211117
S11312203FC09C01A8EEB3E00E94490F8B019C01D2
S11312300F2EFFE03695279517950795FA95D1F768
S1131240F02D0F5F1F4F10932D0100932C0125E00B
S113125023BF21E029BFDC01CB01887F9F77AA2728
S1131260BB27689416F8B695A79597958795169415
S1131270D1F780932E0120912C0130912D01213042
S1131280310529F4682F619562BF81E019C080910E
S11312902C0190912D01029780F012BE81E010C0C4
S11312A080912C0190912D01892B49F413BE12BE1B
S11312B089B78E7F89BF80E003C081E001C081E0EF
S11312C01F910F91089513BE12BE10922D0110921A
S11312D02C0108950F931F939C01A8EEB3E00E9484
S11312E0490F8B019C010F2EFFE03695279517952A
S11312F00795FA95D1F7F02D0F5F1F4F10932D012D
S113130000932C0121E029BFDC01CB01887F9F776A
S1131310AA27BB27689416F8B695A795979587953D
S11313201694D1F780932E011F910F9108959093F5
S1131330300180932F0108954F925F926F927F92B4
S11313408F929F92AF92BF92CF92DF92EF92FF92D1
S11313500F931F93CF93DF93182FEB0180FF91C05E
S113136083B7887F83BF6B01E12CF12C60E072E1CD
S11313708AE790E0A70196010E94270F2F3F3105CD
S11313804105510518F481E083BF78C0D701C60137
S1131390880F991FAA1FBB1F880F991FAA1FBB1F65
S11313A09C01AD01220F331F441F551F60E072E101
S11313B08AE790E00E94270F2F3F31054105510530
S11313C020F483B7826083BF59C0D701C601880F58
S11313D0991FAA1FBB1F880F991FAA1FBB1F880F25
S11313E0991FAA1FBB1F880F991FAA1FBB1F9C010F
S11313F0AD01220F331F441F551F220F331F441FFB
S1131400551F60E072E18AE790E00E94270F2F3FAA
S113141031054105510520F483B7836083BF2EC095
S113142088249C2CAD2CBE2C60E072E18AE790E00D
S1131430A50194010E94270F2F3F31054105510555
S113144020F483B7846083BF19C0A7019601012EDD
S11314501AE0220F331F441F551F1A95D1F7102D80
S113146060E072E18AE790E00E94270F2F3F310588
S11314704105510518F483B7856083BF83B7886439
S113148083BF812F867009F4A7C08FB5887F8FBD75
S11314906E01E12CF12C60E072E18AE790E0A70193
S11314A096010E94270F022FB32E2F3F3F4F410575
S11314B0510518F481E08EBD84C0D701C601880FA0
S11314C0991FAA1FBB1F880F991FAA1FBB1F9C012E
S11314D0AD01220F331F441F551F60E072E18AE7FC
S11314E090E00E94270F2F3F8FEF380741055105E9
S11314F030F48EB582608EBD022FB32E62C0D70148
S1131500C601880F991FAA1FBB1F880F991FAA1F06
S1131510BB1F880F991FAA1FBB1F880F991FAA1FE3
S1131520BB1F9C01AD01220F331F441F551F220F07
S1131530331F441F551F60E072E18AE790E00E9468
S1131540270F2F3F8FEF38074105510530F48EB533
S113155083608EBD022FB32E34C044245C2C6D2CCA
S11315607E2C60E072E18AE790E0A30192010E9480
S1131570270F2F3F8FEF38074105510530F48EB503
S113158084608EBD022FB32E1CC0A7019601012ECC
S11315901AE0220F331F441F551F1A95D1F7102D3F
S11315A060E072E18AE790E00E94270F2F3F8FEFFF
S11315B038074105510528F48EB585608EBD022F8C
S11315C0B32EB7BC06BD8EB588618EBD8FB5826063
S11315D08FBD8FB58E7F8FBD13FFE7C085B5887F24
S11315E085BD6E01E12CF12C60E072E18AE790E0A8
S11315F0A70196010E94270F2F3F31054105510590
S113160018F481E085BDCEC0D701C601880F991FAB
S1131610AA1FBB1F880F991FAA1FBB1F9C01AD01E6
S1131620220F331F441F551F60E072E18AE790E0E8
S11316300E94270F2F3F31054105510520F485B540
S1131640826085BDAFC0D701C601880F991FAA1F4C
S1131650BB1F880F991FAA1FBB1F880F991FAA1FA2
S1131660BB1F880F991FAA1FBB1F9C01AD01220F2E
S1131670331F441F551F60E072E18AE790E00E9427
S1131680270F2F3F31054105510520F485B58360AF
S113169085BD88C0D701C601880F991FAA1FBB1F2B
S11316A0880F991FAA1FBB1F880F991FAA1FBB1F52
S11316B0880F991FAA1FBB1F9C01AD01220F331F66
S11316C0441F551F220F331F441F551F60E072E152
S11316D08AE790E00E94270F2F3F3105410551050D
S11316E020F485B5846085BD5DC0D701C601880F2F
S11316F0991FAA1FBB1F880F991FAA1FBB1F880F02
S1131700991FAA1FBB1F880F991FAA1FBB1F880FF1
S1131710991FAA1FBB1F880F991FAA1FBB1F9C01DB
S1131720AD01220F331F441F551F60E072E18AE7A9
S113173090E00E94270F2F3F31054105510520F409
S113174085B5856085BD2EC03E2D2D2D1C2D002711
S113175060E072E18AE790E0A90198010E94270FF6
S11317602F3F31054105510520F485B5866085BDBF
S113177019C0A7019601012E1AE0220F331F441F3E
S1131780551F1A95D1F7102D60E072E18AE790E0B9
S11317900E94270F2F3F31054105510518F485B5E7
S11317A0876085BD85B5886485BDDF91CF911F9124
S11317B00F91FF90EF90DF90CF90BF90AF909F90EC
S11317C08F907F906F905F904F900895CF93C82F24
S11317D080FF0AC061E08BE00E94490083B7806209
S11317E083BF83B78F7E83BFC1FF0AC061E08DE1F1
S11317F00E9449008FB58F7B8FBD8FB580688FBDE8
S1131800C2FF0AC061E08CE10E9449008FB58F7E5F
S11318108FBD8FB580628FBDC3FF0BC061E08FE1C8
S11318200E9449008F9A85B5806285BD85B58F7EFB
S113183085BDCF910895CF93DF93D82FC62F80FF16
S113184019C0643629F48FEF8CBFD1FD17C07BC05B
S11318508FEF689F9001112436952795369527952B
S1131860ABE7B4E10E94490F969587958CBFD1FDF3
S113187014C06CC081FF27C0643679F496B527B5CF
S113188030E0322F2227892F90E00197820F931F97
S11318909BBD8ABDD2FD1BC03FC086B527B530E0D5
S11318A0322F2227280F311DAC2FB0E00E94490FA0
S11318B024E630E040E050E00E94270F3BBD2ABD03
S11318C0D2FD14C029C082FF27C0643679F496B5CE
S11318D027B530E0322F2227892F90E00197820F1D
S11318E0931F99BD88BDD3FD1BC033C086B527B5F2
S11318F030E0322F2227280F311DAC2FB0E00E9498
S1131900490F24E630E040E050E00E94270F39BD43
S113191028BDD3FD08C01DC0D3FF1BC0C43619F4B5
S11319208FEF83BD16C08FEFC89F900111243695A9
S1131930279536952795ABE7B4E10E94490F969514
S1131940879583BD06C0D2FDC2CFE6CFD2FDCECFF0
S1131950E3CFDF91CF91089586E090E00E94580F85
S1131960FC0111821082138212821582148208955E
S1131970CF92DF92EF92FF920F931F93CF93DF9357
S1131980EC016B01042F84E090E00E94580F7C016D
S113199010E0C8010E94580FF70191838083A801C9
S11319A0B6010E947910F701138212828C819D8105
S11319B0892B29F4F982E882FB82EA820AC0EA814F
S11319C0FB81F382E282EA81FB81828193819B83A2
S11319D08A838C819D8101969D838C83DF91CF9135
S11319E01F910F91FF90EF90DF90CF9008950F9388
S11319F01F93CF93DF93FC0124813581232BF9F0CE
S1131A009B01EC010190F081E02D60817181C9019D
S1131A100E94791008811981F80182819381998348
S1131A208883808191810E94F00FC8010E94F00F89
S1131A308C819D8101979D838C8381E001C08FEF10
S1131A40DF91CF911F910F9108950F931F93CF931F
S1131A50DF93662371F0EC016150062F10E00F5FF5
S1131A601F4F080F191F89910E94940DC017D107A9
S1131A70D1F7DF91CF911F910F9108950F931F9389
S1131A80CF93DF93662371F0EC016150062F10E0D1
S1131A900F5F1F4F080F191F0E949D0D8993C017D8
S1131AA0D107D1F7DF91CF911F910F9108951F9224
S1131AB00F920FB60F9211242F933F934F935F937E
S1131AC06F937F938F939F93AF93BF93EF93FF9302
S1131AD0F894E0913101F091320109957894FF91E5
S1131AE0EF91BF91AF919F918F917F916F915F9192
S1131AF04F913F912F910F900FBE0F901F9018950B
S1131B0061E08DE00E94490061E08CE00E944900A0
S1131B1061E08FE00E94490060E08EE00E9449008D
S1131B2080E58DB91EB808958FB90FB607FE02C0BF
S1131B306F9902C0779BFECF089581E30E94940DB4
S1131B408FB10895FF920F931F93CF93DF93FB01FF
S1131B506081461771F0D42F8F01F82EC0E08F2DCD
S1131B600E946C0ECF5FF801EC0FF11D60816D13C4
S1131B70F6CFDF91CF911F910F91FF9008951F929F
S1131B800F920FB60F9211242F933F934F935F93AD
S1131B906F937F938F939F93AF93BF93EF93FF9331
S1131BA0F894E0913501F0913601309709F00995E8
S1131BB07894FF91EF91BF91AF919F918F917F9115
S1131BC06F915F914F913F912F910F900FBE0F90A6
S1131BD01F9018951F920F920FB60F9211242F93F6
S1131BE03F934F935F936F937F938F939F93AF93A1
S1131BF0BF93EF93FF93F894E0913301F091340194
S1131C00309709F009957894FF91EF91BF91AF91C6
S1131C109F918F917F916F915F914F913F912F9100
S1131C200F900FBE0F901F9018957093340160931E
S1131C3033010895AF92CF92EF92FF920F93CF9317
S1131C40C22F811142C0DB01CA01880F991FAA1F4C
S1131C50BB1F880F991FAA1FBB1F880F991FAA1F9C
S1131C60BB1F880F991FAA1FBB1F9C01AD01207FBA
S1131C705F7760E078E488EE91E00E94270F2250BD
S1131C80310920FF05C0369527952F5F3F4F02C0CD
S1131C903695279582E08BB9000F000F000F8C2F2B
S1131CA08470082B0AB9CC0CCC0CCC0C8A2D80681F
S1131CB0AC2CA82A80E1E89E70011124EA28C370A4
S1131CC0CC0FEC2AE0BC30BD29B9CF910F91FF9025
S1131CD0EF90CF90AF900895559902C05D9BFECFD1
S1131CE06CB90895811108C0662319F08AB180681F
S1131CF002C08AB18F778AB90895FA012081FC0164
S1131D00E20FF11D308136130CC02F5FFA012083DE
S1131D10FC01E20FF11D81E09081992371F080E0D4
S1131D200895FC018081681305C081E0FA01808375
S1131D3080E00895FA01108280E008952F923F9286
S1131D404F925F926F927F928F929F92AF92BF92C7
S1131D50CF92DF92EF92FF920F931F93CF93DF9373
S1131D60CDB7DEB7ED88FE88AF88B88C6DB67EB689
S1131D70C501880F991F2DB73EB7281B390B0FB625
S1131D80F8943EBF0FBE2DBF2F5F3F4F522E432E00
S1131D904DB75EB74A195B090FB6F8945EBF0FBE24
S1131DA04DBFEDB7FEB731964F011A141B0464F40E
S1131DB0DE015996F901280F391F8D919D91819368
S1131DC09193E217F307C9F7312C1FC05F9B1DC025
S1131DD02CB01A141B04CCF4C52CD42C00E010E055
S1131DE0A401400F511F622DF601819191916F0161
S1131DF00E947D0E882321F033243394300E05C0D5
S1131E000F5F1F4FA016B10659F7C7010E940509BD
S1131E10882311F03320D1F20E946309832D0FB679
S1131E20F8947EBE0FBE6DBEDF91CF911F910F91CE
S1131E30FF90EF90DF90CF90BF90AF909F908F90E6
S1131E407F906F905F904F903F902F900895A1E204
S1131E501A2EAA1BBB1BFD010DC0AA1FBB1FEE1F20
S1131E60FF1FA217B307E407F50720F0A21BB30B6B
S1131E70E40BF50B661F771F881F991F1A9469F7E7
S1131E8060957095809590959B01AC01BD01CF0143
S1131E900895A29FB001B39FC001A39F700D811D3F
S1131EA01124911DB29F700D811D1124911D08955F
S1131EB00F931F93CF93DF938230910510F482E048
S1131EC090E0E0914801F091490120E030E0A0E089
S1131ED0B0E0309719F14081518102811381481794
S1131EE05907C8F08417950769F4109731F01296D2
S1131EF00C93129713961C9327C0009348011093D8
S1131F00490122C02115310519F04217530718F46D
S1131F109A01BD01EF01DF01F801DBCF2115310585
S1131F20F9F0281B390B2430310580F48A819B8118
S1131F306115710521F0FB019383828304C09093A2
S1131F40490180934801FE01329644C0FE01E20F2C
S1131F50F31F8193919322503109398328833AC026
S1131F602091460130914701232B41F420916200D6
S1131F703091630030934701209346012091600023
S1131F80309161002115310541F42DB73EB74091E0
S1131F90640050916500241B350BE0914601F091DB
S1131FA04701E217F307A0F42E1B3F0B281739074C
S1131FB078F0AC014E5F5F4F2417350748F04E0FA1
S1131FC05F1F50934701409346018193919302C050
S1131FD0E0E0F0E0CF01DF91CF911F910F910895E0
S1131FE0CF93DF93009709F481C0FC0132971382E9
S1131FF01282A0914801B0914901109781F4208187
S11320003181820F931F2091460130914701281797
S1132010390751F5F0934701E093460167C0ED019C
S113202020E030E0CE17DF0740F44A815B819E0157
S113203041155105F1F0EA01F5CFD383C283408104
S11320405181840F951FC817D90759F48881998144
S1132050840F951F0296918380838A819B81938349
S113206082832115310529F4F0934901E093480155
S11320703DC0E901FB83EA8349915991C40FD51FFF
S1132080EC17FD0761F480819181840F951F0296FE
S1132090E90199838883828193819B838A83E0E029
S11320A0F0E012968D919C911397009719F0FD0121
S11320B0DC01F7CF8D919C9111979D012E5F3F4FCD
S11320C0820F931F20914601309147012817390749
S11320D069F4309729F4109249011092480102C022
S11320E013821282B0934701A0934601DF91CF91EE
S11320F00895FB01DC0102C001900D924150504053
S1132100D8F70895BB274A3031F4992322F4BDE26D
S1132110909581959F4F0C948E10BB27FB015527FA
S1132120AA27880F991FAA1FA41710F0A41B839530
S11321305051B9F7A05DAA3308F0A95DA1930097A7
S113214079F7B111B1931192CB010C94A710DC0172
S1132150FC01672F71917723E1F7329704C07C91DA
S11321606D9370836291AE17BF07C8F30895F89416
S1052170FFCF9B
S113217200004A012000FFFE7B2020202020202096
S11321822043013132333400000041542B4349507F
S113219253454E443D004552524F520D0A004F4B97
S11321A20D0A007B42427D007B424E7D003A205361
S11321B24D4F4B45003A204E4F425245414B210070
S11321C241540D0A0041542B43574D4F44453D3170
S11321D20D0A0041542B4349504D55583D310D0AC7
S11321E20041542B43494653520D0A0041542B4398
S11321F249505345525645523D312C38300D0A0050
S113220241542B43495053544F3D313030300D0A21
S11322120068656C6C6F0D0A0052454144590073A5
S1132222697A6520626967676572207468616E20E5
S109223231200D0A00003A
S9030000FC
