S01A000052656D6F74655F436F6E74726F6C5F4543552E7372656322
S11300000C942A000C9447000C9447000C9447006D
S11300100C9447000C9447000C9447000C94470040
S11300200C9447000C94DF050C9447000C94D10900
S11300300C9447000C94A6090C9447000C944700B8
S11300400C9447000C9447000C9447000C94470010
S11300500C94470011241FBECFE5D4E0DEBFCDBF12
S113006011E0A0E6B0E0E0E4F9E102C005900D92F1
S1130070A434B107D9F721E0A4E4B1E001C01D9292
S1130080A836B207E1F70E94DA030C949E0C0C9494
S11300900000262F269526952695962F977030E0FA
S11300A0F901EE0FFF1F2E0F3F1FEE27FF27E21B64
S11300B0F30BF996813019F561E070E002C0660F28
S11300C0771F9A95E2F740E050E020E030E080812D
S11300D090E086239723892B49F02F5F3F4F253FDC
S11300E081E0380778F540E050E0F1CF4F5F5F4F93
S11300F0453F81E0580740F520E030E0E8CF61E07B
S113010070E002C0660F771F9A95E2F740E050E076
S113011020E030E0808190E086239723892B49F406
S11301202F5F3F4F253F81E0380780F440E050E0E7
S1130130F1CF4F5F5F4F453F81E0580748F420E01F
S113014030E0E8CF81E0089580E0089581E00895EB
S113015080E00895E82FE695E695E695877062308D
S1130160E1F0F0E09F01220F331FE20FF31FF1953E
S1130170E195F10922AD41E050E0082E02C0440FA0
S1130180551F0A94E2F7942F9095922301C0660FAD
S11301908A95EAF7692B62AF0895F0E09F01220F78
S11301A0331FE20FF31FF195E195F10942AD21E010
S11301B030E0B90102C0660F771F8A95E2F7CB01E0
S11301C0962F9095942392AF93AD892B83AF089586
S11301D0962F382F369536953695E32FF0E0AF01FC
S11301E0440F551FE40FF51FF195E195F10963AD37
S11301F0330F330F330F831B21E030E0082E02C08E
S1130200220F331F0A94E2F720952623692F70E00A
S113021002C0660F771F8A95E2F7622B63AF0895D9
S113022081E0809344018CB18093490180916700FF
S11302308E3F89F483E090E00E9423068FEF809341
S11302406700809149018B3709F050C01092670014
S1130250109266000895809167008F3F51F4809159
S113026049018B3709F042C0109267001092660072
S1130270089580916700811108C08091490180939D
S1130280470181E080936700089580916700813081
S113029069F5809149018D3789F4E09166000E2E4D
S11302A0000CFF0BE95AFE4F10828FEF809367001A
S11302B08093660081E0809348010895E091660090
S11302C00E2E000CFF0B80914901E95AFE4F8083EA
S11302D0809166008F5F80936600809166008B300A
S11302E02CF08FEF809366008093670008950F933E
S11302F01F93CF93DF93E0915501F09156018481D0
S11303009581049788F50091680010916900C7E50C
S1130310D1E0FE0101900020E9F7CF01875591401B
S11303200E943F0BF8019183808309900020E9F734
S1130330E0916800F0916900AE014755514067E5CE
S113034071E0808191810E94600C609168007091DD
S1130350690080914701FB01828343E0809155014C
S1130360909156010E94C606DF91CF911F910F9183
S11303700895809167008E3F31F18091440181306E
S113038081F41092440183E090E00E9488068091F9
S11303904501909146010196909346018093450151
S11303A008958091440181110EC00E9481068EEF50
S11303B0809367008FEF809366001092460110923D
S11303C045010E9477010895CF93DF93C4E0D0E004
S11303D061E080E10E94E8002FEF80E792E0215085
S11303E080409040E1F700C0000060E080E10E949E
S11303F0E8002FEF80E792E0215080409040E1F741
S113040000C00000219721F7DF91CF910895CF9389
S1130410DF93CCE0D0E061E080E10E94E8008FE16E
S11304209EE40197F1F700C0000060E080E10E94C3
S1130430E8008FE19EE40197F1F700C000002197E6
S113044051F7DF91CF91089581E00E94330740E096
S113045061E083E890E00E94EE0841E061E08AE810
S113046090E00E94EE0841E06BE080E990E00E9499
S1130470EE0880914A01811107C060E070E080E0DD
S113048090E00E94D80811C0823039F461E070E035
S113049080E090E00E94D80808C0813031F461E027
S11304A070E08AE090E00E94D8088EE30E94200960
S11304B00895CF93C82F81E00E94330740E060E0A5
S11304C085E990E00E94EE088AE690E00E940A091D
S11304D089E990E00E940A0941E061E08DE990E039
S11304E00E94EE0884E790E00E940A0981EA90E005
S11304F00E940A0941E06BE083EA90E00E94EE0862
S113050080E790E00E940A0987EA90E00E940A09C5
S1130510C13039F440E069E08BEA90E00E94EE08D3
S113052006C040E069E089EA90E00E94EE08CF91BD
S1130530089540E061EB70E080E00E946C098091D6
S113054067008E3FE1F760E080E00E94590A40E0D6
S11305506CE071E080E00E946C0984EB90E09F9372
S11305608F938CEB90E09F938F931F9282E08F93F5
S11305701F9284E68F930E94850A2DB73EB7285FA9
S11305803F4F0FB6F8943EBF0FBE2DBF811103C07D
S11305900E94E40104C0823011F40E94070240E08A
S11305A061EC70E080E00E946C0984EB90E09F9322
S11305B08F938CEB90E09F938F931F9282E08F93A5
S11305C01F9284E68F930E94850A2DB73EB7285F59
S11305D03F4F0FB6F8943EBF0FBE2DBF811103C02D
S11305E00E94E40104C0823011F40E94070240E03A
S11305F06FEC70E080E00E946C0984EB90E09F93C4
S11306008F938CEB90E09F938F931F9282E08F9354
S11306101F9284E68F930E94850A2DB73EB7285F08
S11306203F4F0FB6F8943EBF0FBE2DBF811103C0DC
S11306300E94E40104C0823011F40E94070240E0E9
S11306406DED70E080E00E946C0984EB90E09F9374
S11306508F938CEB90E09F938F931F9282E08F9304
S11306601F9284E68F930E94850A2DB73EB7285FB8
S11306703F4F0FB6F8943EBF0FBE2DBF811103C08C
S11306800E94E40104C0823011F40E94070240E099
S113069068EE70E080E00E946C0984EB90E09F9328
S11306A08F938CEB90E09F938F931F9282E08F93B4
S11306B01F9284E68F930E94850A2DB73EB7285F68
S11306C03F4F0FB6F8943EBF0FBE2DBF811103C03C
S11306D00E94E40104C0823011F40E94070261E028
S11306E080E00E94590A0895EF92FF921F93CF93DE
S11306F0DF9300D000D0CDB7DEB77C01162F40E0E9
S11307006FE071E080E00E946C094AE0BE016F5F17
S11307107F4F812F90E00E94690C40E0BE016F5F23
S11307207F4F80E00E946C09809167008E3FE1F763
S113073060E080E00E94590A40E06CE071E080E0F3
S11307400E946C0984EB90E09F938F938CEB90E074
S11307509F938F931F9282E08F9381E08F9384EF16
S11307608F930E94850A0FB6F894DEBF0FBECDBFEB
S1130770811103C00E94E40104C0823011F40E947C
S1130780070261E080E00E94590A412FB70180E02E
S11307900E94890940E06CE071E080E00E946C09ED
S11307A00F900F900F900F90DF91CF911F91FF90BA
S11307B0EF90089561E080E10E94AA0062E088E081
S11307C00E94AA0062E08BE00E94AA0062E08DE031
S11307D00E94AA0062E08CE10E94AA0062E08EE11D
S11307E00E94AA0062E08FE10E94AA0062E081E117
S11307F00E94AA0062E083E10E94AA0078940E9409
S1130800BA06909356018093550160E171E080E04F
S11308100E94FC0989EB91E00E94B506A12CC12C31
S1130820E12C03E023E040E855E260E070E080E082
S11308300E94010A2FEF89E698E121508040904000
S1130840E1F700C000000E9499020E94FF0760E0E7
S113085070E080E090E00E94D8088BE191E00E9473
S11308600A0961E070E080E090E00E94D80883E229
S113087091E00E940A09EFEFF9E628E1E150F04027
S11308802040E1F700C000000E94240261E080E003
S11308900E94590A00E010E0C0E0B12CD0E00F2E15
S11308A0F7E5EF2EF1E0FF2EF02DDD24D3940F2E8B
S11308B0F3E0CF2EF02DE0915501F09156018481A3
S11308C09581892B09F487C0609168007091690053
S11308D043E050E0CF010E940507E0916800F091E9
S11308E0690082818335F1F460817181FB0101909B
S11308F00020E9F7AF01461B570B8AE690E00E94FF
S1130900600C63E580E00E94530A40E06AE670E010
S113091080E00E946C0940E06CE071E080E00E949D
S11309206C0957C0843511F564E580E00E94530AD0
S1130930E0916800F091690060817181FB01019090
S11309400020E9F7AF01461B570B84E790E00E94B3
S1130950600C40E064E770E080E00E946C0940E0D5
S11309606CE071E080E00E946C0933C0883411F5BA
S113097068E480E00E94530AE0916800F091690005
S113098060817181FB0101900020E9F7AF01461BF2
S1130990570B80E790E00E94600C40E060E770E055
S11309A080E00E946C0940E06CE071E080E00E940D
S11309B06C090FC0823469F4F7018081823419F420
S11309C0AD9ABD2C06C0F70180818E3411F4AD9828
S11309D0B12C1092480168E080E00E94490088230D
S11309E009F44DC011114CC0D111E3C080914A01EA
S11309F0811116C060E070E080E090E00E94D808A9
S1130A0080E20E94200961E070E080E090E00E94B2
S1130A10D8088EE30E94200982E080934A01C1C075
S1130A208230A9F461E070E080E090E00E94D80890
S1130A3080E20E94200961E070E08AE090E00E9478
S1130A40D8088EE30E942009D0924A01AAC08130BE
S1130A5009F0A7C061E070E08AE090E00E94D80845
S1130A6080E20E94200960E070E080E090E00E9453
S1130A70D8088EE30E94200910924A0192C010E027
S1130A806BE080E00E944900882381F1D1112EC0DF
S1130A9001C01D2D80914A0181110BC062E087E2E3
S1130AA091E00E947403EAE6F0E080818F5F808326
S1130AB019C0823059F462E08AE291E00E94740322
S1130AC0E4E7F0E080818F5F80830CC0813051F4D3
S1130AD062E08DE291E00E947403E0E7F0E080813F
S1130AE08F5F80838B2D0E945902DD2D6DE080E0A5
S1130AF00E944900882389F0011112C0D11106C057
S1130B008B2D0E9459020D2DDD2D0AC0D13039F4F0
S1130B100E9424020D2DD0E003C000E001C00D2D81
S1130B206EE180E00E944900882351F0C33009F44B
S1130B30C2CE64E080E391E00E947403CC2DBBCE6E
S1130B406FE180E00E944900882351F0C43009F429
S1130B50B2CE64E085E391E00E947403C4E0ABCEBE
S1130B6061E180E00E944900882351F0C13009F41A
S1130B70A2CE64E08AE391E00E947403CD2D9BCE63
S1130B8063E180E00E944900882309F494CECC23D9
S1130B9009F491CE64E08FE391E00E947403C0E015
S1130BA08ACE6BE080E00E944900811172CF1D2D36
S1130BB09DCF6BE080E00E9449001D2D97CF1F92CE
S1130BC00F920FB60F9211242F933F934F935F937D
S1130BD06F937F938F939F93AF93BF93EF93FF9301
S1130BE0F89480914B0190914C01892B99F080915C
S1130BF04B0190914C01019721F480914D01819515
S1130C0082BF80914B0190914C01019790934C01CC
S1130C1080934B01E0914E01F0914F01309709F020
S1130C2009957894FF91EF91BF91AF919F918F9126
S1130C307F916F915F914F913F912F910F900FBED4
S1130C400F901F9018950F931F9340914B01509153
S1130C504C01452B09F042C023B721113FC09C0130
S1130C60A8EEB3E00E94300B8B019C010F2EFFE035
S1130C703695279517950795FA95D1F7F02D0F5FBF
S1130C801F4F10934C0100934B0125E023BF21E03B
S1130C9029BFDC01CB01887F9F77AA27BB276894F3
S1130CA016F8B695A795979587951694D1F78093DE
S1130CB04D0120914B0130914C012130310529F433
S1130CC0682F619562BF81E019C080914B019091BA
S1130CD04C01029780F012BE81E010C080914B015C
S1130CE090914C01892B49F413BE12BE89B78E7FB3
S1130CF089BF80E003C081E001C081E01F910F91B2
S1130D00089513BE12BE10924C0110924B01089527
S1130D100F931F939C01A8EEB3E00E94300B8B014C
S1130D209C010F2EFFE03695279517950795FA95A8
S1130D30D1F7F02D0F5F1F4F10934C0100934B011F
S1130D4021E029BFDC01CB01887F9F77AA27BB273D
S1130D50689416F8B695A795979587951694D1F744
S1130D6080934D011F910F91089590934F018093AB
S1130D704E01089586E090E00E943F0BFC01118231
S1130D80108213821282158214820895CF92DF9208
S1130D90EF92FF920F931F93CF93DF93EC016B01BC
S1130DA0042F84E090E00E943F0B7C0110E0C80116
S1130DB00E943F0BF70191838083A801B6010E9432
S1130DC0600CF701138212828C819D81892B29F496
S1130DD0F982E882FB82EA820AC0EA81FB81F3821B
S1130DE0E282EA81FB81828193819B838A838C8165
S1130DF09D8101969D838C83DF91CF911F910F91EB
S1130E00FF90EF90DF90CF9008950F931F93CF93AF
S1130E10DF93FC0124813581232BF9F09B01EC0144
S1130E200190F081E02D60817181C9010E94600C04
S1130E3008811981F8018281938199838883808153
S1130E4091810E94D70BC8010E94D70B8C819D8190
S1130E5001979D838C8381E001C08FEFDF91CF9157
S1130E601F910F9108955F926F927F928F929F923C
S1130E70AF92BF92CF92DF92EF92FF920F931F93A4
S1130E80CF93DF93582E809150018F7B8093500134
S1130E9068E00E943C0982E08A95F1F700C08091E5
S1130EA0500180628093500168E00E943C0992E006
S1130EB09A95F1F700C0852D881F8827881F982FE1
S1130EC09295907F80915001817E892B56FAAA24B5
S1130ED0A0F8B12CAA0CBB1CAA0CBB1CAA0CBB1CF2
S1130EE0A82A55FACC24C0F8D12CCC0CDD1CCC0C8F
S1130EF0DD1CCA2854FA882780F9C82F90E0D92F1E
S1130F00CC0FDD1F8C2F8C298093500168E00E9448
S1130F103C0982E08A95F1F700C0809150018F7DF1
S1130F208093500168E00E943C0992E09A95F1F7A1
S1130F3000C08091500180628093500168E00E945B
S1130F403C0982E08A95F1F700C050FAEE24E0F8FB
S1130F50F12CEE0CFF1C80915001817EE82A53FA9B
S1130F60002700F910E002951295107F1027007FEA
S1130F7010270E2952FA882480F8912C880C991C89
S1130F80880C991C880C991C802A51FA662460F8F4
S1130F90712C660C771C660C771C882D862980932F
S1130FA0500168E00E943C0992E09A95F1F700C074
S1130FB0809150018F7D8093500168E00E943C092C
S1130FC08FEF850D823038F48FE99FE00197F1F7B8
S1130FD000C0000004C095E89A95F1F70000DF9185
S1130FE0CF911F910F91FF90EF90DF90CF90BF9022
S1130FF0AF909F908F907F906F905F9008950E9424
S113100023098FE99CE80197F1F700C0000082E012
S11310100E94330788E20E9433078EE00E94330760
S113102081E00E94330786E00E94330708955F92AF
S11310306F927F928F929F92AF92BF92CF92DF92E4
S1131040EF92FF920F931F93CF93DF93582E8091CB
S1131050500180648093500168E00E943C0982E062
S11310608A95F1F700C0809150018062809350010D
S113107068E00E943C0982E08A95F1F700C0852D62
S1131080881F8827881F982F9295907F8091500100
S1131090817E892B56FAAA24A0F8B12CAA0CBB1C79
S11310A0AA0CBB1CAA0CBB1CA82A55FACC24C0F859
S11310B0D12CCC0CDD1CCC0CDD1CCA2854FA88279E
S11310C080F9C82F80E0D82FCC0FDD1F8C2F8C29FE
S11310D08093500168E00E943C0982E08A95F1F710
S11310E000C0809150018F7D8093500168E00E9480
S11310F03C0982E08A95F1F700C08091500180623A
S11311008093500168E00E943C0982E08A95F1F7DF
S113111000C050FAEE24E0F8F12CEE0CFF1C809194
S11311205001817EE82A53FA002700F910E0029565
S11311301295107F1027007F10270E2952FA882459
S113114080F8912C880C991C880C991C880C991C8B
S1131150802A51FA662460F8712C660C771C660CA0
S1131160771C882D86298093500168E00E943C09F1
S113117082E08A95F1F700C0809150018F7D8093C1
S1131180500168E00E943C098AE68A95F1F700C0A4
S1131190DF91CF911F910F91FF90EF90DF90CF904F
S11311A0BF90AF909F908F907F906F905F900895C5
S11311B06130710541F070F06230710531F06330D7
S11311C0710529F006C0806405C0806103C0806594
S11311D001C080E080680E94330708950F931F9335
S11311E0CF938C01862F642F70E090E00E94D80882
S11311F0F8018081882351F0C0E00E941708CF5F76
S1131200F801EC0FF11D80818111F7CFCF911F916F
S11312100F9108950F931F93CF93FC01808188232E
S113122059F08F01C0E00E941708CF5FF801EC0F5E
S1131230F11D80818111F7CFCF911F910F910895F6
S11312400E941708089561E082E00E94AA0061E00C
S113125080E00E94AA0061E081E00E94AA0060E0B0
S113126082E00E94E80060E080E00E94E80060E024
S113127081E00E94E80008950F931F93CF93CFEF6E
S1131280C60FF2F0082F10E060E082E00E94E80050
S113129098010C2E02C0359527950A94E2F720FF99
S11312A005C061E080E00E94E80004C060E080E0E6
S11312B00E94E80061E082E00E94E800C15022F749
S11312C060E081E00E94E80061E081E00E94E800C3
S11312D0CF911F910F910895FF920F931F93CF9376
S11312E0DF93FB016081461771F0D42F8F01F82E34
S11312F0C0E08F2D0E94530ACF5FF801EC0FF11D5F
S113130060816D13F6CFDF91CF911F910F91FF9004
S11313100895FF920F931F93CF93DF93442381F09B
S1131320F82EEB014150042F10E00F5F1F4F060F02
S1131330171F69918F2D0E94530AC017D107C9F74F
S1131340DF91CF911F910F91FF9008951F920F92FB
S11313500FB60F9211242F933F934F935F936F9384
S11313607F938F939F93AF93BF93EF93FF93F894DF
S1131370E0915301F0915401309709F00995789464
S1131380FF91EF91BF91AF919F918F917F916F9159
S11313905F914F913F912F910F900FBE0F901F902F
S11313A018951F920F920FB60F9211242F933F930B
S11313B04F935F936F937F938F939F93AF93BF9359
S11313C0EF93FF93F894E0915101F091520130971B
S11313D009F009957894FF91EF91BF91AF919F9196
S11313E08F917F916F915F914F913F912F910F90CA
S11313F00FBE0F901F901895709352016093510186
S11314000895AF92CF92EF92FF920F93CF93C22F92
S1131410811142C0DB01CA01880F991FAA1FBB1F9B
S1131420880F991FAA1FBB1F880F991FAA1FBB1FD4
S1131430880F991FAA1FBB1F9C01AD01207F5F77F6
S113144060E078E488EE91E00E940E0B22503109AE
S113145020FF05C0369527952F5F3F4F02C0369574
S1131460279582E08BB9000F000F000F8C2F84703A
S1131470082B0AB9CC0CCC0CCC0C8A2D8068AC2C73
S1131480A82A80E1E89E70011124EA28C370CC0FD9
S1131490EC2AE0BC30BD29B9CF910F91FF90EF90B9
S11314A0CF90AF900895559902C05D9BFECF6CB963
S11314B00895811108C0662319F08AB1806802C0BA
S11314C08AB18F778AB90895FA012081FC01E20F6D
S11314D0F11D308136130CC02F5FFA012083FC010B
S11314E0E20FF11D81E09081992371F080E008956D
S11314F0FC018081681305C081E0FA01808380E0EB
S11315000895FA01108280E008952F923F924F923D
S11315105F926F927F928F929F92AF92BF92CF927F
S1131520DF92EF92FF920F931F93CF93DF93CDB788
S1131530DEB7ED88FE88AF88B88C6DB67EB6C5017F
S1131540880F991F2DB73EB7281B390B0FB6F89497
S11315503EBF0FBE2DBF2F5F3F4F522E432E4DB7C0
S11315605EB74A195B090FB6F8945EBF0FBE4DBF54
S1131570EDB7FEB731964F011A141B0464F4DE0173
S11315805996F901280F391F8D919D91819391935B
S1131590E217F307C9F7312C1FC05F9B1DC02CB0A5
S11315A01A141B04CCF4C52CD42C00E010E0A401C4
S11315B0400F511F622DF601819191916F010E949C
S11315C0640A882321F033243394300E05C00F5F5E
S11315D01F4FA016B10659F7C7010E94230688239E
S11315E011F03320D1F20E948106832D0FB6F894B6
S11315F07EBE0FBE6DBEDF91CF911F910F91FF9004
S1131600EF90DF90CF90BF90AF909F908F907F909E
S11316106F905F904F903F902F900895A1E21A2E03
S1131620AA1BBB1BFD010DC0AA1FBB1FEE1FFF1F82
S1131630A217B307E407F50720F0A21BB30BE40BD2
S1131640F50B661F771F881F991F1A9469F7609519
S11316507095809590959B01AC01BD01CF010895D3
S1131660A29FB001B39FC001A39F700D811D1124DF
S1131670911DB29F700D811D1124911D08950F932A
S11316801F93CF93DF938230910510F482E090E0B2
S1131690E0916601F091670120E030E0A0E0B0E065
S11316A0309719F1408151810281138148175907FC
S11316B0C8F08417950769F4109731F012960C93CB
S11316C0129713961C9327C0009366011093670129
S11316D022C02115310519F04217530718F49A0155
S11316E0BD01EF01DF01F801DBCF21153105F9F070
S11316F0281B390B2430310580F48A819B816115C4
S1131700710521F0FB019383828304C090936701E8
S113171080936601FE01329644C0FE01E20FF31F7E
S11317208193919322503109398328833AC02091BF
S1131730640130916501232B41F4209162003091C2
S1131740630030936501209364012091600030911F
S113175061002115310541F42DB73EB74091640075
S113176050916500241B350BE0916401F0916501F3
S1131770E217F307A0F42E1B3F0B2817390778F064
S1131780AC014E5F5F4F2417350748F04E0F5F1FC3
S113179050936501409364018193919302C0E0E00A
S11317A0F0E0CF01DF91CF911F910F910895CF9376
S11317B0DF93009709F481C0FC01329713821282EF
S11317C0A0916601B0916701109781F42081318165
S11317D0820F931F20916401309165012817390706
S11317E051F5F0936501E093640167C0ED0120E0D9
S11317F030E0CE17DF0740F44A815B819E0141153A
S11318005105F1F0EA01F5CFD383C28340815181C0
S1131810840F951FC817D90759F488819981840FBB
S1131820951F0296918380838A819B81938382830F
S11318302115310529F4F0936701E09366013DC059
S1131840E901FB83EA8349915991C40FD51FEC1731
S1131850FD0761F480819181840F951F0296E9014F
S113186099838883828193819B838A83E0E0F0E07B
S113187012968D919C911397009719F0FD01DC014C
S1131880F7CF8D919C9111979D012E5F3F4F820F51
S1131890931F20916401309165012817390769F479
S11318A0309729F4109267011092660102C01382E6
S11318B01282B0936501A0936401DF91CF910895E2
S11318C0FB01DC0102C001900D9241505040D8F759
S11318D00895BB274A3031F4992322F4BDE2909550
S11318E081959F4F0C94750CBB27FB015527AA27A4
S11318F0880F991FAA1FA41710F0A41B8395505199
S1131900B9F7A05DAA3308F0A95DA193009779F710
S1131910B111B1931192CB010C948E0CDC01FC013A
S1131920672F71917723E1F7329704C07C916D930F
S113193070836291AE17BF07C8F30895F894FFCF80
S1131940000068012000FFFE610133000000000078
S1131950320000003100000020202073697A6520E5
S11319603D2000736D6F6B653A0074656D703A00CD
S113197048324F3A00533A200070706D00543A20B8
S1131980006300483A200025004E4F425245414B27
S1131990004154004552524F520D0A004F4B0D0A5C
S11319A00041542B43574D4F44453D300D0A0041EF
S11319B0542B4349504D55583D310D0A0041542B89
S11319C043494653520D0A0041542B434950535442
S11319D04152543D22544350222C223139322E316B
S11319E036382E312E313038222C38300D0A004151
S11319F0542B43495053454E443D0077656C636F07
S1131A006D6500414C49003A53003A54003A48008D
S1131A107B44467D007B44427D007B444C7D007BBF
S1071A2044537D00AA
S9030000FC
