S00D00004553505F312E737265639F
S11300000C942A000C9447000C9447000C9447006D
S11300100C9447000C9447000C9447000C94470040
S11300200C9447000C9447000C9447000C941D0456
S11300300C9447000C9414050C943F050C94E904AB
S11300400C9447000C9447000C9447000C94470010
S11300500C94470011241FBECFE5D8E0DEBFCDBF0E
S113006012E0A0E6B0E0EAE3F0E102C005900D92F0
S1130070AC39B107D9F722E0ACE9B2E001C01D9276
S1130080A73AB207E1F70E9453030C941B080C949F
S113009000008F929F92AF92BF92CF92DF92EF9225
S11300A0FF920F931F93CF93DF93CDB7DEB72B97B8
S11300B00FB6F894DEBF0FBECDBF6C014B015A01E1
S11300C0F22EEB86FB0101900020E9F73197CF0176
S11300D0861B970BF60101900020E9F73197EC1984
S11300E0FD09E80FF91F7B96DA010D900020E9F76E
S11300F01197CD01841B950B4AE0BE016F5F7F4FC2
S11301008E0F9F1F0E94E6074AE0BE016A5F7F4F81
S1130110C8010E94E60740E050E060E670E080E03D
S11301200E94DE0541E050E0BE01655F7F4F80E044
S11301300E949C0541E050E062E770E080E00E948C
S11301409C0521E0F21208C040E050E06DE670E04A
S113015080E00E94DE050AC032E0F312DEC040E017
S113016050E064E770E080E00E94DE0540E050E08B
S11301706DEF70E080E00E94DE0540E050E0B601E3
S113018080E00E94DE0540E050E06DEF70E080E02A
S11301900E94DE0540E050E062E770E080E00E94EB
S11301A0DE0540E050E0BE016A5F7F4F80E00E94C0
S11301B0DE0540E050E065EB70E080E00E94DE0583
S11301C08BE790E09F938F9380E990E09F938F93C8
S11301D089EC90E09F938F931F9283E08F9381E04B
S11301E08F9384EF8F930E94F6060FB6F894DEBFC8
S11301F00FBECDBF833039F48FE39CE90197F1F74B
S113020000C0000003C0813009F088C040E050E025
S113021063E870E080E00E94DE0541E050E0BE014A
S1130220655F7F4F80E00E949C0541E050E062E7FB
S113023070E080E00E949C0540E050E0BE016F5FEA
S11302407F4F80E00E94DE0540E050E065EB70E007
S113025080E00E94DE058FE890E09F938F9389EC05
S113026090E09F938F931F9282E08F9383E08F930C
S113027088EE8F930E94F6060FB6F894DEBF0FBE89
S1130280CDBF813009F04AC040E050E067E970E03A
S113029080E00E94DE0540E050E0B40180E00E946E
S11302A0DE0540E050E06DE970E080E00E94DE058C
S11302B040E050E0B50180E00E94DE0540E050E0FF
S11302C06FE970E080E00E94DE0540E050E0B60196
S11302D080E00E94DE0540E050E061EB70E080E0E9
S11302E00E94DE0588EB90E09F938F938FE890E067
S11302F09F938F9384EC90E09F938F931F9283E05E
S11303008F9381E08F9384EF8F930E94F6060FB64C
S1130310F894DEBF0FBECDBF01C088EC2B960FB69C
S1130320F894DEBF0FBECDBFDF91CF911F910F9127
S1130330FF90EF90DF90CF90BF90AF909F908F9001
S11303400895AF92CF92EF920F93CF93DF931F92C2
S1130350CDB7DEB71982A12CC12CE12C03E023E038
S113036040E855E260E070E080E00E944A0560E009
S113037080E00E94300660E080E00E943B0680E35B
S1130380898340E050E06EEC70E080E00E94DE057E
S113039041E050E0BE016F5F7F4F80E00E949C050A
S11303A040E050E065EB70E080E00E94DE051F92C3
S11303B01F928FE890E09F938F9389EC90E09F9336
S11303C08F931F9282E08F9381E08F9384EF8F93BA
S11303D00E94F6060FB6F894DEBF0FBECDBF813083
S11303E009F05EC081E3898340E050E06AED70E08B
S11303F080E00E94DE0541E050E0BE016F5F7F4F68
S113040080E00E949C0540E050E065EB70E080E0F5
S11304100E94DE058FE890E09F938F9389EC90E033
S11304209F938F931F9282E08F9381E08F9384EF49
S11304308F930E94F6060FB6F894DEBF0FBECDBFB1
S1130440813071F581E3898340E050E065EE70E02E
S113045080E00E94DE0541E050E0BE016F5F7F4F07
S113046080E00E949C0540E050E065EB70E080E095
S11304700E94DE058FE890E09F938F9389EC90E0D3
S11304809F938F931F9282E08F9381E08F9384EFE9
S11304908F930E94F6060FB6F894DEBF0FBECDBF51
S11304A00F90DF91CF910F91EF90CF90AF9008957F
S11304B00F931F93CF93DF938C01EB0140E050E047
S11304C060EF70E080E00E94DE0540E050E0B8019B
S11304D080E00E94DE0540E050E06BEF70E080E0D9
S11304E00E94DE0540E050E0BE0180E00E94DE058F
S11304F040E050E06FEF70E080E00E94DE058FE89E
S113050090E09F938F9389EC90E09F938F931F9239
S113051082E08F9383E18F9388E88F930E94F6069D
S11305202DB73EB7285F3F4F0FB6F8943EBF0FBEBE
S11305302DBFDF91CF911F910F910895CF93DF933A
S113054000D000D01F92CDB7DEB740E050E063E0AA
S113055071E080E00E94DE0524EF31E042E151E0E9
S113056064E171E0CE0101960E947F07813011F4AD
S1130570898101C082E00F900F900F900F900F902F
S1130580DF91CF910895CF93DF93CDB7DEB727974F
S11305900FB6F894DEBF0FBECDBF4AE0BE016F5F59
S11305A07F4F0E94E60740E050E06CE271E080E09B
S11305B00E94DE0540E050E0BE016F5F7F4F80E0A7
S11305C00E94DE0540E050E065EB70E080E00E94B0
S11305D0DE058FE890E09F938F9389EC90E09F93E2
S11305E08F931F9282E08F9381E08F9384EF8F9398
S11305F00E94F6060FB6F894DEBF0FBECDBF279655
S11306000FB6F894DEBF0FBECDBFDF91CF91089532
S11306100F931F93CF93DF93CDB7DEB727970FB612
S1130620F894DEBF0FBECDBF8C0140E050E06CE318
S113063071E080E00E94DE054AE0BE016F5F7F4FFB
S1130640C8010E94E60740E050E0BE016F5F7F4FA3
S113065080E00E94DE0540E050E065EB70E080E061
S11306600E94DE058FE890E09F938F9389EC90E0E1
S11306709F938F931F9282E08F9381E08F9384EFF7
S11306808F930E94F6060FB6F894DEBF0FBECDBF5F
S113069027960FB6F894DEBF0FBECDBFDF91CF9182
S11306A01F910F910895EF920F931F932FEF81E104
S11306B09AE7215080409040E1F700C000000E947A
S11306C0A101813041F440E050E067E471E080E052
S11306D00E94DE0512C0823041F440E050E066E53D
S11306E071E080E00E94DE0508C0811106C040E090
S11306F050E068E671E00E94DE052FEF80E792E0AB
S1130700215080409040E1F700C000000E949E020A
S11307108533D9F460E871E08BE891E00E945802D7
S11307208130E1F0823041F440E050E063E971E06F
S113073080E00E94DE0512C0811110C040E050E04C
S113074063EA71E00E94DE0509C0823339F040E0BB
S113075050E065EB71E080E00E94DE052FEF80E75A
S113076092E0215080409040E1F700C0000080E515
S113077090E00E94C302813091F0823041F440E065
S113078050E061ED71E080E00E94DE0508C0811157
S113079006C040E050E061EE71E00E94DE052FEFFC
S11307A080E792E0215080409040E1F700C00000D3
S11307B088EE93E00E940803813091F0823041F486
S11307C040E050E067EF71E080E00E94DE0508C081
S11307D0811106C040E050E068E072E00E94DE054E
S11307E00F2EF0E3EF2EF02D00E510E021E04FE1B5
S11307F052E064E372E080E492E00E9449008130B8
S1130800B9F0823051F440E050E060E672E080E0FC
S11308100E94DE0582E090E00CC0811109C040E036
S113082050E06BE772E00E94DE0580E090E001C0DA
S1130830FFCF1F910F91EF9008951F920F920FB663
S11308400F9211242F933F934F935F936F937F9352
S11308508F939F93AF93BF93EF93FF93F8948091FB
S11308609C0290919D02892B99F080919C02909119
S11308709D02019721F480919E02819582BF80910F
S11308809C0290919D02019790939D0280939C02FB
S1130890E0919F02F091A002309709F009957894B5
S11308A0FF91EF91BF91AF919F918F917F916F9144
S11308B05F914F913F912F910F900FBE0F901F901A
S11308C018950F931F939C0140919C0250919D0297
S11308D0452BC9F583B7811136C0A8EEB3E00E9459
S11308E0D0078B019C010F2EFFE0369527951795B5
S11308F00795FA95D1F7F02D98012F5F3F4F30936C
S11309009D0220939C0225E023BF20919C023091FC
S11309109D022130310571F4AB01BC01689416F8D5
S113092076956795579547951694D1F7419542BFAB
S113093081E045C080919C0290919D020297E0F174
S113094012BE81E03CC008B600FE38C098B7916082
S113095098BF40919C0250919D024150510950937F
S11309609D0240939C0280919C0290919D02892B50
S113097021F413BE12BE80E022C080919C029091AB
S11309809D02019799F4A8EEB3E00E94D007DC0120
S1130990CB01689416F8B695A79597958795169404
S11309A0D1F7682F619562BF81E009C080919C02F4
S11309B090919D0281E003C081E001C081E01F911C
S11309C00F91089513BE12BE10929D0210929C02C4
S11309D008951F920F920FB60F9211242F933F93F5
S11309E04F935F936F937F938F939F93AF93BF9333
S11309F0EF93FF93F894E091A502F091A60230974B
S1130A0009F009957894FF91EF91BF91AF919F916F
S1130A108F917F916F915F914F913F912F910F90A3
S1130A200FBE0F901F9018951F920F920FB60F9242
S1130A3011242F933F934F935F936F937F938F93DF
S1130A409F93AF93BF93EF93FF93F894E091A30226
S1130A50F091A402309709F009957894FF91EF91F1
S1130A60BF91AF919F918F917F916F915F914F91C2
S1130A703F912F910F900FBE0F901F901895F894EF
S1130A805D9AE091A102F091A202309709F00995D4
S1130A9078940895AF92CF92EF92FF920F93CF93F1
S1130AA0C22F811142C0DB01CA01880F991FAA1FFE
S1130AB0BB1F880F991FAA1FBB1F880F991FAA1F4E
S1130AC0BB1F880F991FAA1FBB1F9C01AD01207F6C
S1130AD05F7760E078E488EE91E00E94AE072250F0
S1130AE0310920FF05C0369527952F5F3F4F02C07F
S1130AF03695279582E08BB9000F000F000F8C2FDD
S1130B008470082B0AB9CC0CCC0CCC0C8A2D8068D0
S1130B10AC2CA82A80E1E89E70011124EA28C37055
S1130B20CC0FEC2AE0BC30BD29B9CF910F91FF90D6
S1130B30EF90CF90AF900895CF93DF93EA01209781
S1130B40C1F1559B04C036C0559B06C033C0A0E01C
S1130B50B0E050E0E8EEF3E05D990DC027EE33E03D
S1130B60CF010197F1F75D9904C021503109C1F714
S1130B7021C0232BF9F0529905C0A60FB71F8C9101
S1130B808CB911C0AA0FBB1FA60FB71F8D919C91E2
S1130B90119790FF03C08AB1816002C08AB18E7F31
S1130BA08AB98C918CB95F5FA52FB0E0AC17BD07F3
S1130BB058F201C080E0DF91CF910895CF93DF9385
S1130BC0EA0150E0E8EEF3E02CC027EE33E0CF0179
S1130BD00197F1F79BB1892F807295FD04C02150D4
S1130BE03109A9F73AC0232BA9F1529906C0DB01B8
S1130BF0A50FB11D8C918CB913C0A52FB0E0AA0F1D
S1130C00BB1FA60FB71F8D919C91119790FF03C036
S1130C108AB1816002C08AB18E7F8AB98C918CB905
S1130C205F5F529906C0DB01A50FB11D8C9190E066
S1130C3008C0A52FB0E0AA0FBB1FA60FB71F8D9148
S1130C409C918C179D0741F08BB1482F407285FF12
S1130C50BCCFCBCF842F01C081E0DF91CF91089529
S1130C60811108C0662319F08AB1806802C08AB174
S1130C708F778AB90895811108C0662319F08AB163
S1130C80806402C08AB18F7B8AB90895FA012081F9
S1130C90FC01E20FF11D308136130CC02F5FFA0105
S1130CA02083FC01E20FF11D81E09081992371F012
S1130CB080E00895FC018081681305C081E0FA0199
S1130CC0808380E00895FA01108280E008955F92A5
S1130CD06F927F928F929F92AF92BF92CF92DF9248
S1130CE0EF92FF920F931F93CF93DF93CDB7DEB7AD
S1130CF06F970FB6F894DEBF0FBECDBF5C016B01DA
S1130D007A01FE0131968EE1DF011D928A95E9F7A1
S1130D10FB0101900020E9F73197E61BF70B1F8ECA
S1130D2000E0712CFF274F01B1E08B1A9108552484
S1130D30539431C05F9B30C0602E712C6CB1E1E0E4
S1130D40F0E0EC0FFD1FE60DF71D6083C114D10424
S1130D5019F40F5F712E1FC0AE01415E5F4FC601D3
S1130D600E9446068823A9F068187908E1E0F0E0BB
S1130D70EC0FFD1FE60DF71D1082BE016F5F7F4F64
S1130D80C5010E94DF07F501E60DF71D1082752CE1
S1130D9002C00F5F712E172DC7010E9461048823C2
S1130DA011F0112339F20E94E204CD2841F4BE016E
S1130DB06F5F7F4FC5010E94DF0777247394872DEF
S1130DC06F960FB6F894DEBF0FBECDBFDF91CF9103
S1130DD01F910F91FF90EF90DF90CF90BF90AF9055
S1130DE09F908F907F906F905F9008952F923F9285
S1130DF04F925F926F927F928F929F92AF92BF9227
S1130E00CF92DF92EF92FF920F931F93CF93DF93D2
S1130E10CDB7DEB7ED88FE88AF88B88C6DB67EB6E8
S1130E20C501880F991F2DB73EB7281B390B0FB684
S1130E30F8943EBF0FBE2DBF2F5F3F4F522E432E5F
S1130E404DB75EB74A195B090FB6F8945EBF0FBE83
S1130E504DBFEDB7FEB731964F011A141B0464F46D
S1130E60DE015996F901280F391F8D919D918193C7
S1130E709193E217F307C9F7312C1FC05F9B1DC084
S1130E802CB01A141B04CCF4C52CD42C00E010E0B4
S1130E90A401400F511F622DF601819191916F01C0
S1130EA00E944606882321F033243394300E05C073
S1130EB00F5F1F4FA016B10659F7C7010E946104C6
S1130EC0882311F03320D1F20E94E204832D0FB65F
S1130ED0F8947EBE0FBE6DBEDF91CF911F910F912E
S1130EE0FF90EF90DF90CF90BF90AF909F908F9046
S1130EF07F906F905F904F903F902F900895EF9266
S1130F00FF920F931F93CF93DF938C017A01D22F1B
S1130F10C32F7F936F931F9281E08F933F932F93FF
S1130F200E94F6060F900F900F900F900F900F9065
S1130F30882359F04D2F5C2FB701C8010E94670622
S1130F4091E0811103C090E001C090E0892FDF910E
S1130F50CF911F910F91FF90EF900895A1E21A2E67
S1130F60AA1BBB1BFD010DC0AA1FBB1FEE1FFF1F49
S1130F70A217B307E407F50720F0A21BB30BE40B99
S1130F80F50B661F771F881F991F1A9469F76095E0
S1130F907095809590959B01AC01BD01CF0108959A
S1130FA0A29FB001B39FC001A39F700D811D1124A6
S1130FB0911DB29F700D811D1124911D0895FB0197
S1130FC0DC0101900D920020E1F70895BB274A301F
S1130FD031F4992322F4BDE2909581959F4F0C94AE
S1130FE0F207BB27FB015527AA27880F991FAA1FC1
S1130FF0A41710F0A41B83955051B9F7A05DAA3330
S113100008F0A95DA193009779F7B111B1931192FA
S1131010CB010C940B08DC01FC01672F7191772341
S1131020E1F7329704C07C916D9370836291AE179F
S10D1030BF07C8F30895F894FFCF3A
S113103A41542B43495053544152543D0022544382
S113104A50222C0022554450222C00414C52454136
S113105A44590041542B43495053454E443D00459D
S113106A52524F520D0A00474554202F003F002088
S113107A485454502F312E300D0A484F53543A20B5
S113108A000D0A0D0A0D0A0053454E4420464149F3
S113109A4C0D0A0053454E44204F4B0D0A0041544F
S11310AA2B4349504D4F44453D0041542B4349502D
S11310BA4D55583D0041542B43574D4F44453D002F
S11310CA41542B43574A41503D2200222C220022EC
S11310DA0D0A0041542B4349505354415455530D5E
S11310EA0A000D00533A0041542B434950534552C8
S11310FA5645524D4158434F4E4E3D0041542B43A1
S113110A49505345525645523D312C0041542B43C4
S113111A495053544F3D0065737020696E697420B9
S113112A4F4B200D0A0065737020696E697420455F
S113113A52524F52200D0A0065737020696E697409
S113114A204E4F20524553504F4E5345200D0A000E
S113115A3323546D3664235734730074656461749D
S113116A613200636F6E6E6563745F6572726F726B
S113117A0D0A00636F6E6E6563745F6E6F5F7265EE
S113118A73700D0A00636F6E6E656374696F6E2007
S113119A726573706F6E7365206572726F720D0A71
S11311AA00736572766572206572726F72200D0A19
S11311BA00736572766572206E6F20726573706F44
S11311CA6E7365200D0A0074696D656F7574206508
S11311DA72726F72200D0A0074696D656F757420DE
S11311EA6E6F20726573706F6E7365200D0A0061ED
S11311FA70706C65733D3430266F72616E67657307
S113120A3D343000736176656F75742E70687000B2
S113121A656D62696F74657370383236362E303094
S113122A30776562686F73746170702E636F6D00D6
S113123A7765627369746520636F6E6E656374693A
S113124A6F6E206572726F720D0A00776562736938
S113125A746520636F6E6E656374696F6E206E6F5A
S10F126A20726573706F6E73650D0A00CE
S9030000FC
