S00D00004553505F312E737265639F
S11300000C942A000C9447000C9447000C9447006D
S11300100C9447000C9447000C9447000C94470040
S11300200C9447000C9447000C9447000C94620015
S11300300C9447000C94D1000C94FC000C94A60082
S11300400C9447000C9447000C9447000C94470010
S11300500C94470011241FBECFE5D4E0DEBFCDBF12
S113006010E0A0E6B0E0EAEFF2E002C005900D92E5
S1130070A036B107D9F720E0A0E6B0E001C01D9298
S1130080AB36B207E1F70E9449000C947B010C9453
S1130090000083E087BBC09AA12CC12CE12C03E0B3
S11300A023E040E855E260E070E080E00E94070150
S11300B02FEF81E19AE7215080409040E1F700C0A2
S11300C00000FFCF1F920F920FB60F9211242F93AF
S11300D03F934F935F936F937F938F939F93AF93CC
S11300E0BF93EF93FF93F894809160009091610027
S11300F0892B99F08091600090916100019721F41F
S113010080916200819582BF80916000909161002E
S113011001979093610080936000E0916300F091F7
S11301206400309709F009957894FF91EF91BF919D
S1130130AF919F918F917F916F915F914F913F917B
S11301402F910F900FBE0F901F9018951F920F9232
S11301500FB60F9211242F933F934F935F936F9396
S11301607F938F939F93AF93BF93EF93FF93F894F1
S1130170E0916900F0916A00309709F0099578944C
S1130180FF91EF91BF91AF919F918F917F916F916B
S11301905F914F913F912F910F900FBE0F901F9041
S11301A018951F920F920FB60F9211242F933F931D
S11301B04F935F936F937F938F939F93AF93BF936B
S11301C0EF93FF93F894E0916700F0916800309703
S11301D009F009957894FF91EF91BF91AF919F91A8
S11301E08F917F916F915F914F913F912F910F90DC
S11301F00FBE0F901F901895F8945D9AE0916500DA
S1130200F0916600309709F0099578940895AF92BB
S1130210CF92EF92FF920F93CF93C22F811142C0DE
S1130220DB01CA01880F991FAA1FBB1F880F991FE2
S1130230AA1FBB1F880F991FAA1FBB1F880F991FD6
S1130240AA1FBB1F9C01AD01207F5F7760E078E4AB
S113025088EE91E00E9459012250310920FF05C027
S1130260369527952F5F3F4F02C03695279582E03C
S11302708BB9000F000F000F8C2F8470082B0AB964
S1130280CC0CCC0CCC0C8A2D8068AC2CA82A80E138
S1130290E89E70011124EA28C370CC0FEC2AE0BC5C
S11302A030BD29B9CF910F91FF90EF90CF90AF90CF
S11302B00895A1E21A2EAA1BBB1BFD010DC0AA1FA3
S11302C0BB1FEE1FFF1FA217B307E407F50720F0BB
S11302D0A21BB30BE40BF50B661F771F881F991F36
S11302E01A9469F760957095809590959B01AC017F
S10D02F0BD01CF010895F894FFCF7B
S9030000FC
