S01200006765745F737472696E672E73726563DC
S11300000C942A000C9447000C9447000C9447006D
S11300100C9447000C9447000C9447000C94470040
S11300200C9447000C9447000C9447000C94470030
S11300300C9447000C9447000C9447000C94470020
S11300400C9447000C9447000C9447000C94470010
S11300500C94470011241FBECFE5D8E0DEBFCDBF0E
S113006010E0A0E6B0E0ECEAF3E002C005900D92E7
S1130070A436B107D9F720E0A4E6B0E001C01D9290
S1130080A636B207E1F70E9449000C94D4010C94FF
S11300900000CF93DF93CDB7DEB76E970FB6F89419
S11300A0DEBF0FBECDBF0E94E7008FEF87BB11E01C
S11300B088B3812788BB40ED57E060E670E0CE014D
S11300C001960E942B01882331F060E0CE01019655
S11300D00E94F500EDCF8EE40E94F100E9CF0F936A
S11300E01F939C014091640050916500452B99F544
S11300F083B7811130C0A8EEB3E00E94BE018B012A
S11301009C010F2EFFE03695279517950795FA95D4
S1130110D1F7F02D98012F5F3F4F30936500209366
S1130120640025E023BF20916400309165002130F4
S1130130310571F4AB01BC01689416F876956795A6
S1130140579547951694D1F7419542BF81E03CC03D
S113015012BE81E039C008B600FE33C098B7916082
S113016098BF8091640085BB409164005091650004
S11301704150510950936500409364004115510565
S113018021F413BE12BE80E01FC04130510599F422
S1130190A8EEB3E00E94BE01DC01CB01689416F81E
S11301A0B695A795979587951694D1F7682F61957D
S11301B062BF81E009C04230510528F012BE81E0DF
S11301C003C081E001C081E01F910F91089582E096
S11301D08BB988E18AB986E880BD10BC87E689B905
S11301E008955D9BFECF8CB908950F931F93CF9311
S11301F0DF93FC018081861761F0D62F8F01C0E068
S11302000E94F100CF5FF801EC0FF11D80818D1386
S1130210F7CFDF91CF911F910F910895FC01D90180
S11302209C91DF01A90FB11D8C91841308C09F5FBD
S1130230F901908381E0961769F080E00895808148
S1130240841305C081E0D9018C9380E00895F901FD
S1130250108280E008954F925F926F927F928F9206
S11302609F92AF92BF92CF92DF92EF92FF920F9341
S11302701F93CF93DF93CDB7DEB76F970FB6F89484
S1130280DEBF0FBECDBF5C016B017A01FE0131966A
S11302908EE1DF011D928A95E9F7FB0101900020B0
S11302A0E9F73197E61BF70B5E2E1F8E00E010E096
S11302B081E090E04C018E1A91084424439430C0AC
S11302C05F9B2EC0602E712C4CB1E1E0F0E0EC0F8E
S11302D0FD1FE60DF71D4083C114D10411F40F5F17
S11302E01FC09E01215E3F4F652DC6010E940E0175
S11302F08823A9F0680C791CE1E0F0E0EC0FFD1F05
S1130300E60DF71D1082BE016F5F7F4FC5010E948D
S1130310CD01F501E60DF71D1082142D01C00F5F0C
S1130320C7010E946F00882311F0112349F213BE04
S113033012BE1092650010926400CD2839F4BE01FB
S11303406F5F7F4FC5010E94CD0111E0812F6F9631
S11303500FB6F894DEBF0FBECDBFDF91CF911F91D2
S11303600F91FF90EF90DF90CF90BF90AF909F9050
S11303708F907F906F905F904F900895A29FB001EF
S1130380B39FC001A39F700D811D1124911DB29FC5
S1130390700D811D1124911D0895FB01DC01019054
S10F03A00D920020E1F70895F894FFCFBF
S10703AC31323300B3
S9030000FC
