S01A0000616273747261637420696E746572727570742E73726563A9
S113000012C021C020C01FC01EC01DC01CC01BC008
S11300101AC019C018C053C07BC028C014C013C074
S113002012C011C010C011241FBECFE5D4E0DEBF42
S1130030CDBF20E0A0E6B0E001C01D92AA36B20711
S1130040E1F70AD099C0DCCF95B380E2892785BB5C
S11300508CB1809360000895A59A84D084E290E0E6
S113006090936700809366007894FFCF1F920F925D
S11300700FB60F9211242F933F934F935F936F9377
S11300807F938F939F93AF93BF93EF93FF93F894D2
S1130090E0916100F091620009957894FF91EF91ED
S11300A0BF91AF919F918F917F916F915F914F918C
S11300B03F912F910F900FBE0F901F9018951F9294
S11300C00F920FB60F9211242F933F934F935F9388
S11300D06F937F938F939F93AF93BF93EF93FF930C
S11300E0F894E0916600F091670009957894FF9187
S11300F0EF91BF91AF919F918F917F916F915F919C
S11301004F913F912F910F900FBE0F901F90189514
S11301101F920F920FB60F9211242F933F934F9378
S11301205F936F937F938F939F93AF93BF93EF935B
S1130130FF93F8945D9AE0916300F091640009954F
S11301407894FF91EF91BF91AF919F918F917F919F
S11301506F915F914F913F912F910F900FBE0F9030
S11301601F90189582E08BB988E98AB986E880BD2A
S10F017010BC87E689B90895F894FFCF0D
S9030000FC
