S013000053454E534F52535F4543552E73726563A8
S11300000C946B000C9488000C9488000C94880069
S11300100C9488000C94FB010C9488000C948800C8
S11300200C94E4010C940C060C94CA070C945D081F
S11300300C9488000C9434080C9488000C94880068
S11300400C9488000C9488000C9488000C9488000C
S11300500C94880008000000BE922449123EABAA0A
S1130060AA2ABECDCCCC4C3E00000080BEABAAAACE
S1130070AA3E00000000BF000000803F0000000016
S113008000084178D3BB4387D1133D190E3CC3BD4F
S11300904282AD2B3E68EC8276BED98FE1A93E4CFC
S11300A080EFFFBE01C4FF7F3F0000000000076334
S11300B04236B79BD8A71A39685618AEBAAB558CD6
S11300C01D3CB7CC5763BD6DEDFD753EF61772311F
S11300D0BF000000803F11241FBECFE5D4E0DEBF87
S11300E0CDBF10E0A0E6B0E0EAE1FAE102C005907D
S11300F00D92AA37B107D9F720E0AAE7B0E001C012
S11301001D92AB38B207E1F70E94D1020C940B0D9B
S11301100C94000080E487B986E886B908950FB688
S113012007FE11C0339904C00EC0349BFECF349A2D
S113013087B1807E87B924B185B190E0982F882754
S1130140820F911D08959AB321E030E0082E02C079
S1130150220F331F0A94E2F7209529232ABB97B173
S1130160907E97B997B18770892B87B9369ADDCF7E
S113017061E088E00E94370161E088E00E949E010E
S113018008957F928F929F92AF92BF92CF92DF9207
S1130190EF92FF920F931F93CF93DF935C0161E083
S11301A088E00E94370160E088E00E949E0180EAB6
S11301B09CE80197F1F762E088E00E94370188E04B
S11301C00E9477018111FBCF88E00E947701882388
S11301D0D9F388E00E9477018111FBCF750135E0E6
S11301E0A30EB11C0F2EF7E07F2EF02D812C0F2EC5
S11301F0F0E59F2EF02DCC24C394D12C8701F70178
S11302001082C72DD82D88E00E9477018823D9F366
S1130210892D8A95F1F788E00E947701882389F077
S1130220F8012081C6010C2E02C0880F991F0A9480
S1130230E2F7822BF801808388E00E947701811124
S1130240FBCF219700F73FEFE31AF30AEA14FB040C
S1130250A9F6DF91CF911F910F91FF90EF90DF905E
S1130260CF90BF90AF909F908F907F900895E82F8C
S1130270E695E695E69587706230E1F0F0E09F013F
S1130280220F331FE20FF31FF195E195F10922AD1F
S113029041E050E0082E02C0440F551F0A94E2F7D3
S11302A0942F9095922301C0660F8A95EAF7692BE3
S11302B062AF0895F0E09F01220F331FE20FF31F96
S11302C0F195E195F10942AD21E030E0B90102C0B8
S11302D0660F771F8A95E2F7CB01962F9095292F09
S11302E0242322AF23AD9223892B83AF0895982F23
S11302F0969596959695292F30E0F901EE0FFF1FFC
S11303002E0F3F1FEE27FF27E21BF30B21AD990FA2
S1130310990F990F482F491B822F90E021E030E07C
S1130320042E02C0220F331F0A94E2F78223932380
S113033002C0959587954A95E2F70895962F382F30
S1130340369536953695E32FF0E0AF01440F551FEF
S1130350E40FF51FF195E195F10963AD330F330F08
S1130360330F831B21E030E0082E02C0220F331F1D
S11303700A94E2F720952623692F70E002C0660FE5
S1130380771F8A95E2F7622B63AF0895282F26958D
S113039026952695E22FF0E0AF01440F551FE40F98
S11303A0F51FF195E195F10933AD220F220F220FCC
S11303B0821B282F81E090E002C0880F991F2A95A4
S11303C0E2F7832783AF08951F920F920FB60F921F
S11303D011248F939F9380917B0090917C000196D0
S11303E090937C0080937B009F918F910F900FBE20
S11303F00F901F9018951F920F920FB60F92112411
S11304008F931DBC1CBC80917A00811107C08EB5EE
S11304108F7B8EBD81E080937A0009C08EB5887F82
S11304208EBD8EB580648EBD82E080937A008F91FC
S11304300F900FBE0F901F90189561E080E10E940D
S1130440370160E080E10E949E011CBC1DBC89B79D
S1130450846289BF8EB580648EBD089561E080E1B9
S11304600E949E018AE18A95F1F700C060E080E174
S11304700E949E018EB582608EBD089526B587B513
S113048030E0382B60917B0070917C00CB01A0E0C0
S1130490B0E0DC0199278827BC01CD01620F731FEE
S11304A0811D911D10927A0010927C0010927B00A5
S11304B02AE330E040E050E00E94740CC901089542
S11304C081E090917A00923009F080E008950F93D2
S11304D01F93CF93DF93CDB7DEB762970FB6F8942F
S11304E0DEBF0FBECDBF25E0CE010196FC01322F49
S11304F011923A95E9F78E010A5F1F4FF8011192A4
S11305002A95E9F70E94C10089814AE0B80190E088
S11305100E94A50C8E818B878F818C878B814AE00A
S1130520B80190E00E94A50C8E818D878F818E8703
S113053088858F87188A25E0AE01455F5F4F60E0AC
S113054081E00E94930462960FB6F894DEBF0FBE5A
S1130550CDBFDF91CF911F910F910895CF93DF937A
S1130560CDB7DEB728970FB6F894DEBF0FBECDBF68
S11305700E9427074AE0BE016F5F7F4F0E94A50CCF
S113058028E0AE014F5F5F4F60E082E00E94930479
S113059028960FB6F894DEBF0FBECDBFDF91CF9182
S11305A00895CF93DF9300D000D01F92CDB7DEB76C
S11305B061E089E00E94370161E08AE00E9437012E
S11305C062E08DE10E943701A12CC12CE12C03E0F3
S11305D023E040E855E260E070E080E00E94860895
S11305E00E94B8000E94F5040E94BB062FE835E083
S11305F040E050E060E081E00E9432042FE735E003
S113060040E050E060E082E00E9432042FE635E0F2
S113061040E050E060E084E00E94320489E00E94FF
S1130620C6010E941D02789440E060E670E080E01C
S11306300E9417080E942E02F12C0E948705182F91
S113064060E00E94F805811124C00E94DA05082F99
S113065068E00E94EC058823E1F060E0802F0E94AE
S1130660F205882341F00E94670281E00E94C104E0
S113067080E00E94990562E0802F0E94F2058823A1
S113068041F00E94AE0282E00E94C10481E00E9417
S1130690990568E0812F0E940206882319F083E0FF
S11306A00E94990560E2812F0E940206882319F0B6
S11306B085E00E94990560E8812F0E940206882344
S11306C019F087E00E9499050E9460028823B9F11D
S11306D00E943E028C01059758F4F11014C042E0C8
S11306E06BE670E084E00E94CE05FF24F3940BC017
S11306F081E0F81208C0C19842E06EE670E084E040
S11307000E94CE05F12C40E061E770E080E00E9499
S11307101708B80180E090E02AE0AE014F5F5F4F18
S11307200E94B00C40E0BE016F5F7F4F80E00E94EA
S1130730170840E066E770E080E00E94170888EE42
S113074093E00E944706811178CF8AE00E94C60197
S11307500E942E0272CF60E08CE00E949E0180EC29
S11307600E94090861E08CE00E949E0108950F93A5
S11307701F93CF93DF93D82F8B01C42F60E08CE0BD
S11307800E949E0183E00E9409088D2F0E9409089F
S1130790C13029F40E941208F801808304C06C2F30
S11307A0C8010E94B10761E08CE00E949E01DF91C4
S11307B0CF911F910F910895CF92DF92EF92FF9204
S11307C0CF93DF93D82FC62F69017A0160E08CE0C4
S11307D00E949E0182E00E9409088D2F0E94090850
S11307E0C13031F5D701C601072E75E1B695A7953D
S11307F0979587957A95D1F7702D0E940908D701AE
S1130800C601072E7DE0B695A795979587957A95AD
S1130810D1F7702D807E9E2D9370892B88600E9465
S113082009088D2D0E9409088C2D0E9409080FC00B
S1130830C6019695879596958795969587950E9476
S113084009088C2D8295880F807E0E94090861E03A
S11308508CE00E949E01DF91CF91FF90EF90DF909A
S1130860CF900895CF92DF92EF92FF92CF93DF93D0
S1130870C82FD62F69017A0160E08CE00E949E01A6
S1130880D13081F582E00E940908C6958C2F8295AB
S1130890807F8F5C0E940908D701C601072E75E18D
S11308A0B695A795979587957A95D1F7702D0E945F
S11308B00908D701C601072E7DE0B695A79597953F
S11308C087957A95D1F7702D807E9E2D9370892B14
S11308D088600E9409088D2D0E9409088C2D0E94B1
S11308E0090816C0C13009F4C0E08C2F80640E944E
S11308F00908C60196958795969587959695879547
S11309000E9409088C2D8295880F807E0E94090818
S113091061E08CE00E949E01DF91CF91FF90EF9007
S1130920DF90CF900895EF92FF921F93CF93DF93C0
S1130930C82FD62F7A01122F60E08CE00E949E010E
S113094082E00E940908C6958C2F8295807F8B5C7B
S11309500E94090820E4D29FC0011124812B0E9427
S11309600908D11104C0612FC7010E94980761E0F2
S11309708CE00E949E01DF91CF911F91FF90EF9038
S11309800895CF93C82F60E08CE00E949E018C2FC5
S113099080680E94090861E08CE00E949E018FE05B
S11309A097E20197F1F700C00000CF9108951F93DB
S11309B0CF93DF93182FD62FC42F60E08CE00E94D2
S11309C09E0185E00E940908812F0E9409088D2F4D
S11309D00E9409088C2F0E94090861E08CE00E94A3
S11309E09E01DF91CF911F910895CF93DF93CDB7EF
S11309F0DEB72D970FB6F894DEBF0FBECDBF0E94B1
S1130A00F5070E94AB0340E06FE08CE00E94D7043E
S1130A1040E067E08DE00E94D70440E060E680E6B5
S1130A200E94D70440E060E680E70E94D7044FEFBD
S1130A306FEF8BE20E94D70441E46FEF8AE20E94D9
S1130A40D70441EB6FEF89E20E94D70445E067E4E5
S1130A5088E20E94D7042FEF3FE040E050E060E0DE
S1130A6080E20E94DC032FEF3FE040E050E060E0D2
S1130A7084E20E94DC032FE835E040E050E060E0CF
S1130A8080E00E94DC032FE735E040E050E060E0C6
S1130A9088E00E94DC032FE635E040E050E060E0AF
S1130AA080E10E94DC032FE535E040E050E060E0A7
S1130AB084E10E94DC032FE435E040E050E060E094
S1130AC088E10E94DC0341E0BE016F5F7F4F8EE24C
S1130AD00E94B703898142E0BE016E5F7F4F90E0C0
S1130AE00E94A50C40E0BE016E5F7F4F80E00E9433
S1130AF0170848E06FEF8FE20E94D7042D960FB6D7
S1130B00F894DEBF0FBECDBFDF91CF910895CF9390
S1130B1060E08CE00E949E0180EA0E9409080E9425
S1130B201208C82F61E08CE00E949E018C2FCF91A7
S1130B3008958830B8F4833031F0853031F087304F
S1130B4029F484E003C082E001C083E061E070E046
S1130B5002C0660F771F8A95E2F740E08CE20E949C
S1130B60D7040895803168F4885061E070E002C0D1
S1130B70660F771F8A95E2F740E08CE20E94D70463
S1130B800895885261E070E002C0660F771F8A956D
S1130B90E2F740E08CE20E94D7040895CF93C82F77
S1130BA0242FAB0160E00E9493048C2F0E94C104A7
S1130BB0CF910895CF9360E08CE00E949E0180EB7A
S1130BC00E9409080E941208C82F61E08CE00E946C
S1130BD09E018C2FCF910895982F987181E069130D
S1130BE080E00895982F977081E0691380E008955C
S1130BF0662311F0962F01C093E0982381E09613A9
S1130C0080E00895662311F0962F01C098EA982396
S1130C1081E0961380E008951F920F920FB60F9211
S1130C2011242F933F934F935F936F937F938F93ED
S1130C309F93AF93BF93EF93FF93F89480918700B2
S1130C4090918800009761F0019709F412BE809199
S1130C508700909188000197909388008093870083
S1130C60E0918900F0918A0009957894FF91EF91C1
S1130C70BF91AF919F918F917F916F915F914F91B0
S1130C803F912F910F900FBE0F901F9018950F93C7
S1130C901F939C014091870050918800452BB1F52A
S1130CA083B7811133C0A8EEB3E00E94960C8B0188
S1130CB09C010F2EFFE03695279517950795FA9519
S1130CC0D1F7F02D98012F5F3F4F30938800209388
S1130CD0870025E023BF20918700309188002130D0
S1130CE0310571F4AB01BC01689416F876956795EB
S1130CF0579547951694D1F7419542BF81E038C086
S1130D002230310580F112BE81E032C008B600FE07
S1130D102CC098B7916098BF40918700509188008B
S1130D204150510950938800409387004115510563
S1130D3021F413BE12BE80E01BC041305105B9F44A
S1130D40A8EEB3E00E94960CDC01CB01689416F87F
S1130D50B695A795979587951694D1F7682F6195C1
S1130D6062BF81E005C081E003C081E001C081E091
S1130D701F910F9108954F925F926F927F92AF925D
S1130D80BF92CF92DF92EF92FF920F931F93CF9374
S1130D90DF930E948A000AE010E0C12CD12C760176
S1130DA00F2EF8E8AF2EF02D0F2EF3E1BF2EF02D0D
S1130DB0C8ECD0E080E00E948F00BC0180E090E0AD
S1130DC00E94EC092B013C019B01AC0160E070EC3A
S1130DD08FE794E40E94DE08A30192010E944B096C
S1130DE09B01AC01C701B6010E94DF086B017C01C5
S1130DF08A2D9B2DFE013197F1F70197D9F7015008
S1130E001109C1F620E030E040E251E4C701B60127
S1130E100E944B092EEA37E44DE151E40E944B094C
S1130E2060937D0070937E0080937F009093800098
S1130E30DF91CF911F910F91FF90EF90DF90CF90B2
S1130E40BF90AF907F906F905F904F9008958F9276
S1130E509F92AF92BF92CF92DF92EF92FF920F9345
S1130E601F93CF93C2E3C12CD12C760100E21EE480
S1130E7080E00E948F00BC0180E090E00E94EC09B9
S1130E804B015C019B01AC0160E070EC8FE794E4E2
S1130E900E94DE08A50194010E944B099B01AC014C
S1130EA0C701B6010E94DF086B017C01C8010197EC
S1130EB0F1F7C150E9F620E030E048E452E4C7011C
S1130EC0B6010E944B0920917D0030917E00409133
S1130ED07F00509180000E944B090E947A0A24E10D
S1130EE03EEA47E05FE30E94DE0829EA35E043EE8C
S1130EF05EEB0E944B0923E333E343E150E40E9499
S1130F00DF089B01AC0160E070E080E291E40E94A4
S1130F103F0B0E94BD09CB01CF911F910F91FF9010
S1130F20EF90DF90CF90BF90AF909F908F900895F7
S1130F300F931F93CF93DF93662371F0EC016150FD
S1130F40062F10E00F5F1F4F080F191F89910E9491
S1130F500908C017D107D1F7DF91CF911F910F91E5
S1130F6008950F931F93CF93DF93662371F0EC01E1
S1130F706150062F10E00F5F1F4F080F191F0E94CA
S1130F8012088993C017D107D1F7DF91CF911F9130
S1130F900F9108951F920F920FB60F9211242F9361
S1130FA03F934F935F936F937F938F939F93AF93ED
S1130FB0BF93EF93FF93F894E0918100F091820046
S1130FC0309709F009957894FF91EF91BF91AF9113
S1130FD09F918F917F916F915F914F913F912F914D
S1130FE00F900FBE0F901F90189561E08DE00E9446
S1130FF0370161E08CE00E94370161E08FE00E94DC
S1131000370160E08EE00E94370180E58DB91EB89B
S113101008958FB90FB607FE02C06F9902C0779B7F
S1131020FECF089581E30E9409088FB10895FF92CD
S11310300F931F93CF93DF93FB016081641771F0CB
S1131040D42F8F01F82EC0E08F2D0E94D808CF5FD7
S1131050F801EC0FF11D60816D13F6CFDF91CF9194
S11310601F910F91FF9008951F920F920FB60F9248
S113107011242F933F934F935F936F937F938F9399
S11310809F93AF93BF93EF93FF93F894E091850000
S1131090F091860009957894FF91EF91BF91AF91FB
S11310A09F918F917F916F915F914F913F912F917C
S11310B00F900FBE0F901F9018951F920F920FB6AE
S11310C00F9211242F933F934F935F936F937F93CA
S11310D08F939F93AF93BF93EF93FF93F894E09113
S11310E08300F091840009957894FF91EF91BF916A
S11310F0AF919F918F917F916F915F914F913F91AC
S11311002F910F900FBE0F901F901895AF92CF9212
S1131110EF92FF920F93CF93C22F811142C0DB0154
S1131120CA01880F991FAA1FBB1F880F991FAA1FE6
S1131130BB1F880F991FAA1FBB1F880F991FAA1FC7
S1131140BB1F9C01AD01207F5F7760E078E488EEEF
S113115091E00E94740C2250310920FF05C036959D
S113116027952F5F3F4F02C03695279582E08BB9B4
S1131170000F000F000F8C2F8470082B0AB98A2DE2
S11311808068CC0CCC0CCC0CAC2CA82A80E1E89E5A
S113119070011124EA28C370CC0FEC2AE0BC30BDE6
S11311A029B9CF910F91FF90EF90CF90AF90089510
S11311B0559902C05D9BFECF6CB908955058BB276A
S11311C0AA270E94F6080C94400A0E94320A38F0BA
S11311D00E94390A20F039F49F3F19F426F40C9444
S11311E02F0A0EF4E095E7FB0C94290AE92F0E94DC
S11311F0510A58F3BA17620773078407950720F05A
S113120079F4A6F50C94730A0EF4E0950B2EBA2F1C
S1131210A02D0B01B90190010C01CA01A0011124F8
S1131220FF27591B99F0593F50F4503E68F11A16A4
S1131230F040A22F232F342F4427585FF3CF469535
S113124037952795A795F0405395C9F77EF41F1657
S1131250BA0B620B730B840BBAF09150A1F0FF0F21
S1131260BB1F661F771F881FC2F70EC0BA0F621F0D
S1131270731F841F48F4879577956795B795F795FD
S11312809E3F08F0B0CF9395880F08F09927EE0F92
S11312909795879508950E945F090C94400A0E94CF
S11312A0390A58F00E94320A40F029F45F3F29F0CD
S11312B00C94290A51110C94740A0C942F0A0E945C
S11312C0510A68F39923B1F3552391F3951B550BF8
S11312D0BB27AA2762177307840738F09F5F5F4F05
S11312E0220F331F441FAA1FA9F335D00E2E3AF044
S11312F0E0E832D091505040E695001CCAF72BD05C
S1131300FE2F29D0660F771F881FBB1F26173707AC
S11313104807AB07B0E809F0BB0B802DBF01FF27DE
S113132093585F4F3AF09E3F510578F00C94290A88
S11313300C94740A5F3FE4F3983ED4F38695779552
S11313406795B795F7959F5FC9F7880F911D969597
S1131350879597F90895E1E0660F771F881FBB1FF3
S1131360621773078407BA0720F0621B730B840BA0
S1131370BA0BEE1F88F7E09508950E94590A88F089
S11313809F5798F0B92F9927B751B0F0E1F0660F45
S1131390771F881F991F1AF0BA95C9F714C0B13086
S11313A091F00E94730AB1E008950C94730A672FB8
S11313B0782F8827B85F39F0B93FCCF386957795B5
S11313C06795B395D9F73EF490958095709561959E
S11313D07F4F8F4F9F4F0895E89409C097FB3EF4C9
S11313E090958095709561957F4F8F4F9F4F99236E
S11313F0A9F0F92F96E9BB279395F69587957795EC
S11314006795B795F111F8CFFAF4BB0F11F460FFAB
S11314101BC06F5F7F4F8F4F9F4F16C0882311F003
S113142096E911C0772321F09EE8872F762F05C017
S1131430662371F096E8862F70E060E02AF09A95B2
S1131440660F771F881FDAF7880F9695879597F9A7
S1131450089597F99F6780E870E060E008959FEF32
S113146080EC089500240A94161617061806090637
S1131470089500240A941216130614060506089506
S1131480092E0394000C11F4882352F0BB0F40F48E
S1131490BF2B11F460FF04C06F5F7F4F8F4F9F4FCE
S11314A0089557FD9058440F551F59F05F3F71F050
S11314B04795880F97FB991F61F09F3F79F08795B7
S11314C00895121613061406551FF2CF4695F1DF40
S11314D008C0161617061806991FF1CF86957105D0
S11314E0610508940895E894BB2766277727CB0104
S11314F097F908950E948A0A29ED3BE54EED5EE3D3
S11315000C94D20A16F00C94C90B0C942F0A68940C
S11315100C94290A0E94590AA8F39923C1F3AEF343
S1131520DF93CF931F930F93FF92C92FDD27882357
S11315302AF02197660F771F881FDAF720E030E042
S113154040E85FEB9FE3883920F0803E38F0219635
S11315508F770E94DF08E4E5F0E004C00E94DF0812
S1131560E1E8F0E00E94D70B8B01BE01EC01FB2EF9
S11315706F5771097595771F880B990B0E94EE09B7
S113158028E132E741E35FE30E94E50AAF2D9801C9
S1131590AE01FF900F911F91CF91DF910E94F60849
S11315A00C94400A0E94E50A0C94400A0E94320AF4
S11315B038F00E94390A20F0952311F00C94290A7E
S11315C00C942F0A11240C94740A0E94510A70F38B
S11315D0959FC1F3950F50E0551F629FF001729FD4
S11315E0BB27F00DB11D639FAA27F00DB11DAA1FE3
S11315F0649F6627B00DA11D661F829F2227B00D30
S1131600A11D621F739FB00DA11D621F839FA00DBA
S1131610611D221F749F3327A00D611D231F849F0A
S1131620600D211D822F762F6A2F11249F57504061
S11316309AF0F1F088234AF0EE0FFF1FBB1F661FDC
S1131640771F881F91505040A9F79E3F510580F0A5
S11316500C94290A0C94740A5F3FE4F3983ED4F383
S1131660869577956795B795F795E7959F5FC1F749
S1131670FE2B880F911D9695879597F90895FA0189
S1131680EE0FFF1F309621053105A1F1611571059B
S113169061F48038BFE39B0749F168949038810571
S11316A061F08038BFEF9B0741F099234AF5FF3F73
S11316B0E1053105210519F1E8940894E795D9016C
S11316C0AA2329F4AB2FBE2FF85FD0F310C0FF5F1D
S11316D070F4A695E0F7F73950F019F0FF3A38F4B2
S11316E09F779F930DD00F9007FC9058089546F074
S11316F00C942F0A60E070E080E89FE308954FE7C0
S11317009F775F934F933F932F930E948A0A2F9161
S11317103F914F915F910E94D20A0C94970B29F448
S113172016F00C94290A0C94730A0C942F0A0E9444
S1131730590AA8F39638A0F707F80F92E8942BE318
S11317403AEA48EB5FE70E94E80A0F920F920F9281
S11317504DB75EB70F920E94400CEEEAF0E00E9493
S1131760D70B4F915F91EF91FF91E595EE1FFF1F0E
S113177049F0FE57E0684427EE0F441FFA95E1F75D
S11317804195550B0E940A0C0F9007FE0C94FE0B1A
S113179008959F3F31F0915020F487957795679590
S11317A0B795880F911D9695879597F90895DF93BE
S11317B0CF931F930F93FF92EF92DF927B018C01E3
S11317C0689406C0DA2EEF010E94E50AFE01E8944F
S11317D0A5912591359145915591A6F3EF010E946C
S11317E0F608FE019701A801DA9469F7DF90EF90FB
S11317F0FF900F911F91CF91DF9108959B01AC0150
S113180060E070E080E89FE30C944B090C94290A93
S11318100C94C90B0E94590AD8F39923C9F3940F65
S1131820511DA3F39150504094F059F0882332F0A5
S1131830660F771F881F91505040C1F79E3F510596
S11318402CF7880F911D9695879597F908955F3F1A
S1131850ACF0983E9CF0BB27869577956795B79535
S113186008F4B1609395C1F7BB0F58F711F460FF0A
S1131870E8CF6F5F7F4F8F4F9F4FE3CF0C94740A75
S1131880FA01DC01AA0FBB1F9B01AC01BF5728F46E
S1131890222733274427507820C0B75190F4AB2F28
S11318A00024469537952795011CA395D2F3002073
S11318B071F0220F331F441FB395DAF30ED00C944A
S11318C0DE0861307105A0E88A07B94630F49B014F
S11318D0AC016627772788279078309621F02083FB
S11318E03183428353830895A1E21A2EAA1BBB1BA2
S11318F0FD010DC0AA1FBB1FEE1FFF1FA217B307D8
S1131900E407F50720F0A21BB30BE40BF50B661FED
S1131910771F881F991F1A9469F7609570958095B1
S113192090959B01AC01BD01CF010895A29FB00128
S1131930B39FC001A39F700D811D1124911DB29FFF
S1131940700D811D1124911D0895BB274A3031F477
S1131950992322F4BDE2909581959F4F0C94E20C5B
S1131960BB272A3051F4992342F4BDE29095809527
S1131970709561957F4F8F4F9F4F0C94C00CBB2780
S1131980FA01A62F6217710581059105330B30FB0F
S113199066F0AA27660F771F881F991FAA1FA21730
S11319A010F0A21B63953850A9F7A05DAA3308F084
S11319B0A95DA19336F7B111B1931082CA010C94B9
S11319C0FB0CBB27FB015527AA27880F991FAA1FC9
S11319D0A41710F0A41B83955051B9F7A05DAA3346
S11319E008F0A95DA193009779F7B111B193119211
S11319F0CB010C94FB0CDC01FC01672F7191772364
S1131A00E1F7329704C07C916D9370836291AE17B5
S10D1A10BF07C8F30895F894FFCF50
S1131A1A54726967676572696E67004231004230C1
S10D1A2A00636D3A20000D0A00006D
S9030000FC
