S0100000415431365F43414E2E73726563E7
S11300000C942A000C9447000C9447000C9447006D
S11300100C9447000C9447000C9447000C94470040
S11300200C9447000C9447000C9447000C94470030
S11300300C9447000C9447000C9447000C94470020
S11300400C9447000C9447000C9447000C94470010
S11300500C94470011241FBECFE5D4E0DEBFCDBF12
S113006010E0A0E6B0E0E4E4F8E002C005900D92F0
S1130070AE38B107D9F720E0AEE8B0E001C01D9278
S1130080AE38B207E1F70E9449000C9420040C94A6
S113009000008FEF8ABB0E94AB030E94F9030E9409
S11300A0ED012FE835E040E050E060E081E00E949F
S11300B0490128E040E650E060E081E00E94A101AF
S11300C02FE735E040E050E060E082E00E94490123
S11300D028E049E650E060E082E00E94A1012FE6BA
S11300E035E040E050E060E084E00E94490128E00F
S11300F042E750E060E084E00E94A1010E945502C2
S1130100C82F60E00E949703811121C00E948903D7
S113011068E00E9491038823D1F061E08C2F0E9453
S11301209703882341F060E080E00E940C0380E0A4
S11301300E94D7020CC081E00E945D02882339F03E
S113014060E081E00E940C0381E00E94D70260E03D
S11301508C2F0E94A1038111D1CF60E08BE790E046
S11301600E94070468E08C2F0E94A103882341F0B9
S113017060E085E890E00E94070483E00E94D702D3
S113018060E28C2F0E94A103882319F085E00E946D
S1130190D70260E88C2F0E94A103882309F4AECF14
S11301A087E00E94D702AACFC49880EC0E94B203D1
S11301B0C49A08950F931F93CF93DF93D82F8B0185
S11301C0C42FC49883E00E94B2038D2F0E94B2030F
S11301D0C13029F40E94CF03F801808304C06C2F3E
S11301E0C8010E94D403C49ADF91CF911F910F914B
S11301F00895CF92DF92EF92FF92CF93DF93D82F9F
S1130200C62F69017A01C49882E00E94B2038D2F3F
S11302100E94B203C13031F5D701C601072E75E142
S1130220B695A795979587957A95D1F7702D0E94E5
S1130230B203D701C601072E7DE0B695A795979521
S113024087957A95D1F7702D807E9E2D9370892B9A
S113025088600E94B2038D2D0E94B2038C2D0E94EF
S1130260B2030FC0C6019695879596958795969586
S113027087950E94B2038C2D8295880F807E0E9400
S1130280B203C49ADF91CF91FF90EF90DF90CF90AB
S11302900895CF92DF92EF92FF92CF93C82F690116
S11302A07A01C498613081F582E00E94B2038C2FF8
S11302B086958295807F8F5C0E94B203D701C60128
S11302C0072E75E1B695A795979587957A95D1F7F9
S11302D0702D0E94B203D701C601072E7DE0B695AA
S11302E0A795979587957A95D1F7702D807E9E2D49
S11302F09370892B88600E94B2038D2D0E94B203F3
S11303008C2D0E94B20316C0813009F4C0E08C2FFA
S113031080640E94B203C601969587959695879549
S1130320969587950E94B2038C2D8295880F807EC6
S11303300E94B203C49ACF91FF90EF90DF90CF90C8
S11303400895EF92FF921F93CF93DF93C82FD62F78
S11303507A01122FC49882E00E94B2038C2F8695F2
S11303608295807F8B5C0E94B20320E4D29FC001FF
S11303701124812B0E94B203D11104C0612FC70143
S11303800E94B603C49ADF91CF911F91FF90EF9022
S11303900895C49880680E94B203C49A8FE097E2DB
S11303A00197F1F700C0000008951F93CF93DF93E6
S11303B0182FD62FC42FC49885E00E94B203812F32
S11303C00E94B2038D2F0E94B2038C2F0E94B203AD
S11303D0C49ADF91CF911F9108950E94D40040E008
S11303E06FE08CE00E94D50140E067E08DE00E9460
S11303F0D50140E060E680E60E94D50140E060E679
S113040080E70E94D5014FE16FEF8BE20E94D50196
S113041041E46FEF8AE20E94D50141EB6FEF89E27C
S11304200E94D50145E067E488E20E94D5012FEFE0
S11304303FE040E050E060E080E20E94F9002FEFEE
S11304403FE040E050E060E084E20E94F9002FE8E1
S113045035E040E050E060E080E00E94F9002FE7E2
S113046035E040E050E060E088E00E94F9002FE6CB
S113047035E040E050E060E080E10E94F9002FE5C3
S113048035E040E050E060E084E10E94F9002FE4B0
S113049035E040E050E060E088E10E94F90048E087
S11304A06FEF8FE20E94D5010895C49880EA0E94FC
S11304B0B2030E94CF03C49A08951F93CF93DF938E
S11304C01F92CDB7DEB7182F883058F40E9455021A
S11304D021E030E002C0220F331F1A95E2F7822395
S11304E061C0803190F441E0BE016F5F7F4F8CE2C8
S11304F00E94DA00185081E090E002C0880F991F32
S11305001A95E2F7298182234DC0883190F441E0A5
S1130510BE016F5F7F4F80E30E94DA00105181E0DB
S113052090E002C0880F991F1A95E2F7298182236F
S113053039C0803290F441E0BE016F5F7F4F80E4A8
S11305400E94DA00185181E090E002C0880F991FE0
S11305501A95E2F72981822325C0883290F441E07C
S1130560BE016F5F7F4F80E50E94DA00105281E088
S113057090E002C0880F991F1A95E2F7298182231F
S113058011C041E0BE016F5F7F4F8DE20E94DA002F
S1130590185281E090E002C0880F991F1A95E2F783
S11305A0298182230F90DF91CF911F910895883084
S11305B0B8F4833031F0853031F0873029F484E0A9
S11305C003C082E001C083E061E070E002C0660F16
S11305D0771F8A95E2F740E08CE20E94D5010895E6
S11305E0803168F4885061E070E002C0660F771FC4
S11305F08A95E2F740E08CE20E94D5010895885282
S113060061E070E002C0660F771F8A95E2F740E070
S11306108CE20E94D5010895BF92CF92DF92EF92AF
S1130620FF920F931F93CF93DF93CDB7DEB72A9733
S11306300FB6F894DEBF0FBECDBF02E010E002C0DB
S1130640000F111F6A95E2F7D02E8295807F402F0C
S1130650BE016F5F7F4F8F590E94DA008A818F7EBF
S11306608A83F12CB12CC12CEF2C4D2DBE016A5F75
S11306707F4F8F2D8295807F8F5C0E94DA00101649
S11306801106FCF49E81898198131EC020E010C0DD
S1130690E6E0F0E0EC0FFD1FE80FF91F4081E1E018
S11306A0F0E0EC0FFD1FE80FF91F308143130EC07B
S11306B02F5F822F022E000C990B8017910744F3B1
S11306C005C08B2D9C2D02C08B2D9C2D081719075E
S11306D049F481E001C0880FFA94EAF70E94C90145
S11306E081E007C0FF24F394FE0C83E0F812BCCF32
S11306F080E02A960FB6F894DEBF0FBECDBFDF911F
S1130700CF911F910F91FF90EF90DF90CF90BF900A
S11307100895C49880EB0E94B2030E94CF03C49A48
S11307200895982F987181E0961380E008956623C8
S113073011F0962F01C093E0982381E0961380E096
S11307400895662311F0962F01C098EA982381E05A
S1130750961380E0089580EB87BBBE9880E58DB941
S11307601EB808958FB9779BFECF08950F931F93FA
S1130770CF93DF93662371F0EC016150062F10E0F4
S11307800F5F1F4F080F191F89910E94B203C017F2
S1130790D107D1F7DF91CF911F910F91089581E394
S11307A00E94B2038FB10895DF92EF92FF920F93EC
S11307B01F93CF93DF937C01D62E662371F0EC0157
S11307C00FEF060F10E00F5F1F4F080F191F0E9455
S11307D0CF038993C017D107D1F7F701ED0DF11DB0
S11307E01082DF91CF911F910F91FF90EF90DF90D6
S11307F0089582E08BB988E08AB986E880BD10BC90
S113080087E689B908955D9BFECF8CB908950F934F
S11308101F93CF93DF93FC018081681761F0D62F7B
S11308208F01C0E00E940304CF5FF801EC0FF11DBB
S113083080818D13F7CFDF91CF911F910F91089590
S1070840F894FFCF56
S1130844414C49424541535400414C49535441524B
S11308544B00414C49204D414B4800656E74657210
S111086465640D0A0073656E74300D0A0000A1
S9030000FC
