S013000053656E736F72735F4543552E73726563E8
S11300000C946B000C9488000C9488000C94880069
S11300100C9488000C9462020C9488000C94880060
S11300200C944B020C9482060C9414080C94E6086D
S11300300C9411090C94BB080C948A000C9488004D
S11300400C9488000C9488000C9488000C9488000C
S11300500C94880008000000BE922449123EABAA0A
S1130060AA2ABECDCCCC4C3E00000080BEABAAAACE
S1130070AA3E00000000BF000000803F0000000016
S113008000084178D3BB4387D1133D190E3CC3BD4F
S11300904282AD2B3E68EC8276BED98FE1A93E4CFC
S11300A080EFFFBE01C4FF7F3F0000000000076334
S11300B04236B79BD8A71A39685618AEBAAB558CD6
S11300C01D3CB7CC5763BD6DEDFD753EF61772311F
S11300D0BF000000803F11241FBECFE5D4E0DEBF87
S11300E0CDBF10E0A0E6B0E0E2E9FBE102C005907C
S11300F00D92A439B107D9F720E0A4E9B0E001C01A
S11301001D92AA3AB207E1F70E943F030C94C70D6F
S11301100C9400001F920F920FB60F9211242F938C
S11301203F934F935F936F937F938F939F93AF937B
S1130130BF93EF93FF93F894E0919400F0919500AE
S1130140309709F009957894FF91EF91BF91AF91A1
S11301509F918F917F916F915F914F913F912F91DB
S11301600F900FBE0F901F90189580E487B986E812
S113017086B908950FB607FE11C0339904C00EC0A6
S1130180349BFECF349A87B1807E87B924B185B180
S113019090E0982F8827820F911D08959AB321E04B
S11301A030E0082E02C0220F331F0A94E2F7209594
S11301B029232ABB97B1907E97B997B18770892B71
S11301C087B9369ADDCF61E088E00E94A30161E03F
S11301D088E00E94050208957F928F929F92AF92C9
S11301E0BF92CF92DF92EF92FF920F931F93CF9320
S11301F0DF936C0161E088E00E94A30160E088E085
S11302000E94050280EA9CE80197F1F762E088E029
S11302100E94A301C5E0DEE106C08D2F8A95F1F7A7
S1130220C15009F46DC088E00E94E1018111F5CF4D
S113023077C08D2F8A95F1F7C15009F463C088E027
S11302400E94E1018823A9F3CC2309F45DC0CEE127
S113025003C08C2F8A95F1F788E00E94E101811197
S1130260F8CF560185E0C80ED11CD4E00F2EF0E57E
S11302707F2EF02D88248394912C7501F501108232
S113028007E010E032C08D2F8A95F1F7C15009F4D0
S11302903DC088E00E94E1018823A9F3CC2309F43E
S11302A037C0872D8A95F1F788E00E94E101882301
S11302B0C9F0F7012081C401002E02C0880F991FE4
S11302C00A94E2F7822B8083C3E105C08D2F8A95BF
S11302D0F1F7C150F9F088E00E94E1018111F6CFF5
S11302E0CC23D1F00150110910F0C2E2D2CF8FEF2C
S11302F0A81AB80AAC14BD0409F0BFCF81E015C038
S11303008FEF13C08EEF11C08EEF0FC08CEF0DC0B6
S11303108CEF0BC08BEF09C08BEF07C08FEF05C0CC
S1130320CC23E1F3C6E0D8E28ACFDF91CF911F91CD
S11303300F91FF90EF90DF90CF90BF90AF909F9080
S11303408F907F900895E82FE695E695E69587705F
S11303506230E1F0F0E09F01220F331FE20FF31F40
S1130360F195E195F10922AD41E050E0082E02C07B
S1130370440F551F0A94E2F7942F9095922301C0DD
S1130380660F8A95EAF7692B62AF0895F0E09F0142
S1130390220F331FE20FF31FF195E195F10942ADEE
S11303A021E030E0B90102C0660F771F8A95E2F7B9
S11303B0CB01962F9095942392AF93AD892B83AF65
S11303C00895482F469546954695242F30E0F90127
S11303D0EE0FFF1F2E0F3F1FEE27FF27E21BF30B2D
S11303E091AD440F440F440F841B21E030E002C060
S11303F0220F331F8A95E2F7892F90E028233923AF
S113040081E0232B09F480E00895962F382F369548
S113041036953695E32FF0E0AF01440F551FE40FF6
S1130420F51FF195E195F10963AD330F330F330FE8
S1130430831B21E030E0082E02C0220F331F0A94F0
S1130440E2F720952623692F70E002C0660F771F1C
S11304508A95E2F7622B63AF0895282F2695269597
S11304602695E22FF0E0AF01440F551FE40FF51F6E
S1130470F195E195F10933AD220F220F220F821B72
S1130480282F81E090E002C0880F991F2A95E2F797
S1130490832783AF08951F920F920FB60F921124F2
S11304A08F939F93809197009091980001969093D9
S11304B09800809397009F918F910F900FBE0F909B
S11304C01F9018951F920F920FB60F9211248F93BD
S11304D01DBC1CBC80919600811107C08EB58F7B1A
S11304E08EBD81E08093960009C08EB5887F8EBD55
S11304F08EB580648EBD82E0809396008F910F90BC
S11305000FBE0F901F90189561E080E10E94A30137
S113051060E080E10E9405021CBC1DBC89B78462B6
S113052089BF8EB580648EBD089561E080E10E942C
S113053005028AE18A95F1F700C060E080E10E943B
S113054005028EB582608EBD089526B587B560918B
S113055097007091980030E0382BCB01A0E0B0E018
S1130560DC0199278827BC01CD01620F731F811D0F
S1130570911D1092960010929800109297002AE311
S113058030E040E050E00E94610DC901089590916F
S1130590960081E0923009F080E008951F93CF9394
S11305A0DF93CDB7DEB762970FB6F894DEBF0FBE08
S11305B0CDBF25E0CE010196DC01E22F1D92EA9524
S11305C0E9F7FE013696DF011D922A95E9F70E94AC
S11305D0EC00182F813021F589814AE0BE016A5F61
S11305E07F4F90E00E94920D8E818B878F818C8744
S11305F08B814AE0BE016A5F7F4F90E00E94920DBA
S11306008E818D878F818E8788858F87188A26E0D3
S1130610AE01455F5F4F60E081E00E94240501C0A8
S11306201FEF812F62960FB6F894DEBF0FBECDBFC9
S1130630DF91CF911F910895CF93DF93CDB7DEB7AC
S113064028970FB6F894DEBF0FBECDBF0E94C9072E
S11306504AE0BE016F5F7F4F0E94920D28E0AE0119
S11306604F5F5F4F60E082E00E94240528960FB63A
S1130670F894DEBF0FBECDBFDF91CF910895CF9325
S1130680DF93CDB7DEB727970FB6F894DEBF0FBE62
S1130690CDBF61E089E00E94A30161E08AE00E948D
S11306A0A30162E08DE10E94A30161E081E00E9468
S11306B0A3011A8219821C821B821D821E82A12C14
S11306C0C12CE12C03E023E040E855E260E070E057
S11306D080E00E943D090E94E3000E946D070E9491
S11306E08D05811115C00F2EF4E1EF2EF12CF02DA4
S11306F008EC10E089E00E942D0288EE93E0F801F6
S11307003197F1F70197D9F781E0E81AF10891F7E9
S11307102FE835E040E050E060E081E00E94B6045C
S11307202FE735E040E050E060E082E00E94B6044C
S11307302FE635E040E050E060E084E00E94B6043B
S113074089E00E942D020E94840278940E949502FE
S11307500E94F7058D838D8160E00E946E068111F1
S113076042C00E944D068F838F8168E00E9462061A
S11307708823C9F18F8160E00E946806882329F1EB
S11307800E94CE028F3FD9F460E670E080E00E94C0
S1130790C2090F2EF4E1EF2EF12CF02D08EC10E03D
S11307A081E00E942D0288EE93E0F8013197F1F781
S11307B00197D9F781E0E81AF10891F7FFCF81E0BA
S11307C00E94560580E00E940C068F8162E00E9420
S11307D06806882341F00E941C0382E00E945605AB
S11307E081E00E940C068D8168E00E9478068823CF
S11307F019F083E00E940C068D8160E20E94780665
S1130800882319F085E00E940C068D8160E80E941F
S11308107806882319F087E00E940C0684EF91E0A3
S11308200E94C606892B09F093CF0E94C702882331
S113083041F10E94A5029C838B838B819C81059747
S113084078F48E8181110CC089E00E942D0243E06E
S113085067E770E084E00E94410681E08E8311C066
S11308608B819C81059768F08E81813051F489E0F9
S11308700E942D0243E06AE770E084E00E94410692
S11308801E828AE00E942D020E94950261CF60E0E0
S11308908CE00E94050260EC80E00E94AF0861E0F9
S11308A08CE00E9405020895CF92DF92EF92FF92AE
S11308B0CF93DF93D82FC62F69017A0160E08CE0D3
S11308C00E94050262E080E00E94AF086D2F80E084
S11308D00E94AF08C13071F5C701B601052E55E17C
S11308E096958795779567955A95D1F7502D80E021
S11308F00E94AF08D701C601072E7DE0B695A795E3
S1130900979587957A95D1F7702D682F607E8E2DF7
S11309108370682B686080E00E94AF0899278F2D50
S11309207E2D6D2D80E00E94AF086C2D80E00E942A
S1130930AF0811C0B601769567957695679576955B
S1130940679580E00E94AF086C2D6295660F607E0B
S113095080E00E94AF0861E08CE00E940502DF9114
S1130960CF91FF90EF90DF90CF900895CF92DF92D8
S1130970EF92FF92CF93DF93C82FD62F69017A01AC
S113098060E08CE00E940502D130D1F562E080E0A5
S11309900E94AF08C695C295C07F61E36C0F80E0EA
S11309A00E94AF08C701B601052E55E196958795BB
S11309B0779567955A95D1F7502D80E00E94AF083E
S11309C0D701C601072E7DE0B695A7959795879523
S11309D07A95D1F7702D682F607E8E2D8370682BE9
S11309E0686080E00E94AF0899278F2D7E2D6D2DC1
S11309F080E00E94AF086C2D80E00E94AF0819C00F
S1130A00C13009F4C0E06C2F606480E00E94AF083C
S1130A10B60176956795769567957695679580E0A6
S1130A200E94AF086C2D6295660F607E80E00E9484
S1130A30AF0861E08CE00E940502DF91CF91FF9046
S1130A40EF90DF90CF900895FF920F931F93CF9371
S1130A50DF93C82FD62F8A01F22E60E08CE00E942B
S1130A60050262E080E00E94AF086C2F66956295F3
S1130A70607F6B5C80E00E94AF0880E4D89FB00187
S1130A8011246F2980E00E94AF08D11105C04F2DB9
S1130A90B80180E00E94F70761E08CE00E94050243
S1130AA0DF91CF911F910F91FF900895CF93C82F9D
S1130AB060E08CE00E9405026C2F606880E00E9478
S1130AC0AF0861E08CE00E94050280E197E20197A3
S1130AD0F1F7CF9108951F93CF93DF93182FD62F5B
S1130AE0C42F60E08CE00E94050265E080E00E9473
S1130AF0AF08612F80E00E94AF086D2F80E00E9454
S1130B00AF086C2F80E00E94AF0861E08CE00E9487
S1130B100502DF91CF911F910895EF920F93E12C7D
S1130B2000E020E040E854E86EE170E080E00E94DC
S1130B303F08882309F458C00E94470440E06FE04E
S1130B408CE00E946B0540E067E08DE00E946B053D
S1130B5040E060E680E60E946B0540E060E680E7E6
S1130B600E946B054FEF6FEF8BE20E946B0541E42F
S1130B706FEF8AE20E946B0541EB6FEF89E20E94FE
S1130B806B0545E067E488E20E946B052FEF3FE0C8
S1130B9040E050E060E080E20E9454042FEF3FE028
S1130BA040E050E060E084E20E9454042FE835E025
S1130BB040E050E060E080E00E9454042FE735E01C
S1130BC040E050E060E088E00E9454042FE635E005
S1130BD040E050E060E080E10E94540448E06FEFA0
S1130BE08FE20E946B0581E00F91EF900895CF93FF
S1130BF060E08CE00E94050260EA80E00E94AF0899
S1130C0060E080E00E94AF08C82F61E08CE00E94A1
S1130C1005028C2FCF9108958830B8F4833031F0D9
S1130C20853031F0873029F484E003C082E001C0CC
S1130C3083E061E070E002C0660F771F8A95E2F7F7
S1130C4040E08CE20E946B050895803168F488507E
S1130C5061E070E002C0660F771F8A95E2F740E01A
S1130C608CE20E946B050895885261E070E002C036
S1130C70660F771F8A95E2F740E08CE20E946B05CD
S1130C800895CF93C82F242FAB0160E00E94240560
S1130C908C2F0E945605CF910895CF9360E08CE08D
S1130CA00E94050260EB80E00E94AF0860E080E0F3
S1130CB00E94AF08C82F61E08CE00E9405028C2FCF
S1130CC0CF910895982F987181E0961380E008954C
S1130CD0982F977081E0961380E00895662311F0B1
S1130CE0962F01C093E0982381E0961380E0089545
S1130CF0662311F0962F01C098EA982381E0961399
S1130D0080E008951F920F920FB60F9211242F9333
S1130D103F934F935F936F937F938F939F93AF937F
S1130D20BF93EF93FF93F8948091990090919A0068
S1130D30892B99F08091990090919A00019721F460
S1130D4080919B00819582BF8091990090919A0037
S1130D50019790939A0080939900E0919C00F09100
S1130D609D00309709F009957894FF91EF91BF9118
S1130D70AF919F918F917F916F915F914F913F912F
S1130D802F910F900FBE0F901F9018950F931F93E4
S1130D904091990050919A00452B09F043C023B724
S1130DA0211140C09C01A8EEB3E00E94830D8B0189
S1130DB09C010F2EFFE03695279517950795FA9518
S1130DC0D1F7F02D0F5F1F4F10939A0000939900F5
S1130DD025E023BF29B7216029BFDC01CB01887F2F
S1130DE09F77AA27BB27689416F8B695A795979579
S1130DF087951694D1F780939B00209199003091A8
S1130E009A002130310529F4682F619562BF81E091
S1130E1019C08091990090919A00029780F012BEB7
S1130E2081E010C08091990090919A00892B49F437
S1130E3013BE12BE89B78E7F89BF80E003C081E0F4
S1130E4001C081E01F910F9108958F929F92AF92FC
S1130E50BF92CF92DF92EF92FF920F931F93CF93A3
S1130E60C2E3C12CD12C760100E21EE480E00E9492
S1130E70BA00BC0180E090E00E94D90A4B015C01F9
S1130E809B01AC0160E070EC8FE794E40E94CB0915
S1130E90A50194010E94380A9B01AC01C701B60167
S1130EA00E94CC096B017C01C8010197F1F7C15084
S1130EB0E9F620E030E048E452E4C701B6010E94BC
S1130EC0380ACF911F910F91FF90EF90DF90CF9050
S1130ED0BF90AF909F908F9008958F929F92AF9202
S1130EE0BF92CF92DF92EF92FF921F93CF93DF9343
S1130EF00E94B5001AE0C12CD12C7601C8ECD0E0D8
S1130F0080E00E94BA00BC0180E090E00E94D90A0F
S1130F104B015C019B01AC0160E070EC8FE794E451
S1130F200E94CB09A50194010E94380A9B01AC01DF
S1130F30C701B6010E94CC096B017C0188E893E1EA
S1130F40FE013197F1F70197D9F71150C9F620E066
S1130F5030E040E251E4C701B6010E94380A2EEAAB
S1130F6037E44DE151E40E94380A60939E00709387
S1130F709F008093A0009093A100DF91CF911F91D7
S1130F80FF90EF90DF90CF90BF90AF909F908F90A5
S1130F90089580E090E00E94250720919E00309102
S1130FA09F004091A0005091A1000E94380A0E9425
S1130FB0670B24E13EEA47E05FE30E94CB0929EA9C
S1130FC035E043EE5EEB0E94380A23E333E343E16A
S1130FD050E40E94CC099B01AC0160E070E080E227
S1130FE091E40E942C0C0E94AA0ACB010895FF925E
S1130FF00F931F93CF93DF93442381F0F82EEB01DB
S11310004150042F10E00F5F1F4F060F171F699107
S11310108F2D0E94AF08C017D107C9F7DF91CF9178
S11310201F910F91FF9008951F920F920FB60F9288
S113103011242F933F934F935F936F937F938F93D9
S11310409F93AF93BF93EF93FF93F894E091A20023
S1131050F091A300309709F009957894FF91EF91EE
S1131060BF91AF919F918F917F916F915F914F91BC
S11310703F912F910F900FBE0F901F901895EF92F4
S1131080FF920F93CF93811162C0411589E05807F5
S11310908DE36807710529F48DB18C7F8DB9709A41
S11310A035C0403884E858078EE16807710529F493
S11310B08DB18C7F8DB9709829C0403482E4580773
S11310C08FE06807710521F46998689A709A1EC0C8
S11310D0403281EA580787E06807710521F469986E
S11310E0689A709813C0403980ED580783E0680708
S11310F0710521F46898699A709A08C04834584E6A
S11311006140710531F56898699A7098C22F61E061
S11311108DE00E94A30161E08CE00E94A30161E0E4
S11311208FE00E94A30160E08EE00E94A3012C2FB7
S1131130220F220F2065000F000F000F202B80E2EA
S1131140E89E700111242E292DB981E003C080E0AE
S113115001C080E0CF910F91FF90EF9008956FB997
S11311600FB607FE02C06F9904C0779BFECF8FB104
S1131170089581E008951F920F920FB60F921124E3
S11311802F933F934F935F936F937F938F939F938B
S1131190AF93BF93EF93FF93F894E091A800F0917D
S11311A0A900309709F009957894FF91EF91BF91C8
S11311B0AF919F918F917F916F915F914F913F91EB
S11311C02F910F900FBE0F901F9018951F920F92A2
S11311D00FB60F9211242F933F934F935F936F9306
S11311E07F938F939F93AF93BF93EF93FF93F89461
S11311F0E091A600F091A700309709F00995789442
S1131200FF91EF91BF91AF919F918F917F916F91DA
S11312105F914F913F912F910F900FBE0F901F90B0
S113122018951F920F920FB60F9211242F933F938C
S11312304F935F936F937F938F939F93AF93BF93DA
S1131240EF93FF93F8945D9AE091A400F091A500C8
S1131250309709F009957894FF91EF91BF91AF9180
S11312609F918F917F916F915F914F913F912F91BA
S11312700F900FBE0F901F901895AF92CF92EF92E0
S1131280FF920F93CF93C22F811142C0DB01CA0199
S1131290880F991FAA1FBB1F880F991FAA1FBB1F66
S11312A0880F991FAA1FBB1F880F991FAA1FBB1F56
S11312B09C01AD01207F5F7760E078E488EE91E0E7
S11312C00E94610D2250310920FF05C036952795F3
S11312D02F5F3F4F02C03695279582E08BB9000FF0
S11312E0000F000F8C2F8470082B0AB9CC0CCC0C87
S11312F0CC0C8A2D8068AC2CA82A80E1E89E700171
S11313001124EA28C370CC0FEC2AE0BC30BD29B903
S1131310CF910F91FF90EF90CF90AF90089580E020
S11313201DC05D9BFECF529906C0FB01E80FF11D65
S113133090819CB912C0E82FF0E0EE0FFF1FE60F7A
S1131340F71F2081318130FF03C09AB1916002C040
S11313509AB19E7F9AB990819CB98F5F529906C0C9
S1131360FB01E80FF11D208130E008C0E82FF0E018
S1131370EE0FFF1FE60FF71F208131812417350779
S113138081F6089540E050E00E948F095D9BFECFF6
S113139050981CB808955058BB27AA270E94E30907
S11313A00C942D0B0E941F0B38F00E94260B20F08A
S11313B039F49F3F19F426F40C941C0B0EF4E095B9
S11313C0E7FB0C94160BE92F0E943E0B58F3BA1757
S11313D0620773078407950720F079F4A6F50C9447
S11313E0600B0EF4E0950B2EBA2FA02D0B01B90162
S11313F090010C01CA01A0011124FF27591B99F087
S1131400593F50F4503E68F11A16F040A22F232F92
S1131410342F4427585FF3CF469537952795A795E2
S1131420F0405395C9F77EF41F16BA0B620B730B89
S1131430840BBAF09150A1F0FF0FBB1F661F771FFA
S1131440881FC2F70EC0BA0F621F731F841F48F4AF
S1131450879577956795B795F7959E3F08F0B0CF38
S11314609395880F08F09927EE0F9795879508951F
S11314700E944C0A0C942D0B0E94260B58F00E94DB
S11314801F0B40F029F45F3F29F00C94160B511107
S11314900C94610B0C941C0B0E943E0B68F3992373
S11314A0B1F3552391F3951B550BBB27AA2762175C
S11314B07307840738F09F5F5F4F220F331F441F69
S11314C0AA1FA9F335D00E2E3AF0E0E832D091509D
S11314D05040E695001CCAF72BD0FE2F29D0660F8A
S11314E0771F881FBB1F261737074807AB07B0E8CD
S11314F009F0BB0B802DBF01FF2793585F4F3AF0D3
S11315009E3F510578F00C94160B0C94610B5F3FD1
S1131510E4F3983ED4F3869577956795B795F79558
S11315209F5FC9F7880F911D9695879597F9089540
S1131530E1E0660F771F881FBB1F621773078407DC
S1131540BA0720F0621B730B840BBA0BEE1F88F7EB
S1131550E09508950E94460B88F09F5798F0B92FA4
S11315609927B751B0F0E1F0660F771F881F991FD4
S11315701AF0BA95C9F714C0B13091F00E94600B0B
S1131580B1E008950C94600B672F782F8827B85F1B
S113159039F0B93FCCF3869577956795B395D9F72C
S11315A03EF490958095709561957F4F8F4F9F4F36
S11315B00895E89409C097FB3EF490958095709542
S11315C061957F4F8F4F9F4F9923A9F0F92F96E98B
S11315D0BB279395F695879577956795B795F11100
S11315E0F8CFFAF4BB0F11F460FF1BC06F5F7F4F9D
S11315F08F4F9F4F16C0882311F096E911C07723AF
S113160021F09EE8872F762F05C0662371F096E8B7
S1131610862F70E060E02AF09A95660F771F881F86
S1131620DAF7880F9695879597F9089597F99F6744
S113163080E870E060E008959FEF80EC0895002456
S11316400A941616170618060906089500240A9423
S113165012161306140605060895092E0394000CA9
S113166011F4882352F0BB0F40F4BF2B11F460FF38
S113167004C06F5F7F4F8F4F9F4F089557FD905861
S1131680440F551F59F05F3F71F04795880F97FB42
S1131690991F61F09F3F79F08795089512161306FC
S11316A01406551FF2CF4695F1DF08C0161617062B
S11316B01806991FF1CF8695710561050894089560
S11316C0E894BB2766277727CB0197F908950E94F2
S11316D0770B29ED3BE54EED5EE30C94BF0B16F062
S11316E00C94B60C0C941C0B68940C94160B0E946E
S11316F0460BA8F39923C1F3AEF3DF93CF931F9363
S11317000F93FF92C92FDD2788232AF02197660FB4
S1131710771F881FDAF720E030E040E85FEB9FE3B3
S1131720883920F0803E38F021968F770E94CC09CA
S1131730E4E5F0E004C00E94CC09E1E8F0E00E9496
S1131740C40C8B01BE01EC01FB2E6F57710975951A
S1131750771F880B990B0E94DB0A28E132E741E3EB
S11317605FE30E94D20BAF2D9801AE01FF900F9161
S11317701F91CF91DF910E94E3090C942D0B0E94DD
S1131780D20B0C942D0B0E941F0B38F00E94260BD9
S113179020F0952311F00C94160B0C941C0B1124BF
S11317A00C94610B0E943E0B70F3959FC1F3950F4F
S11317B050E0551F629FF001729FBB27F00DB11DD1
S11317C0639FAA27F00DB11DAA1F649F6627B00D61
S11317D0A11D661F829F2227B00DA11D621F739F4A
S11317E0B00DA11D621F839FA00D611D221F749F58
S11317F03327A00D611D231F849F600D211D822F9F
S1131800762F6A2F11249F5750409AF0F1F08823C5
S11318104AF0EE0FFF1FBB1F661F771F881F9150F2
S11318205040A9F79E3F510580F00C94160B0C9480
S1131830610B5F3FE4F3983ED4F386957795679503
S1131840B795F795E7959F5FC1F7FE2B880F911D1C
S11318509695879597F90895FA01EE0FFF1F309634
S113186021053105A1F16115710561F48038BFE3EB
S11318709B0749F168949038810561F08038BFEF87
S11318809B0741F099234AF5FF3FE1053105210506
S113189019F1E8940894E795D901AA2329F4AB2F08
S11318A0BE2FF85FD0F310C0FF5F70F4A695E0F789
S11318B0F73950F019F0FF3A38F49F779F930DD021
S11318C00F9007FC9058089546F00C941C0B60E0B0
S11318D070E080E89FE308954FE79F775F934F930D
S11318E03F932F930E94770B2F913F914F915F91DC
S11318F00E94BF0B0C94840C29F416F00C94160B64
S11319000C94600B0C941C0B0E94460BA8F39638A5
S1131910A0F707F80F92E8942BE33AEA48EB5FE765
S11319200E94D50B0F920F920F924DB75EB70F9294
S11319300E942D0DEEEAF0E00E94C40C4F915F91DD
S1131940EF91FF91E595EE1FFF1F49F0FE57E06808
S11319504427EE0F441FFA95E1F74195550B0E9479
S1131960F70C0F9007FE0C94EB0C08959F3F31F099
S1131970915020F4879577956795B795880F911DB9
S11319809695879597F90895DF93CF931F930F93B7
S1131990FF92EF92DF927B018C01689406C0DA2EED
S11319A0EF010E94D20BFE01E894A5912591359197
S11319B045915591A6F3EF010E94E309FE019701B9
S11319C0A801DA9469F7DF90EF90FF900F911F91CF
S11319D0CF91DF9108959B01AC0160E070E080E855
S11319E09FE30C94380A0C94160B0C94B60C0E94CA
S11319F0460BD8F39923C9F3940F511DA3F39150C7
S1131A00504094F059F0882332F0660F771F881FF6
S1131A1091505040C1F79E3F51052CF7880F911DFE
S1131A209695879597F908955F3FACF0983E9CF0A2
S1131A30BB27869577956795B79508F4B16093951C
S1131A40C1F7BB0F58F711F460FFE8CF6F5F7F4F0A
S1131A508F4F9F4FE3CF0C94610BFA01DC01AA0F67
S1131A60BB1F9B01AC01BF5728F42227332744270F
S1131A70507820C0B75190F4AB2F00244695379589
S1131A802795011CA395D2F3002071F0220F331F78
S1131A90441FB395DAF30ED00C94CB096130710571
S1131AA0A0E88A07B94630F49B01AC016627772782
S1131AB088279078309621F02083318342835383A2
S1131AC00895A1E21A2EAA1BBB1BFD010DC0AA1F7B
S1131AD0BB1FEE1FFF1FA217B307E407F50720F093
S1131AE0A21BB30BE40BF50B661F771F881F991F0E
S1131AF01A9469F760957095809590959B01AC0157
S1131B00BD01CF010895A29FB001B39FC001A39F5F
S1131B10700D811D1124911DB29F700D811D112422
S1131B20911D0895BB274A3031F4992322F4BDE274
S1131B30909581959F4F0C949E0DBB27FB015527D3
S1131B40AA27880F991FAA1FA41710F0A41B839516
S1131B505051B9F7A05DAA3308F0A95DA19300978D
S1131B6079F7B111B1931192CB010C94B70DDC014B
S1131B70FC01672F71917723E1F7329704C07C91C0
S1131B806D9370836291AE17BF07C8F30895F894FC
S1051B90FFCF81
S1131B920D0A77204448542053454E534F52206532
S1131BA272726F720D0A0042310042300048324FA5
S1131BB23A20000D00433A200070706D3A20006311
S1071BC26D3A200054
S9030000FC
