S0140000756172745F67656E657269632E7372656318
S11300000C942A000C9447000C9447000C9447006D
S11300100C9447000C9447000C9447000C94470040
S11300200C9447000C9447000C9447000C94470030
S11300300C9447000C94C2000C94ED000C949700AF
S11300400C9447000C9447000C9447000C94470010
S11300500C94470011241FBECFE5D8E0DEBFCDBF0E
S113006010E0A0E6B0E0E8EDF3E002C005900D92E8
S1130070A038B107D9F720E0A0E8B0E001C01D9294
S1130080A638B207E1F70E9449000C94EA010C94E7
S11300900000CF93DF93CDB7DEB7E2970FB6F894A5
S11300A0DEBF0FBECDBFFE01319682E3DF011D929C
S11300B08A95E9F788E4898385E48A838CE48B83D1
S11300C08C838FE48D83A12CC12CE12C03E023E0ED
S11300D040E855E260E070E080E00E94F800BFEF85
S11300E029E688E1B15020408040E1F700C00000DB
S11300F047E050E060E670E080E00E944A0140E0A2
S113010050E067E670E080E00E94740143E250E052
S1130110BE016F5F7F4F80E00E94A70143E250E081
S1130120BE016F5F7F4F80E00E947401EFCF1F928A
S11301300F920FB60F9211242F933F934F935F9317
S11301406F937F938F939F93AF93BF93EF93FF939B
S1130150F894E0918400F0918500309709F00995B6
S11301607894FF91EF91BF91AF919F918F917F917F
S11301706F915F914F913F912F910F900FBE0F9010
S11301801F9018951F920F920FB60F9211242F9360
S11301903F934F935F936F937F938F939F93AF930B
S11301A0BF93EF93FF93F894E0918200F091830062
S11301B0309709F009957894FF91EF91BF91AF9131
S11301C09F918F917F916F915F914F913F912F916B
S11301D00F900FBE0F901F901895F8945D9AE091C0
S11301E08000F0918100309709F009957894089582
S11301F0AF92CF92EF92FF920F93CF93C22F8111C0
S113020042C0DB01CA01880F991FAA1FBB1F880FB8
S1130210991FAA1FBB1F880F991FAA1FBB1F880FF6
S1130220991FAA1FBB1F9C01AD01207F5F7760E06F
S113023078E488EE91E00E94C8012250310920FF41
S113024005C0369527952F5F3F4F02C036952795F9
S113025082E08BB9000F000F000F8C2F8470082BE5
S11302600AB9CC0CCC0CCC0C8A2D8068AC2CA82AF6
S113027080E1E89E70011124EA28C370CC0FEC2AB7
S1130280E0BC30BD29B9CF910F91FF90EF90CF9092
S1130290AF9008954115510531F180E090E020E0E0
S11302A0559902C05D9BFECF529906C0FB01E80F31
S11302B0F91F80818CB911C0880F991FFB01E80FC9
S11302C0F91F8081918190FF03C08AB1816002C0CF
S11302D08AB18E7F8AB980818CB92F5F822F90E09A
S11302E084179507E8F2089580E01DC05D9BFECF5A
S11302F0529906C0FB01E80FF11D90819CB912C010
S1130300E82FF0E0EE0FFF1FE60FF71F2081318189
S113031030FF03C09AB1916002C09AB19E7F9AB92E
S113032090819CB98F5F529906C0FB01E80FF11DC3
S1130330208130E008C0E82FF0E0EE0FFF1FE60F49
S1130340F71F208131812417350781F60895E62FA0
S1130350F72FA62FB72F5F9BFECF529903C08CB106
S1130360808308C011961C921E928AB18CB1908130
S1130370892B8083529903C0808190E003C08D91C2
S11303809C911197319612968417950721F7089539
S1130390A1E21A2EAA1BBB1BFD010DC0AA1FBB1F85
S11303A0EE1FFF1FA217B307E407F50720F0A21BF7
S11303B0B30BE40BF50B661F771F881F991F1A9464
S11303C069F760957095809590959B01AC01BD018E
S10B03D0CF010895F894FFCF5A
S11303D868656C6C0D0A00204D79206E616D65208E
S11303E8697320416C69204D616B686C6F75660098
S9030000FC
