S00C0000746573742E7372656358
S11300000C942A000C943C000C943C000C943C008E
S11300100C943C000C943C000C943C000C943C006C
S11300200C943C000C943C000C943C000C943C005C
S11300300C943C000C943C000C943C000C943C004C
S11300400C943C000C943C000C943C000C943C003C
S11300500C943C0011241FBECFE5D8E0DEBFCDBF19
S113006020E0A0E6B0E001C01D92A036B207E1F79F
S11300700E943E000C946D000C9400008FEF8ABB2C
S1130080C09A0E9463002FEF31E18AE7215030408B
S11300908040E1F700C000009FEF2EE934E2915068
S11300A020403040E1F700C0000091E08BB3892785
S11300B08BBB8FEF29E638E1815020403040E1F7D7
S11300C000C00000F3CF82E08BB988E18AB986E8EA
S11100D080BD10BC87E689B90895F894FFCF6F
S9030000FC
