S0100000444831315F4D51322E73726563F7
S11300000C94EC000C9409010C9409010C94090162
S11300100C9409010C9409010C9409010C94090134
S11300200C9409010C9409010C9409010C94090124
S11300300C9409010C9409010C9409010C94090114
S11300400C9409010C9409010C9409010C94090104
S11300500C94090108000000BE922449123EABAA88
S1130060AA2ABECDCCCC4C3E00000080BEABAAAACE
S1130070AA3E00000000BF000000803F0000000016
S113008000084178D3BB4387D1133D190E3CC3BD4F
S11300904282AD2B3E68EC8276BED98FE1A93E4CFC
S11300A080EFFFBE01C4FF7F3F0000000000076334
S11300B04236B79BD8A71A39685618AEBAAB558CD6
S11300C01D3CB7CC5763BD6DEDFD753EF61772311F
S11300D0BF000000803F6E616E00696E66000040E4
S11300E07A10F35A00A0724E18090010A5D4E80043
S11300F000E87648170000E40B54020000CA9A3B5B
S1130100000000E1F50500008096980000004042E0
S11301100F000000A086010000001027000000006E
S1130120E803000000006400000000000A00000072
S113013000000100000000002C76D888DC674F081E
S113014023DFC1DFAE59E1B1B796E5E3E453C63A24
S1130150E651997696E8E6C28426EB898C9B62ED9B
S1130160407C6FFCEFBC9C9F40F2BAA56FA5F49055
S1130170055A2AF75C936B6CF9676DC11BFCE0E4CC
S11301800D47FEF520E6B500D0ED902E0300943522
S113019077050080841E080000204E0A000000C875
S11301A00C333333330F986E12831141EF8D2114C6
S11301B0893BE65516CFFEE6DB18D1844B381BF796
S11301C07C1D901DA4BBE424203284725E22810035
S11301D0C9F124ECA1E53D2711241FBECFE5D4E0ED
S11301E0DEBFCDBF10E0A0E6B0E0E6EEF7E102C06E
S11301F005900D92AE37B107D9F720E0AEE7B0E035
S113020001C01D92A238B207E1F70E9472010C945A
S1130210F10B0C94000080E487B986E886B9089550
S11302209AB321E030E0082E02C0220F331F0A9453
S1130230E2F7209529232ABB97B1907E97B997B10D
S11302408770892B87B9369A349BFECF349A87B14D
S1130250807E87B924B185B190E0982F8827820FDA
S1130260911D0895B89AC09A08951F93CF93DF9370
S1130270B89AC098EFE9FCE83197F1F700C00000A4
S1130280C09AB898B099FECFB09BFECFB099FECF7C
S1130290DC01EC01259617E080E061E070E0FD01EF
S11302A01C92212F382FB09BFECF9AE69A95F1F736
S11302B000C0B09B0CC09081AB01022E02C0440F61
S11302C0551F0A94E2F7492B4083B099FECF215081
S11302D0310948F71196AC17BD0709F7DF91CF91A3
S11302E01F910895CF93DF93CDB7DEB72F970FB645
S11302F0F894DEBF0FBECDBFFE01319685E0DF016D
S11303001D928A95E9F7BFEF29E688E1B1502040B4
S11303108040E1F700C000000E94C80260E080E66F
S113032090E00E94D6020E943B020E943201B99AD8
S1130330C19AC09A60E080E690E00E94D6020E94D2
S11303409A024AE0BE016A5F7F4F0E94260B60E07A
S11303508DE690E00E94D60260E0CE0106960E94EF
S1130360D6028DE00E94D2028AE00E94D202CE011F
S113037001960E94350189814AE0BE016A5F7F4F80
S113038090E00E94260B60E083E790E00E94D60292
S113039060E0CE0106960E94D6028DE00E94D20251
S11303A08AE00E94D2028B814AE0BE016A5F7F4FDD
S11303B090E00E94260B60E089E790E00E94D6025C
S11303C060E0CE0106960E94D6028DE00E94D20221
S11303D08AE00E94D2029FEFA3EDB0E39150A040C7
S11303E0B040E1F700C00000AACFCF92DF92EF92B5
S11303F0FF920F931F93CF93DF93CDB7DEB72A9766
S11304000FB6F894DEBF0FBECDBF80E00E9410018E
S11304108C014AE0BE016F5F7F4F0E94260B60E0B3
S1130420CE0101960E94D60260E08AE690E00E9426
S1130430D602B80180E090E00E94FD036B017C01CC
S11304409B01AC0160E070EC8FE794E40E94EF0242
S1130450A70196010E945C032A960FB6F894DEBFAA
S11304600FBECDBFDF91CF911F910F91FF90EF9001
S1130470DF90CF900895CF92DF92EF92FF920F9387
S11304801F93CF93DF93CDB7DEB72A970FB6F894B7
S1130490DEBF0FBECDBF0E940B012FEF81E19AE7B3
S11304A0215080409040E1F700C0000080E00E94AD
S11304B010018C014AE0BE016F5F7F4F0E94260B42
S11304C060E0CE0101960E94D60260E08AE690E0E8
S11304D00E94D602B80180E090E00E94FD036B0107
S11304E07C019B01AC0160E070EC8FE794E40E9416
S11304F0EF02A70196010E945C032EEA37E44DE166
S113050051E40E945C0360937E0070937F008093AB
S11305108000909381002A960FB6F894DEBF0FBE38
S1130520CDBFDF91CF911F910F91FF90EF90DF909E
S1130530CF90089580E090E00E94F50120917E0024
S113054030917F0040918000509181000E945C03B3
S11305500E948B0424E13EEA47E05FE30E94EF023D
S113056029EA35E043EE5EEB0E945C0323E333E3C8
S113057043E150E40E94F0029B01AC0160E070E0B2
S113058080E291E40E9450050E94CE03CB010895BD
S113059082E08BB988E18AB986E880BD10BC87E621
S11305A089B908955D9BFECF8CB908950F931F936D
S11305B0CF93DF93FC018081861761F0D62F8F01E2
S11305C0C0E00E94D202CF5FF801EC0FF11D8081E0
S11305D08D13F7CFDF91CF911F910F91089550584C
S11305E0BB27AA270E9407030C9451040E944304CA
S11305F038F00E944A0420F039F49F3F19F426F49D
S11306000C9440040EF4E095E7FB0C943A04E92FB3
S11306100E94620458F3BA176207730784079507A8
S113062020F079F4A6F50C9484040EF4E0950B2ED6
S1130630BA2FA02D0B01B90190010C01CA01A00130
S11306401124FF27591B99F0593F50F4503E68F18B
S11306501A16F040A22F232F342F4427585FF3CFCC
S1130660469537952795A795F0405395C9F77EF49D
S11306701F16BA0B620B730B840BBAF09150A1F0E6
S1130680FF0FBB1F661F771F881FC2F70EC0BA0F6C
S1130690621F731F841F48F4879577956795B795F4
S11306A0F7959E3F08F0B0CF9395880F08F09927EF
S11306B0EE0F9795879508950E9470030C9451044A
S11306C00E944A0458F00E94430440F029F45F3F1A
S11306D029F00C943A0451110C9485040C944004B0
S11306E00E94620468F39923B1F3552391F3951B97
S11306F0550BBB27AA2762177307840738F09F5F3F
S11307005F4F220F331F441FAA1FA9F335D00E2EAB
S11307103AF0E0E832D091505040E695001CCAF718
S11307202BD0FE2F29D0660F771F881FBB1F2617DB
S113073037074807AB07B0E809F0BB0B802DBF01B2
S1130740FF2793585F4F3AF09E3F510578F00C9481
S11307503A040C9485045F3FE4F3983ED4F3869501
S113076077956795B795F7959F5FC9F7880F911DA2
S11307709695879597F90895E1E0660F771F881F8E
S1130780BB1F621773078407BA0720F0621B730B41
S1130790840BBA0BEE1F88F7E09508950E946A0453
S11307A088F09F5798F0B92F9927B751B0F0E1F02E
S11307B0660F771F881F991F1AF0BA95C9F714C0DE
S11307C0B13091F00E948404B1E008950C94840443
S11307D0672F782F8827B85F39F0B93FCCF3869517
S11307E077956795B395D9F73EF490958095709574
S11307F061957F4F8F4F9F4F0895E89409C097FBF1
S11308003EF490958095709561957F4F8F4F9F4FE3
S11308109923A9F0F92F96E9BB279395F695879527
S113082077956795B795F111F8CFFAF4BB0F11F4EA
S113083060FF1BC06F5F7F4F8F4F9F4F16C0882391
S113084011F096E911C0772321F09EE8872F762FC7
S113085005C0662371F096E8862F70E060E02AF008
S11308609A95660F771F881FDAF7880F96958795F4
S113087097F9089597F99F6780E870E060E008951C
S11308809FEF80EC089500240A94161617061806A4
S11308900906089500240A94121613061406050680
S11308A00895092E0394000C11F4882352F0BB0F11
S11308B040F4BF2B11F460FF04C06F5F7F4F8F4F74
S11308C09F4F089557FD9058440F551F59F05F3FAF
S11308D071F04795880F97FB991F61F09F3F79F05E
S11308E087950895121613061406551FF2CF4695E0
S11308F0F1DF08C0161617061806991FF1CF869562
S11309007105610508940895E894BB276627772745
S1130910CB0197F908950E949B0429ED3BE54EED28
S11309205EE30C94E30416F00C94DA050C94400492
S113093068940C943A040E946A04A8F39923C1F3BE
S1130940AEF3DF93CF931F930F93FF92C92FDD274D
S113095088232AF02197660F771F881FDAF720E093
S113096030E040E85FEB9FE3883920F0803E38F0C8
S113097021968F770E94F002E4E5F0E004C00E9423
S1130980F002E1E8F0E00E94E8058B01BE01EC0111
S1130990FB2E6F5771097595771F880B990B0E9471
S11309A0FF0328E132E741E35FE30E94F604AF2D41
S11309B09801AE01FF900F911F91CF91DF910E949A
S11309C007030C9451040E94F6040C9451040E94F1
S11309D0430438F00E944A0420F0952311F00C944B
S11309E03A040C94400411240C9485040E9462047B
S11309F070F3959FC1F3950F50E0551F629FF0016E
S1130A00729FBB27F00DB11D639FAA27F00DB11D86
S1130A10AA1F649F6627B00DA11D661F829F22270F
S1130A20B00DA11D621F739FB00DA11D621F839F96
S1130A30A00D611D221F749F3327A00D611D231F6C
S1130A40849F600D211D822F762F6A2F11249F57BA
S1130A5050409AF0F1F088234AF0EE0FFF1FBB1FBD
S1130A60661F771F881F91505040A9F79E3F51057C
S1130A7080F00C943A040C9485045F3FE4F3983EB0
S1130A80D4F3869577956795B795F795E7959F5F26
S1130A90C1F7FE2B880F911D9695879597F90895B8
S1130AA0FA01EE0FFF1F309621053105A1F1611502
S1130AB0710561F48038BFE39B0749F1689490386D
S1130AC0810561F08038BFEF9B0741F099234AF517
S1130AD0FF3FE1053105210519F1E8940894E795F4
S1130AE0D901AA2329F4AB2FBE2FF85FD0F310C08D
S1130AF0FF5F70F4A695E0F7F73950F019F0FF3A6C
S1130B0038F49F779F930DD00F9007FC9058089569
S1130B1046F00C94400460E070E080E89FE30895A0
S1130B204FE79F775F934F933F932F930E949B04CC
S1130B302F913F914F915F910E94E3040C94A8057B
S1130B4029F416F00C943A040C9484040C94400494
S1130B500E946A04A8F39638A0F707F80F92E89465
S1130B602BE33AEA48EB5FE70E94F9040F920F92F5
S1130B700F924DB75EB70F920E945106EEEAF0E075
S1130B800E94E8054F915F91EF91FF91E595EE1F6B
S1130B90FF1F49F0FE57E0684427EE0F441FFA9503
S1130BA0E1F74195550B0E941B060F9007FE0C942C
S1130BB00F0608959F3F31F0915020F48795779563
S1130BC06795B795880F911D9695879597F9089520
S1130BD0DF93CF931F930F93FF92EF92DF927B01EA
S1130BE08C01689406C0DA2EEF010E94F604FE011F
S1130BF0E894A5912591359145915591A6F3EF017E
S1130C000E940703FE019701A801DA9469F7DF90B7
S1130C10EF90FF900F911F91CF91DF9108959B0169
S1130C20AC0160E070E080E89FE30C945C030C94FA
S1130C303A040C94DA050E946A04D8F39923C9F3A0
S1130C40940F511DA3F39150504094F059F0882310
S1130C5032F0660F771F881F91505040C1F79E3FB6
S1130C6051052CF7880F911D9695879597F908954E
S1130C705F3FACF0983E9CF0BB27869577956795CF
S1130C80B79508F4B1609395C1F7BB0F58F711F409
S1130C9060FFE8CF6F5F7F4F8F4F9F4FE3CF0C9480
S1130CA08504FA01DC01AA0FBB1F9B01AC01BF57ED
S1130CB028F4222733274427507820C0B75190F4D2
S1130CC0AB2F0024469537952795011CA395D2F3A5
S1130CD0002071F0220F331F441FB395DAF30ED0B6
S1130CE00C94EF0261307105A0E88A07B94630F42C
S1130CF09B01AC016627772788279078309621F0EE
S1130D0020833183428353830895A3E1B0E0EBE869
S1130D10F6E00C94010A6C014B012A01FC011782D4
S1130D201682838181FF43C3AE014F5F5F4F3A0157
S1130D30F6019381F40193FD859193FF81914F0115
S1130D40882309F430C3853239F493FD859193FFE8
S1130D5081914F01853239F4B60190E00E944B0B2A
S1130D6052012501E5CF10E0F12C20E02032A0F45F
S1130D708B3269F030F4803259F0833269F42061A7
S1130D802CC08D3239F0803339F4216026C02260C2
S1130D90246023C0286021C027FD27C030ED380F10
S1130DA03A3078F426FF06C0FAE01F9F300D112474
S1130DB0132F13C04AE0F49E300D1124F32E206249
S1130DC00CC08E3221F426FDEEC2206406C08C369F
S1130DD011F4206802C0883641F4F40193FD859132
S1130DE093FF81914F018111C1CF9BEB980F9330F9
S1130DF018F42061805E06C09BE9980F933008F0D8
S1130E0071C12F7E26FF16E02F73322E853619F41A
S1130E102064322E08C0863621F4F22FF0683F2E6B
S1130E2002C01111115037FE07C01C3350F4EE24D8
S1130E30E394E10E27E00BC0183038F027E017E008
S1130E4005C027E04CE3E42E02C0212FE12C52011F
S1130E5044E0A40EB11CF20160817181828193810E
S1130E600E2DA3010E94380A2C01098100FF02C043
S1130E7003FF07C031FC08C032FE09C030E2232E54
S1130E8007C02DE2222E04C09BE2292E01C0212C92
S1130E90802F8C7019F0211068C2A8C237FE0FC0D1
S1130EA0E40C04FF04C08A81813309F4EA941E141B
S1130EB074F5F8E0FE1578F588E0E82E2CC036FCD1
S1130EC02AC0812F90E0841595059CF02CEF4216E2
S1130ED02FEF520674F0432D4068342E0AC0E2E02E
S1130EE0F0E0EC0FFD1FE10FF11D8081803319F458
S1130EF011501111F4CF37FE0EC0EE24E394E10E2D
S1130F00812F90E0481659062CF4141904C0EE24DD
S1130F10E39401C010E037FE06C01414150434F441
S1130F20C201019605C085E090E002C081E090E036
S1130F3021100196112331F0212F30E02F5F3F4F14
S1130F40820F931F2F2D30E08217930714F4F81AA1
S1130F5001C0F12C832D897049F4FF2039F0B601CA
S1130F6080E290E00E944B0BFA94F7CF222029F004
S1130F70B601822D90E00E944B0B33FC09C0FF2088
S1130F8039F0B60180E390E00E944B0BFA94F7CF5E
S1130F9037FE5AC0942D852D57FE02C090E080E0A4
S1130FA0292E382E20E030E0A2014E1951095D8728
S1130FB04C87A201421953095F874E87612F70E065
S1130FC044275527461B570B598B488B5FEF251633
S1130FD0350649F4B6018EE290E02A8B3B8B0E94E1
S1130FE04B0B3B892A89421453046CF04C855D8574
S1130FF04215530544F4EE85FF85E20FF31FE60D19
S1131000F71D818101C080E351E0251A31082F5F6B
S11310103F4F48895989241635064CF0B60190E0B3
S11310202A8B3B8B0E944B0B2A893B89CFCF2414FC
S1131030350439F49A81963318F4953311F404FF86
S113104081E3B60190E04BC08A81813309F00F7EC1
S1131050B60190E00E944B0B111105C034FC18C07E
S113106085E690E017C0B6018EE290E00E944B0B3B
S113107082E0EE24E394E80EF301E80FF11D808191
S1131080B60190E00E944B0B11508E2D91F7E6CFE4
S113109085E490E0B6010E944B0B57FC05C0411457
S11310A0510439F404FF05C05194419451088DE270
S11310B001C08BE2B60190E00E944B0B80E39AE002
S11310C0491651042CF08F5F5AE0451A5108F7CFA6
S11310D0B60190E00E944B0BB601C201C0960E947B
S11310E04B0B57C1833631F0833779F0833509F0E0
S11310F058C021C05201E2E0AE0EB11CF201808161
S1131100898301E010E0230114C05201F2E0AF0E24
S1131110B11CF2014080518026FF03C0612F70E0B2
S113112002C06FEF7FEFC2012A8B0E941B0B8C0160
S11311302A892F7715C05201F2E0AF0EB11CF201DB
S11311404080518026FF03C0612F70E002C06FEF22
S11311507FEFC2012A8B0E94100B8C012A89206820
S1131160322E23FD1AC08F2D90E008171907A8F41A
S1131170B60180E290E00E944B0BFA94F4CFF201A6
S113118037FC859137FE81912F01B60190E00E94D2
S11311904B0BF110FA94015011090115110579F75F
S11311A0F8C0843611F0893659F5520127FF09C079
S11311B0F4E0AF0EB11CF2016081718182819381F0
S11311C00AC0F2E0AF0EB11CF20160817181072EFA
S11311D0000C880B990B2F76322E97FF09C090953F
S11311E08095709561957F4F8F4F9F4F2068322E69
S11311F02AE030E0A3010E94830BE82EE6183FC0EA
S1131200022F853721F40F7E2AE030E01DC0097FCC
S11312108F3691F018F4883559F0C5C0803719F02D
S1131220883711F0C0C0006104FF09C0046007C022
S113123024FF08C0066006C028E030E005C020E1B5
S113124030E002C020E132E0520107FF09C0F4E0BF
S1131250AF0EB11CF201608171818281938108C05B
S1131260F2E0AF0EB11CF2016081718180E090E088
S1131270A3010E94830BE82EE6180F77302E36FE6A
S11312800BC0332D3E7FE11650F434FE0AC032FC0D
S113129008C0332D3E7E05C00E2D332D03C00E2D08
S11312A001C0012F34FF0CC0FE01EE0DF11D808141
S11312B0803311F4397E08C032FF05C00E5F04C0CC
S11312C0832F867809F00F5F33FD13C030FF06C00B
S11312D01E2D0F1518F41F0D101B0F2D0F1568F47C
S11312E0B60180E290E03B8B0E944B0B0F5F3B8981
S11312F0F5CF0F1510F4F01A01C0F12C34FF12C011
S1131300B60180E390E03B8B0E944B0B3B8932FF9C
S113131017C031FD03C088E790E002C088E590E083
S1131320B6010CC0832F867859F031FF02C08BE2DE
S113133001C080E237FD8DE2B60190E00E944B0BC4
S1131340E11638F4B60180E390E00E944B0B115093
S1131350F7CFEA94F301EE0DF11D8081B60190E020
S11313600E944B0BE110F5CF14C0F4E0FF1558F5C3
S113137084E0F81A33FE1EC0211026C003FF2AC0E1
S113138006ED10E0F32DF0713F2EF80184918111E8
S113139024C0FF2009F4E5CCB60180E290E00E946D
S11313A04B0BFA94F6CFF6018681978126C08FEF16
S11313B09FEF23C0B60180E290E00E944B0BFA94A9
S11313C0F110F8CFD9CFF12CB601822D90E00E9414
S11313D04B0BD4CF0AED10E0D5CF31108052B601BB
S11313E090E00E944B0B0F5F1F4FCFCF23E02F15D0
S11313F010F483E0BECFF12CC1CF6396E2E10C94EC
S11314001D0A2F923F924F925F926F927F928F921A
S11314109F92AF92BF92CF92DF92EF92FF920F937F
S11314201F93CF93DF93CDB7DEB7CA1BDB0B0FB689
S1131430F894DEBF0FBECDBF09942A883988488846
S11314405F846E847D848C849B84AA84B984C884DC
S1131450DF80EE80FD800C811B81AA81B981CE0FD3
S1131460D11D0FB6F894DEBF0FBECDBFED010895B8
S1131470283008F027E03327DA01990F311D87FD62
S1131480916000966105710539F432602E5F3D93D9
S113149030E32A95E1F708959F3F30F080387105D5
S11314A0610509F03C5F3C5F3D93913008F0806832
S11314B0911DDF93CF931F930F93FF92EF92192FF8
S11314C0987F9695E92F96959695E90FFF27E85C06
S11314D0FE4F99273327EE24FF24A701E701059047
S11314E00894079428F4360FE71EF81E491F511D6F
S11314F0660F771F881F991F0694A1F7059007941C
S113150028F4E70EF81E491F561FC11D770F881FC8
S1131510991F661F0694A1F70590079428F4F80E06
S1131520491F561FC71FD11D880F991F661F771F9C
S11315300694A1F70590079420F4490F561FC71F7E
S1131540D81F990F661F771F881F0694A9F78491E7
S11315501095177041F0D695C79557954795F79410
S1131560E7941A95C1F7EEEDF0E0689415901591A3
S113157035916591959105907FE27395E118F10A93
S1131580430B560BC90BD009C0F7E10CF11E431FE6
S1131590561FC91FD01D7EF4703311F48A95E6CF0F
S11315A0E894015030F0080F0AF40027021708F4F9
S11315B0202F2395022F7A3328F079E37D932A95FF
S11315C0E9F710C07D932A9589F606949795679557
S11315D0379517951794E118F10A430B560BC90B6D
S11315E0D00998F023957E9173957A3308F070E3CF
S11315F07C932013B8F77E9170617D9330F08395CE
S113160071E37D9370E32A95E1F71124EF90FF9045
S11316100F911F91CF91DF91992787FD90950895A0
S1131620FC010590615070400110D8F780959095A9
S11316308E0F9F1F0895FC016150704001900110AE
S1131640D8F7809590958E0F9F1F0895BB274A3039
S113165031F4992322F4BDE2909581959F4F0C9427
S1131660320BBB27FB015527AA27880F991FAA1FF6
S1131670A41710F0A41B83955051B9F7A05DAA33A9
S113168008F0A95DA193009779F7B111B193119274
S1131690CB010C94E10B0F931F93CF93DF93FB01CA
S11316A0238121FD03C08FEF9FEF28C022FF16C0C6
S11316B046815781248135814217530744F4A08120
S11316C0B1819D012F5F3F4F318320838C9326810D
S11316D037812F5F3F4F3783268310C0EB01092FDB
S11316E0182F0084F185E02D0995892BE1F68E8170
S11316F09F8101969F838E83812F902FDF91CF91BD
S11317001F910F910895FA01AA27283051F1203131
S113171081F1E8946F936E7F6E5F7F4F8F4F9F4F81
S1131720AF4FB1E03ED0B4E03CD0670F781F891FC3
S11317309A1FA11D680F791F8A1F911DA11D6A0F91
S1131740711D811D911DA11D20D009F468943F9144
S11317502AE0269F11243019305D3193DEF6CF0143
S11317600895462F4770405D4193B3E00FD0C9F709
S1131770F6CF462F4F70405D4A3318F0495D31FD76
S11317804052419302D0A9F7EACFB4E0A6959795C9
S1131790879577956795BA95C9F70097610571059F
S11317A008959B01AC010A2E0694579547953795E9
S11317B02795BA95C9F7620F731F841F951FA01D43
S11317C00895DC01FC01672F71917723E1F73297CB
S11317D004C07C916D9370836291AE17BF07C8F308
S10917E00895F894FFCF08
S11317E668656C6C6F20616C69200D0A0070706D01
S11117F63A200048324F3A2000433A200000C7
S9030000FC
