S01600006573705F6D6F746F72735F4543552E7372656387
S11300000C942A000C9447000C9447000C9447006D
S11300100C9447000C9447000C9447000C94470040
S11300200C9447000C9447000C9447000C94160958
S11300300C94740D0C94E10E0C9447000C94B80EBF
S11300400C9447000C9447000C9447000C94470010
S11300500C94470011241FBECFE5D8E0DEBFCDBF0E
S113006011E0A0E6B0E0E0E2F2E202C005900D92F9
S1130070A830B107D9F721E0A8E0B1E001C01D9292
S1130080AB32B207E1F70E946A050C940E110C948E
S11300900000E82FE695E695E69587706230E1F07A
S11300A0F0E09F01220F331FE20FF31FF195E1955A
S11300B0F10922AD41E050E0082E02C0440F551F63
S11300C00A94E2F7942F9095922301C0660F8A95C3
S11300D0EAF7692B62AF0895F0E09F01220F331F06
S11300E0E20FF31FF195E195F10942AD21E030E013
S11300F0B90102C0660F771F8A95E2F7CB01962FEC
S11301009095292F242322AF23AD9223892B83AFEB
S11301100895962F382F369536953695E32FF0E0CF
S1130120AF01440F551FE40FF51FF195E195F10957
S113013063AD330F330F330F831B21E030E0082E00
S113014002C0220F331F0A94E2F720952623692F59
S113015070E002C0660F771F8A95E2F7622B63AFE7
S11301600895282F269526952695E22FF0E0AF01D5
S1130170440F551FE40FF51FF195E195F10933ADD7
S1130180220F220F220F821B282F81E090E002C051
S1130190880F991F2A95E2F7832783AF089581E09A
S11301A0809308018CB180930D01809167008E3F8C
S11301B089F483E090E00E9451098FEF80936700F7
S11301C080910D018B3709F050C010926700109296
S11301D066000895809167008F3F51F480910D016E
S11301E08B3709F042C010926700109266000895A0
S11301F080916700811108C080910D0180930B01EB
S113020081E080936700089580916700813069F5EB
S113021080910D018D3789F4E09166000E2E000C5B
S1130220FF0BE85EFE4F10828FEF80936700809390
S1130230660081E080930C010895E09166000E2E23
S1130240000CFF0B80910D01E85EFE4F80838091CE
S113025066008F5F80936600809166008B302CF07F
S11302608FEF8093660080936700089560E08AE0D2
S11302700E94890061E08BE00E94890061E088E0CF
S11302800E94890060E089E00E948900089560E08E
S113029088E00E94890061E089E00E94890060E0B2
S11302A08AE00E94890061E08BE00E948900089541
S11302B061E088E00E94890060E089E00E94890092
S11302C060E08AE00E94890061E08BE00E9489007E
S11302D008958FE087BB18BA61E088E00E94890026
S11302E061E089E00E94890061E08AE00E9489005F
S11302F061E08BE00E94890068EE73E081E00E9477
S1130300E90981E00E94330C60E581E00E94680CF9
S113031008950F931F93CF93DF93E0911601F0910B
S1130320170184819581049788F5009171001091DB
S11303307200C8E1D1E0FE0101900020E9F7CF018D
S1130340885191400E94A30FF80191838083099002
S11303500020E9F7E0917100F0917200AE0148517C
S1130360514068E171E0808191810E94D0106091D8
S113037071007091720080910B01FB01828343E054
S113038080911601909117010E94070DDF91CF9182
S11303901F910F910895809167008E3F21F1809104
S11303A00801813081F41092080183E090E00E94FA
S11303B0CC098091090190910A01019690930A0158
S11303C080930901089581110EC00E94C5098EEF22
S11303D0809367008FEF8093660010920A01109259
S11303E009010E9489010895CF93DF93EC01E8E6A7
S11303F0F0E08BE7808361839881992379F0E0E0D2
S1130400AE2FB0E0A859BF4F12969C93EF5FDE0168
S1130410AE0FB11D9C919111F3CF01C0E0E0AE2F5E
S1130420B0E0A859BF4F8DE712968C93EF5FF0E0D0
S1130430E859FF4F1282DF91CF910895EF92FF9216
S11304400F931F93CF93DF9305E010E00F2EF8EE88
S1130450EF2EF02D0F2EF3E0FF2EF02DC8ECD0E0A0
S113046080E00E94B1008E2D9F2DFE013197F1F79F
S11304700197D9F70150110999F7DF91CF911F9195
S11304800F91FF90EF900895EF92FF920F931F93B7
S1130490CF93DF9305E010E00F2EF0EDEF2EF02D5B
S11304A00F2EF7E0FF2EF02DC8ECD0E080E00E9484
S11304B0B1008E2D9F2DFE013197F1F70197D9F7E9
S11304C00150110999F7DF91CF911F910F91FF907E
S11304D0EF900895EF92FF920F931F93CF93DF93C2
S11304E00AE010E00F2EF8EEEF2EF02D0F2EF3E0C1
S11304F0FF2EF02DC8ECD0E080E00E94B1008E2DDC
S11305009F2DFE013197F1F70197D9F70150110999
S113051099F7DF91CF911F910F91FF90EF9008957C
S1130520FF920F931F93CF93DF9300D000D0CDB7EA
S1130530DEB78C01F62E19821A821B821C82FC0102
S113054001900020E9F7CF0101974AE0BE016F5FF7
S11305507F4F801B910B0E94D91040E06AE770E046
S113056080E00E94F10D60E36F0D80E00E94610F56
S11305706CE280E00E94610F40E0BE016F5F7F4F3C
S113058080E00E94F10D909167009E3FE1F760E0EA
S113059080E00E94670F40E06EEF70E080E00E9410
S11305A0F10D86E890E09F938F938EE890E09F93FF
S11305B08F931F9282E08F9381E08F9384EF8F93C8
S11305C00E942F0E0FB6F894DEBF0FBECDBF81116F
S11305D003C00E94440204C0823011F40E946A02E3
S11305E061E080E00E94670F40E0B80180E00E9473
S11305F0F10D40E06EEF70E080E00E94F10D0F908D
S11306000F900F900F90DF91CF911F910F91FF905A
S11306100895DF92EF92FF920F931F93CF93DF938E
S1130620CDB7DEB727970FB6F894DEBF0FBECDBFA8
S1130630D82E85E0E3E7F0E0DE01119601900D92FB
S11306408A95E1F71F821E8268E082E00E94090910
S11306500F2EF8EEEF2EF02D0F2EF3E0FF2EF02DDF
S113066008EC10E00BC02E2D3F2DF8013197F1F767
S113067021503109D1F780E00E94B10085E00E9449
S11306805A08882381F385E00E94D4080F2EF8EEDF
S1130690EF2EF02D0F2EF3E0FF2EF02D08EC10E0DE
S11306A00BC02E2D3F2DF8013197F1F72150310960
S11306B0D1F780E00E94B10081E00E945A088823AB
S11306C081F381E00E94D408BE016F5F7F4F81E017
S11306D00E945D0763E5CE0101960E94F4016D2D31
S11306E088E690E00E94900227960FB6F894DEBF49
S11306F00FBECDBFDF91CF911F910F91FF90EF906F
S1130700DF900895DF92EF92FF920F931F93CF93A0
S1130710DF93CDB7DEB72D970FB6F894DEBF0FBECB
S1130720CDBFD82E81E392E3A0E0B0E089839A8321
S1130730AB83BC8365E081E00E94090983E00E94E9
S11307405A088823D9F383E00E94D4080F2EF8EEC8
S1130750EF2EF02D0F2EF3E0FF2EF02D08EC10E01D
S11307600BC02E2D3F2DF8013197F1F7215031099F
S1130770D1F780E00E94B10080E00E945A088823EB
S113078081F380E00E94D408BE016B5F7F4F80E05C
S11307900E945D078F81898388858A8389858B83FD
S11307A01C8288E00E94B10064E5CE0101960E949B
S11307B0F4016D2D88E690E00E9490022D960FB60C
S11307C0F894DEBF0FBECDBFDF91CF911F910F9183
S11307D0FF90EF90DF900895DF92EF92FF920F93D6
S11307E01F93CF93DF93CDB7DEB72C970FB6F89452
S11307F0DEBF0FBECDBFD82E88E399E3A0E0898386
S11308009A83AB8365E081E00E9409090F2EF8EE1C
S1130810EF2EF02D0F2EF3E0FF2EF02D08EC10E05C
S11308200BC02E2D3F2DF8013197F1F721503109DE
S1130830D1F780E00E94B10083E00E945A08882327
S113084081F383E00E94D4080F2EF8EEEF2EF02DF2
S11308500F2EF3E0FF2EF02D08EC10E00BC02E2D30
S11308603F2DF8013197F1F721503109D1F780E09C
S11308700E94B10080E00E945A08882381F380E03E
S11308800E94D408BE016C5F7F4F80E00E945D0728
S11308908C8189838D818A831B8288E00E94B100C8
S11308A068E4CE0101960E94F4016D2D88E690E083
S11308B00E9490022C960FB6F894DEBF0FBECDBFF7
S11308C0DF91CF911F910F91FF90EF90DF900895EA
S11308D060E080E00E94670F40E060EB70E080E041
S11308E00E94F10D86E890E09F938F938EE890E04C
S11308F09F938F931F9282E08F9383E18F9388E875
S11309008F930E942F0E2DB73EB7285F3F4F0FB62F
S1130910F8943EBF0FBE2DBF811103C00E94440254
S113092007C0823019F40E946A0202C00E941E02AB
S113093040E065EB70E080E00E94F10D86E890E015
S11309409F938F938EE890E09F938F931F9282E002
S11309508F9381E08F9384EF8F930E942F0E2DB796
S11309603EB7285F3F4F0FB6F8943EBF0FBE2DBF72
S1130970811103C00E94440204C0823011F40E9419
S11309806A0240E063EC70E080E00E94F10D86E8CA
S113099090E09F938F938EE890E09F938F931F92A4
S11309A082E08F9381E08F9384EF8F930E942F0EC8
S11309B02DB73EB7285F3F4F0FB6F8943EBF0FBE2A
S11309C02DBF811103C00E94440204C0823011F47F
S11309D00E946A0240E061ED70E080E00E94F10D47
S11309E086E890E09F938F938EE890E09F938F9397
S11309F01F9282E08F9381E08F9384EF8F930E9404
S1130A002F0E2DB73EB7285F3F4F0FB6F8943EBF69
S1130A100FBE2DBF811103C00E94440204C0823066
S1130A2011F40E946A0240E06CED70E080E00E94E4
S1130A30F10D86E890E09F938F938EE890E09F936A
S1130A408F931F9282E08F9381E08F9384EF8F9333
S1130A500E942F0E2DB73EB7285F3F4F0FB6F89474
S1130A603EBF0FBE2DBF811103C00E94440204C0CB
S1130A70823011F40E946A0240E060EF70E080E08E
S1130A800E94F10D86E890E09F938F938EE890E0AA
S1130A909F938F931F9282E08F9381E08F9384EFD3
S1130AA08F930E942F0E2DB73EB7285F3F4F0FB68E
S1130AB0F8943EBF0FBE2DBF811103C00E944402B3
S1130AC004C0823011F40E946A0261E080E00E9456
S1130AD0670F0895CF93DF93CDB7DEB728970FB68E
S1130AE0F894DEBF0FBECDBF1A821982789461E0FC
S1130AF080E00E94490061E082E00E94490061E0D8
S1130B0088E00E94490061E08FE10E94490061E0B1
S1130B1081E00E9449000E94FB0C9093170180938E
S1130B2016010E946901A12CC12CE12C03E023E0F1
S1130B3040E855E260E070E080E00E940F0F61E061
S1130B4080E00E94670F6FEC70E080E00E940A0F63
S1130B508BEC91E00E94E4090E9468040E94DE0785
S1130B602FE835E040E050E060E081E00E94FC06C0
S1130B702FE735E040E050E060E082E00E94FC06B0
S1130B802FE635E040E050E060E084E00E94FC069F
S1130B9040E061E071E080E00E94F10D8E010F5FA2
S1130BA01F4FF12C85E00E945A08882319F085E034
S1130BB00E94D40887E00E945A08882319F087E02D
S1130BC00E94D40881E00E945A08882311F182E02F
S1130BD00E94B10081E00E94D408BE016D5F7F4F86
S1130BE081E00E945D079B81923499F48C8181336A
S1130BF041F4602F83E990E00E949002EE24E39494
S1130C0008C0803331F4602F88E990E00E9490029C
S1130C10EF2CE0911601F091170124813581232BEB
S1130C2009F45FC0609171007091720043E050E07C
S1130C30CF010E94460DE0917100F0917200928103
S1130C40933521F489810E94090348C0943521F425
S1130C5089810E94820342C0983421F489810E94D0
S1130C60EC033CC09434D1F50190F081E02D8081F7
S1130C70823519F40E94360131C08C3419F40E9473
S1130C8058012CC0863499F4E11028C061E088E052
S1130C900E9489006F2D89E00E94890061E08AE04A
S1130CA00E9489006F2D8BE00E94890017C0823456
S1130CB019F40E94470112C0833581F46F2D8AE034
S1130CC00E9489006F2D8BE00E9489006F2D88E0BF
S1130CD00E9489006F2D89E00E9489000E941E02F3
S1130CE061CF8F2D0E94B1005DCF60E08CE00E9447
S1130CF0890080EC0E94B10D61E08CE00E948900C3
S1130D0008950F931F93CF93DF93D82F8B01C42F94
S1130D1060E08CE00E94890083E00E94B10D8D2F79
S1130D200E94B10DC13029F40E94BA0DF8018083EC
S1130D3004C06C2FC8010E94D80D61E08CE00E94B1
S1130D408900DF91CF911F910F910895CF92DF9287
S1130D50EF92FF92CF93DF93D82FC62F69017A01C8
S1130D6060E08CE00E94890082E00E94B10D8D2F2A
S1130D700E94B10DC13031F5D701C601072E75E1CE
S1130D80B695A795979587957A95D1F7702D0E947A
S1130D90B10DD701C601072E7DE0B695A7959795AD
S1130DA087957A95D1F7702D807E9E2D9370892B2F
S1130DB088600E94B10D8D2D0E94B10D8C2D0E9472
S1130DC0B10D0FC0C6019695879596958795969512
S1130DD087950E94B10D8C2D8295880F807E0E948C
S1130DE0B10D61E08CE00E948900DF91CF91FF900A
S1130DF0EF90DF90CF900895CF92DF92EF92FF9221
S1130E00CF93DF93C82FD62F69017A0160E08CE07D
S1130E100E948900D13081F582E00E94B10DC6950F
S1130E208C2F8295807F8F5C0E94B10DD701C60103
S1130E30072E75E1B695A795979587957A95D1F77D
S1130E40702D0E94B10DD701C601072E7DE0B69525
S1130E50A795979587957A95D1F7702D807E9E2DCD
S1130E609370892B88600E94B10D8D2D0E94B10D65
S1130E708C2D0E94B10D16C0C13009F4C0E08C2F36
S1130E8080640E94B10DC6019695879596958795C5
S1130E90969587950E94B10D8C2D8295880F807E42
S1130EA00E94B10D61E08CE00E948900DF91CF9136
S1130EB0FF90EF90DF90CF9008950F931F93CF93FF
S1130EC0C82F8B0160E08CE00E94890083E00E94BF
S1130ED0B10D8C2F8295807F8B590E94B10D0E9499
S1130EE0BA0D682F6F70C8010E94D80D61E08CE0C4
S1130EF00E948900CF911F910F910895EF92FF9264
S1130F001F93CF93DF93C82FD62F7A01122F60E05F
S1130F108CE00E94890082E00E94B10DC6958C2F5E
S1130F208295807F8B5C0E94B10D20E4D29FC0012A
S1130F301124812B0E94B10DD11104C0612FC7016E
S1130F400E94BF0D61E08CE00E948900DF91CF9187
S1130F501F91FF90EF900895CF93C82F60E08CE02D
S1130F600E9489008C2F80680E94B10D61E08CE0A2
S1130F700E94890080E197E20197F1F7CF910895EB
S1130F801F93CF93DF93182FD62FC42F60E08CE0EC
S1130F900E94890085E00E94B10D812F0E94B10D4D
S1130FA08D2F0E94B10D8C2F0E94B10D61E08CE059
S1130FB00E948900DF91CF911F9108950E949D0D99
S1130FC00E94750640E06FE08CE00E94C00740E09C
S1130FD067E08DE00E94C00740E060E680E60E9482
S1130FE0C00740E060E680E70E94C0074FEF6FEF64
S1130FF08BE20E94C00741E46FEF8AE20E94C007BF
S113100041EB6FEF89E20E94C00745E067E488E2A4
S11310100E94C0072FEF3FE040E050E060E080E234
S11310200E94A6062FEF3FE040E050E060E084E23B
S11310300E94A6062FE835E040E050E060E080E042
S11310400E94A6062FE735E040E050E060E088E02B
S11310500E94A6062FE635E040E050E060E080E123
S11310600E94A6062FE535E040E050E060E084E110
S11310700E94A6062FE435E040E050E060E088E1FD
S11310800E94A60648E06FEF8FE20E94C007089511
S1131090CF9360E08CE00E94890080EA0E94B10D49
S11310A00E94BA0DC82F61E08CE00E9489008C2F49
S11310B0CF9108951F93CF93DF931F92CDB7DEB7DF
S11310C0182F883058F40E94480821E030E002C00C
S11310D0220F331F1A95E2F7822361C0803190F406
S11310E041E0BE016F5F7F4F8CE20E948106185081
S11310F081E090E002C0880F991F1A95E2F72981D8
S113110082234DC0883190F441E0BE016F5F7F4F70
S113111080E30E948106105181E090E002C0880FB4
S1131120991F1A95E2F72981822339C0803290F4FD
S113113041E0BE016F5F7F4F80E40E948106185139
S113114081E090E002C0880F991F1A95E2F7298187
S1131150822325C0883290F441E0BE016F5F7F4F47
S113116080E50E948106105281E090E002C0880F61
S1131170991F1A95E2F72981822311C041E0BE012B
S11311806F5F7F4F8DE20E948106185281E090E0EC
S113119002C0880F991F1A95E2F7298182230F90C4
S11311A0DF91CF911F9108958830B8F4833031F0E6
S11311B0853031F0873029F484E003C082E001C037
S11311C083E061E070E002C0660F771F8A95E2F762
S11311D040E08CE20E94C0070895803168F4885092
S11311E061E070E002C0660F771F8A95E2F740E085
S11311F08CE20E94C0070895885261E070E002C04A
S1131200660F771F8A95E2F740E08CE20E94C007E0
S11312100895CF93C82F262F40E050E061E00E944C
S11312207E078C2F0E94AC07CF9108951F920F92D6
S11312300FB60F9211242F933F934F935F936F93A5
S11312407F938F939F93AF93BF93EF93FF93F89400
S113125080910E0190910F01009761F0019709F4BC
S113126012BE80910E0190910F01019790930F018E
S113127080930E01E0912501F0912601099578945F
S1131280FF91EF91BF91AF919F918F917F916F915A
S11312905F914F913F912F910F900FBE0F901F9030
S11312A018950F931F939C0140910E0150910F01CB
S11312B0452BB1F583B7811133C0A8EEB3E00E948A
S11312C0940F8B019C010F2EFFE0369527951795FF
S11312D00795FA95D1F7F02D98012F5F3F4F309382
S11312E00F0120930E0125E023BF20910E013091C0
S11312F00F012130310571F4AB01BC01689416F87B
S113130076956795579547951694D1F7419542BFC1
S113131081E038C02230310580F112BE81E032C054
S113132008B600FE2CC098B7916098BF40910E019A
S113133050910F014150510950930F0140930E01F8
S11313404115510521F413BE12BE80E01BC041308B
S11313505105B9F4A8EEB3E00E94940FDC01CB016F
S1131360689416F8B695A795979587951694D1F72E
S1131370682F619562BF81E005C081E003C081E010
S113138001C081E01F910F91089513BE12BE109207
S11313900F0110920E0108959C01A8EEB3E00E9483
S11313A0940FDC01CB01072E7FE0B695A7959795A6
S11313B087957A95D1F7702DBC016F5F7F4F70933D
S11313C00F0160930E0108959093260180932501E7
S11313D008954F925F926F927F928F929F92AF92F5
S11313E0BF92CF92DF92EF92FF920F931F93CF930E
S11313F0DF93182FEB0180FF91C083B7887F83BFF1
S11314006B01E12CF12C60E072E18AE790E0A70126
S113141096010E94720F2F3F31054105510518F4C2
S113142081E083BF78C0D701C601880F991FAA1F26
S1131430BB1F880F991FAA1FBB1F9C01AD01220F60
S1131440331F441F551F60E072E18AE790E00E9459
S1131450720F2F3F31054105510520F483B7826097
S113146083BF59C0D701C601880F991FAA1FBB1F8C
S1131470880F991FAA1FBB1F880F991FAA1FBB1F84
S1131480880F991FAA1FBB1F9C01AD01220F331F98
S1131490441F551F220F331F441F551F60E072E184
S11314A08AE790E00E94720F2F3F310541055105F4
S11314B020F483B7836083BF2EC088249C2CAD2C7A
S11314C0BE2C60E072E18AE790E0A50194010E94DD
S11314D0720F2F3F31054105510520F483B7846015
S11314E083BF19C0A7019601012E1AE0220F331FF2
S11314F0441F551F1A95D1F7102D60E072E18AE759
S113150090E00E94720F2F3F31054105510518F4F8
S113151083B7856083BF83B7886483BF812F867058
S113152009F4A7C08FB5887F8FBD6E01E12CF12C23
S113153060E072E18AE790E0A70196010E94720FD1
S1131540022FB32E2F3F3F4F4105510518F481E080
S11315508EBD84C0D701C601880F991FAA1FBB1F67
S1131560880F991FAA1FBB1F9C01AD01220F331FB7
S1131570441F551F60E072E18AE790E00E94720FF9
S11315802F3F8FEF38074105510530F48EB5826047
S11315908EBD022FB32E62C0D701C601880F991FDA
S11315A0AA1FBB1F880F991FAA1FBB1F880F991F53
S11315B0AA1FBB1F880F991FAA1FBB1F9C01AD0147
S11315C0220F331F441F551F220F331F441F551F63
S11315D060E072E18AE790E00E94720F2F3F8FEF84
S11315E038074105510530F48EB583608EBD022F56
S11315F0B32E34C044245C2C6D2C7E2C60E072E14C
S11316008AE790E0A30192010E94720F2F3F8FEFAF
S113161038074105510530F48EB584608EBD022F24
S1131620B32E1CC0A7019601012E1AE0220F331F0E
S1131630441F551F1A95D1F7102D60E072E18AE717
S113164090E00E94720F2F3F8FEF3807410551053C
S113165028F48EB585608EBD022FB32EB7BC06BDAF
S11316608EB588618EBD8FB582608FBD8FB58E7F3C
S11316708FBD13FFE7C085B5887F85BD6E01E12C62
S1131680F12C60E072E18AE790E0A70196010E94E4
S1131690720F2F3F31054105510518F481E085BDD6
S11316A0CEC0D701C601880F991FAA1FBB1F880F80
S11316B0991FAA1FBB1F9C01AD01220F331F441F9A
S11316C0551F60E072E18AE790E00E94720F2F3F9D
S11316D031054105510520F485B5826085BDAFC053
S11316E0D701C601880F991FAA1FBB1F880F991F16
S11316F0AA1FBB1F880F991FAA1FBB1F880F991F02
S1131700AA1FBB1F9C01AD01220F331F441F551F8D
S113171060E072E18AE790E00E94720F2F3F31058A
S11317204105510520F485B5836085BD88C0D70186
S1131730C601880F991FAA1FBB1F880F991FAA1FD4
S1131740BB1F880F991FAA1FBB1F880F991FAA1FB1
S1131750BB1F9C01AD01220F331F441F551F220FD5
S1131760331F441F551F60E072E18AE790E00E9436
S1131770720F2F3F31054105510520F485B5846072
S113178085BD5DC0D701C601880F991FAA1FBB1F65
S1131790880F991FAA1FBB1F880F991FAA1FBB1F61
S11317A0880F991FAA1FBB1F880F991FAA1FBB1F51
S11317B0880F991FAA1FBB1F9C01AD01220F331F65
S11317C0441F551F60E072E18AE790E00E94720FA7
S11317D02F3F31054105510520F485B5856085BD50
S11317E02EC03E2D2D2D1C2D002760E072E18AE7CE
S11317F090E0A90198010E94720F2F3F3105410525
S1131800510520F485B5866085BD19C0A7019601F0
S1131810012E1AE0220F331F441F551F1A95D1F7CA
S1131820102D60E072E18AE790E00E94720F2F3F72
S113183031054105510518F485B5876085BD85B529
S1131840886485BDDF91CF911F910F91FF90EF9038
S1131850DF90CF90BF90AF909F908F907F906F90CC
S11318605F904F900895CF93C82F80FF0AC061E026
S11318708BE00E94490083B7806283BF83B78F7E69
S113188083BFC1FF0AC061E08DE10E9449008FB5AA
S11318908F7B8FBD8FB580688FBDC2FF0AC061E0AA
S11318A08CE10E9449008FB58F7E8FBD8FB5806219
S11318B08FBDC3FF0BC061E08FE10E9449008F9A86
S11318C085B5806285BD85B58F7E85BDCF91089530
S11318D0CF93DF93C82FD62F80FF19C0643629F425
S11318E08FEF8CBFC1FD17C07DC08FEF689F900143
S11318F011243695279536952795ABE7B4E10E94D8
S1131900940F969587958CBFC1FD15C06EC081FF5D
S113191028C0643681F426B597B530E021503109EA
S1131920892F90E0982F8827820F931F9BBD8ABD33
S1131930C2FD1BC040C086B527B530E0322F222738
S1131940280F311DAD2FB0E00E94940F24E630E043
S113195040E050E00E94720F3BBD2ABDC2FD15C09D
S11319602AC082FF28C0643681F426B597B530E0DA
S113197021503109892F90E0982F8827820F931FD7
S113198099BD88BDC3FD1BC033C086B527B530E003
S1131990322F2227280F311DAD2FB0E00E94940F63
S11319A024E630E040E050E00E94720F39BD28BDCB
S11319B0C3FD08C01DC0C3FF1BC0D43619F48FEF8C
S11319C083BD16C08FEFD89F9001112436952795BB
S11319D036952795ABE7B4E10E94940F96958795C9
S11319E083BD06C0C2FDC1CFE6CFC2FDCECFE3CFDB
S11319F0DF91CF91089586E090E00E94A30FFC014F
S1131A001182108213821282158214820895CF9259
S1131A10DF92EF92FF920F931F93CF93DF93EC012A
S1131A206B01042F84E090E00E94A30F7C0110E07E
S1131A30C8010E94A30FF70191838083A801B60116
S1131A400E94D010F701138212828C819D81892B10
S1131A5029F4F982E882FB82EA820AC0EA81FB81E6
S1131A60F382E282EA81FB81828193819B838A8370
S1131A708C819D8101969D838C83DF91CF911F91F1
S1131A800F91FF90EF90DF90CF9008950F931F93E5
S1131A90CF93DF93FC0124813581232BF9F09B0143
S1131AA0EC010190F081E02D60817181C9010E94F7
S1131AB0D01008811981F8018281938199838883E8
S1131AC0808191810E943810C8010E9438108C8155
S1131AD09D8101979D838C8381E001C08FEFDF910D
S1131AE0CF911F910F9108951F920F920FB60F92ED
S1131AF011242F933F934F935F936F937F938F930F
S1131B009F93AF93BF93EF93FF93F894E0911001E9
S1131B10F091110109957894FF91EF91BF91AF91E4
S1131B209F918F917F916F915F914F913F912F91F1
S1131B300F900FBE0F901F90189561E08DE00E94EA
S1131B40490061E08CE00E94490061E08FE00E945E
S1131B50490060E08EE00E94490080E58DB91EB81E
S1131B6008958FB90FB607FE02C06F9902C0779B24
S1131B70FECF089581E30E94B10D8FB108950F93B4
S1131B801F93CF93DF93662371F0EC016150062F0E
S1131B9010E00F5F1F4F080F191F89910E94B10DAC
S1131BA0C017D107D1F7DF91CF911F910F910895FD
S1131BB00F931F93CF93DF93662371F0EC01615071
S1131BC0062F10E00F5F1F4F080F191F0E94BA0D58
S1131BD08993C017D107D1F7DF91CF911F910F914E
S1131BE00895FF920F931F93CF93DF93FB016081BE
S1131BF0641771F0D42F8F01F82EC0E08F2D0E944E
S1131C00610FCF5FF801EC0FF11D60816D13F6CF0A
S1131C10DF91CF911F910F91FF900895FA012081D8
S1131C20FC01E20FF11D308136130CC02F5FFA0165
S1131C302083FC01E20FF11D81E09081992371F072
S1131C4080E00895FC018081861305C081E0FA01DB
S1131C50808380E00895FA01108280E008952F9235
S1131C603F924F925F926F927F928F929F92AF9228
S1131C70BF92CF92DF92EF92FF920F931F93CF9375
S1131C80DF93CDB7DEB7ED88FE88AF88B88C6DB62C
S1131C907EB6C501880F991F2DB73EB7281B390B97
S1131CA00FB6F8943EBF0FBE2DBF2F5F3F4F222EBD
S1131CB0332E4DB75EB74A195B090FB6F8945EBF71
S1131CC00FBE4DBFEDB7FEB731964F011A141B047A
S1131CD064F4DE015996F901280F391F8D919D9105
S1131CE081939193E217F307C9F7512C1FC05F9BAF
S1131CF01DC04CB01A141B04CCF4C22CD32C00E02D
S1131D0010E0A401400F511F642DF60181919191BF
S1131D106F010E940E0E882321F055245394500E17
S1131D2005C00F5F1F4F0A151B0559F7C7010E9415
S1131D305109882311F05520D1F20E94C509852D3F
S1131D400FB6F8947EBE0FBE6DBEDF91CF911F918A
S1131D500F91FF90EF90DF90CF90BF90AF909F9046
S1131D608F907F906F905F904F903F902F90089549
S1131D701F920F920FB60F9211242F933F934F93FC
S1131D805F936F937F938F939F93AF93BF93EF93DF
S1131D90FF93F894E0911401F0911501099578945A
S1131DA0FF91EF91BF91AF919F918F917F916F912F
S1131DB05F914F913F912F910F900FBE0F901F9005
S1131DC018951F920F920FB60F9211242F933F93E1
S1131DD04F935F936F937F938F939F93AF93BF932F
S1131DE0EF93FF93F894E0911201F0911301099598
S1131DF07894FF91EF91BF91AF919F918F917F91D3
S1131E006F915F914F913F912F910F900FBE0F9063
S1131E101F90189570931301609312010895AF9267
S1131E20CF92EF92FF920F93CF93C22F811142C0B2
S1131E30DB01CA01880F991FAA1FBB1F880F991FB6
S1131E40AA1FBB1F880F991FAA1FBB1F880F991FAA
S1131E50AA1FBB1F9C01AD01207F5F7760E078E47F
S1131E6088EE91E00E94720F2250310920FF05C0D4
S1131E70369527952F5F3F4F02C03695279582E010
S1131E808BB9000F000F000F8C2F8470082B0AB938
S1131E908A2D8068CC0CCC0CCC0CAC2CA82A80E10C
S1131EA0E89E70011124EA28C370CC0FEC2AE0BC30
S1131EB030BD29B9CF910F91FF90EF90CF90AF90A3
S1131EC00895559902C05D9BFECF6CB908958111A8
S1131ED008C0662319F08AB1806802C08AB18F777E
S1131EE08AB90895A1E21A2EAA1BBB1BFD010DC0DD
S1131EF0AA1FBB1FEE1FFF1FA217B307E407F507B6
S1131F0020F0A21BB30BE40BF50B661F771F881F91
S1131F10991F1A9469F760957095809590959B0127
S1131F20AC01BD01CF010895A29FB001B39FC001D0
S1131F30A39F700D811D1124911DB29F700D811DF1
S1131F401124911D0895CF93DF938230910510F4ED
S1131F5082E090E0E0912901F0912A0120E030E054
S1131F60C0E0D0E0309711F1408151814817590702
S1131F70C0F04817590761F482819381209719F0C2
S1131F809B838A832BC090932A018093290126C0C6
S1131F902115310519F04217530718F49A01BE01AF
S1131FA0DF01EF010280F381E02DDCCF2115310543
S1131FB009F1281B390B2430310590F412968D91C8
S1131FC09C9113976115710521F0FB019383828322
S1131FD004C090932A0180932901FD01329644C0E4
S1131FE0FD01E20FF31F81939193225031092D9348
S1131FF03C933AC02091270130912801232B41F4CE
S113200020916200309163003093280120932701CE
S113201020916000309161002115310541F42DB704
S11320203EB74091640050916500241B350BE0914C
S11320302701F0912801E217F307A0F42E1B3F0BB0
S11320402817390778F0AC014E5F5F4F2417350726
S113205048F04E0F5F1F509328014093270181934E
S1132060919302C0E0E0F0E0CF01DF91CF910895B9
S11320700F931F93CF93DF93009709F48CC0FC0157
S11320803297138212820091290110912A010115BD
S1132090110581F420813181820F931F2091270142
S11320A0309128012817390779F5F0932801E09336
S11320B0270171C0D80140E050E0AE17BF0750F4CB
S11320C012962D913C911397AD012115310509F11B
S11320D0D901F3CF9D01DA013383228360817181B9
S11320E0860F971F8217930769F4EC0128813981C1
S11320F0260F371F2E5F3F4F318320838A819B81B8
S113210093838283452B29F4F0932A01E0932901D8
S113211042C01396FC93EE931297ED0149915991A5
S11321209E01240F351FE217F30771F4808191811A
S1132130840F951F029611969C938E9382819381AE
S113214013969C938E931297E0E0F0E0D8011296D8
S11321508D919C911397009719F0F8018C01F6CF9B
S11321608D919C9198012E5F3F4F820F931F209178
S11321702701309128012817390769F4309729F489
S113218010922A011092290102C013821282109324
S1132190280100932701DF91CF911F910F9108959A
S11321A0FB01DC0102C001900D9241505040D8F770
S11321B00895BB274A3031F4992322F4BDE2909567
S11321C081959F4F0C94E510BB27FB015527AA2747
S11321D0880F991FAA1FA41710F0A41B83955051B0
S11321E0B9F7A05DAA3308F0A95DA193009779F728
S11321F0B111B1931192CB010C94FE10DC01FC01DE
S1132200672F71917723E1F7329704C07C916D9326
S113221070836291AE17BF07C8F30895F894FFCF97
S113222000002B012000FFFE7B2020202020202006
S11322302022013132333400000041542B434950F1
S113224053454E443D004552524F520D0A004F4BE8
S11322500D0A007B42427D007B424E7D003A2053B2
S11322604D4F4B45003A204E4F425245414B2100C1
S113227041540D0A0041542B43574D4F44453D31C1
S11322800D0A0041542B4349504D55583D310D0A18
S11322900041542B43494653520D0A0041542B43E9
S11322A049505345525645523D312C38300D0A00A1
S11322B041542B43495053544F3D313030300D0A73
S10B22C000524541445900009D
S9030000FC
