S010000044494F5F70726F672E7372656321
S11300000C942A000C9434000C9434000C943400A6
S11300100C9434000C9434000C9434000C9434008C
S11300200C9434000C9434000C9434000C9434007C
S11300300C9434000C9434000C9434000C9434006C
S11300400C9434000C9434000C9434000C9434005C
S11300500C94340011241FBECFE5D4E0DEBFCDBF25
S11300600E9436000C944C000C940000B99AC19A7A
S11300702FEF89E698E1215080409040E1F700C0DD
S11300800000C1982FEF89E698E12150804090400C
S10F0090E1F700C00000EBCFF894FFCFB4
S9030000FC
