S0100000415433325F43414E2E73726563E9
S11300000C942A000C9447000C9447000C9447006D
S11300100C9447000C9447000C9447000C94470040
S11300200C9447000C9447000C9447000C94470030
S11300300C945B040C9447000C9447000C94470008
S11300400C9447000C9447000C9447000C94470010
S11300500C94470011241FBECFE5D8E0DEBFCDBF0E
S113006010E0A0E6B0E0ECEDF9E002C005900D92DE
S1130070AE3AB107D9F720E0AEEAB0E001C01D9274
S1130080A03BB207E1F70E94AF000C94EC040C947F
S11300900000E82FE695E695E69587706230E1F07A
S11300A0F0E09F01220F331FE20FF31FF195E1955A
S11300B0F10922AD41E050E0082E02C0440F551F63
S11300C00A94E2F7942F9095922301C0660F8A95C3
S11300D0EAF7692B62AF0895F0E09F01220F331F06
S11300E0E20FF31FF195E195F10942AD21E030E013
S11300F0B90102C0660F771F8A95E2F7CB01962FEC
S11301009095942392AF93AD892B83AF0895962F46
S1130110382F369536953695E32FF0E0AF01440F2E
S1130120551FE40FF51FF195E195F10963AD330F08
S1130130330F330F831B21E030E0082E02C0220F5F
S1130140331F0A94E2F720952623692F70E002C03A
S1130150660F771F8A95E2F7622B63AF0895CF93FA
S1130160DF93CDB7DEB729970FB6F894DEBF0FBE85
S1130170CDBFB8988FEF87BB11E018BB0E94A604CF
S11301802FEF84E39CE0215080409040E1F700C0D1
S1130190000088B3182718BB0E9401032FE835E03C
S11301A040E050E060E081E00E941F022FE735E06C
S11301B040E050E060E082E00E941F022FE635E05C
S11301C040E050E060E084E00E941F022FEF83EDE6
S11301D090E3215080409040E1F700C0000068E0C7
S11301E081E00E941C04F12C01E0102F83E00E94A6
S11301F06D03882341F060E080E690E00E94B4043F
S113020083E00E94E70385E00E946D03882341F0A8
S113021060E088E690E00E94B40485E00E94E70371
S113022087E00E946D03882341F060E080E790E05E
S11302300E94B40487E00E94E70380E00E946D03FB
S1130240882321F160E088E790E00E94B40488B339
S1130250802788BBBE016F5F7F4F80E00E948002D1
S113026068E070E0CE0101960E94CD0460E085E66E
S113027090E00E94B40480E00E94E70368E082E01A
S11302800E941C04F39488B3802788BB812F0E94AA
S11302906D03882309F4AACF21E0F21224C060E0A0
S11302A08AE890E00E94B40488B3802788BBBE012A
S11302B06F5F7F4F802F0E94800268E070E0CE0164
S11302C001960E94CD0460E085E690E00E94B404AB
S11302D0802F0E94E70368E084E00E941C04689475
S11302E0FF24F1F809C082E0F8120AC060E08CE94A
S11302F090E00E94B40404C088B3802788BB76CF02
S113030088B3802788BBBE016F5F7F4F802F0E9418
S1130310800268E070E0CE0101960E94CD0460E0A6
S113032085E690E00E94B404802F0E94E703E4CFA6
S113033060E08CE00E94870080EC0E94980461E0F9
S11303408CE00E94870008950F931F93CF93DF934F
S1130350D82F8B01C42F60E08CE00E94870083E0DB
S11303600E9498048D2F0E949804C13029F40E94A1
S1130370A104F801808304C06C2FC8010E944204C8
S113038061E08CE00E948700DF91CF911F910F9173
S11303900895CF92DF92EF92FF92CF93DF93D82FFD
S11303A0C62F69017A0160E08CE00E94870082E038
S11303B00E9498048D2F0E949804C13031F5D70112
S11303C0C601072E75E1B695A795979587957A95F9
S11303D0D1F7702D0E949804D701C601072E7DE045
S11303E0B695A795979587957A95D1F7702D807EC8
S11303F09E2D9370892B88600E9498048D2D0E94F5
S113040098048C2D0E9498040FC0C6019695879578
S113041096958795969587950E9498048C2D82953C
S1130420880F807E0E94980461E08CE00E9487001F
S1130430DF91CF91FF90EF90DF90CF900895CF920E
S1130440DF92EF92FF92CF93DF93C82FD62F6901EB
S11304507A0160E08CE00E948700D13081F582E06F
S11304600E9498048C2F86958295807F8F5C0E94D1
S11304709804D701C601072E75E1B695A7959795FF
S113048087957A95D1F7702D0E949804D701C601FB
S1130490072E7DE0B695A795979587957A95D1F720
S11304A0702D807E9E2D9370892B88600E94980405
S11304B08D2D0E9498048C2D0E94980416C0C13082
S11304C009F4C0E08C2F80640E949804C6019695BC
S11304D0879596958795969587950E9498048C2D77
S11304E08295880F807E0E94980461E08CE00E94CF
S11304F08700DF91CF91FF90EF90DF90CF90089528
S11305000F931F93CF93C82F8B0160E08CE00E9460
S1130510870083E00E9498048C2F8295807F8B59FA
S11305200E9498040E94A104682F6F70C8010E9461
S1130530420461E08CE00E948700CF911F910F91EB
S11305400895EF92FF921F93CF93DF93C82FD62F76
S11305507A01122F60E08CE00E94870082E00E9402
S113056098048C2F86958295807F8B5C0E949804DA
S113057020E4D29FC0011124812B0E949804D11140
S113058004C0612FC7010E94290461E08CE00E942D
S11305908700DF91CF911F91FF90EF900895CF9343
S11305A0C82F60E08CE00E9487008C2F80680E9436
S11305B0980461E08CE00E94870080E197E2019753
S11305C0F1F7CF9108951F93CF93DF93182FD62F70
S11305D0C42F60E08CE00E94870085E00E949804AC
S11305E0812F0E9498048D2F0E9498048C2F0E94C2
S11305F0980461E08CE00E948700DF91CF911F9105
S113060008950E9484040E94980140E06FE08CE009
S11306100E94E30240E067E08DE00E94E30240E0D4
S113062060E680E60E94E30240E060E680E70E9424
S1130630E3024FEF6FEF8BE20E94E30241E46FEFBE
S11306408AE20E94E30241EB6FEF89E20E94E30237
S113065045E067E488E20E94E3022FEF3FE040E0D8
S113066050E060E080E20E94C9012FEF3FE040E0EB
S113067050E060E084E20E94C9012FE835E040E0E8
S113068050E060E080E00E94C9012FE735E040E0DF
S113069050E060E088E00E94C9012FE635E040E0C8
S11306A050E060E080E10E94C90148E06FEF8FE212
S11306B00E94E3020895CF9360E08CE00E948700DB
S11306C080EA0E9498040E94A104C82F61E08CE093
S11306D00E9487008C2FCF9108951F93CF93DF93AF
S11306E01F92CDB7DEB7182F883058F40E945B03F1
S11306F021E030E002C0220F331F1A95E2F7822373
S113070061C0803190F441E0BE016F5F7F4F8CE2A5
S11307100E94A401185081E090E002C0880F991F44
S11307201A95E2F7298182234DC0883190F441E083
S1130730BE016F5F7F4F80E30E94A401105181E0EE
S113074090E002C0880F991F1A95E2F7298182234D
S113075039C0803290F441E0BE016F5F7F4F80E486
S11307600E94A401185181E090E002C0880F991FF3
S11307701A95E2F72981822325C0883290F441E05A
S1130780BE016F5F7F4F80E50E94A401105281E09B
S113079090E002C0880F991F1A95E2F729818223FD
S11307A011C041E0BE016F5F7F4F8DE20E94A40142
S11307B0185281E090E002C0880F991F1A95E2F761
S11307C0298182230F90DF91CF911F910895883062
S11307D0B8F4833031F0853031F0873029F484E087
S11307E003C082E001C083E061E070E002C0660FF4
S11307F0771F8A95E2F740E08CE20E94E3020895B5
S1130800803168F4885061E070E002C0660F771FA1
S11308108A95E2F740E08CE20E94E3020895885250
S113082061E070E002C0660F771F8A95E2F740E04E
S11308308CE20E94E3020895CF93C82F262F40E054
S113084050E061E00E94A1028C2F0E94CF02CF9160
S113085008950F931F93CF93DF93662371F0EC01F8
S11308606150062F10E00F5F1F4F080F191F899169
S11308700E949804C017D107D1F7DF91CF911F913F
S11308800F9108950F931F93CF93DF93662371F015
S1130890EC016150062F10E00F5F1F4F080F191F66
S11308A00E94A1048993C017D107D1F7DF91CF919A
S11308B01F910F9108951F920F920FB60F9211245A
S11308C02F933F934F935F936F937F938F939F9354
S11308D0AF93BF93EF93FF93F894E091AE00F09140
S11308E0AF0009957894FF91EF91BF91AF919F91DB
S11308F08F917F916F915F914F913F912F910F90C5
S11309000FBE0F901F90189561E08DE00E94490082
S113091061E08CE00E94490061E08FE00E944900A0
S113092060E08EE00E94490080E58DB91EB808950C
S11309308FB90FB607FE02C06F9902C0779BFECF36
S1130940089581E30E9498048FB1089582E08BB9E1
S113095088E08AB986E880BD10BC87E689B9089525
S11309605D9BFECF8CB908950F931F93CF93DF93B4
S1130970FC018081681761F0D62F8F01C0E00E94CE
S1130980B004CF5FF801EC0FF11D80818D13F7CF18
S1130990DF91CF911F910F910895EF92FF920F93E2
S11309A01F93CF936115710589F08B017C0120E0C1
S11309B030E0C0E0F701E20FF31F80810E94B00431
S11309C0CF5F2C2F30E020173107A0F3CF911F9178
S10F09D00F91FF90EF900895F894FFCF72
S11309DC53454E54300D0A0053454E54310D0A0004
S11309EC53454E54320D0A0052454345495645442D
S11309FC3120444154413A0D0A005245434549566D
S1130A0C45443220444154413A0D0A005245434571
S1110A1C495645443320444154413A0D0A00E2
S9030000FC
