S01000004C43445F70726F672E737265632A
S11300000C942A000C9447000C9447000C9447006D
S11300100C9447000C9447000C9447000C94470040
S11300200C9447000C9447000C9447000C94470030
S11300300C9447000C9447000C9447000C94470020
S11300400C9447000C9447000C9447000C94470010
S11300500C94470011241FBECFE5D4E0DEBFCDBF12
S113006010E0A0E6B0E0E2ECF5E002C005900D92ED
S1130070A237B107D9F720E0A2E7B0E001C01D9292
S1130080A337B207E1F70E94AF000C94DF020C948F
S11300900000E82FE695E695E69587706230E1F07A
S11300A0F0E09F01220F331FE20FF31FF195E1955A
S11300B0F10922AD41E050E0082E02C0440F551F63
S11300C00A94E2F7942F9095922301C0660F8A95C3
S11300D0EAF7692B62AF0895F0E09F01220F331F06
S11300E0E20FF31FF195E195F10942AD21E030E013
S11300F0B90102C0660F771F8A95E2F7CB01962FEC
S11301009095942392AF93AD892B83AF0895962F46
S1130110382F369536953695E32FF0E0AF01440F2E
S1130120551FE40FF51FF195E195F10963AD330F08
S1130130330F330F831B21E030E0082E02C0220F5F
S1130140331F0A94E2F720952623692F70E002C03A
S1130150660F771F8A95E2F7622B63AF08952FEF3E
S113016089E698E1215080409040E1F700C000000A
S11301700E94910160E070E081E090E00E946A02D8
S113018080E690E00E948002FFCF5F926F927F92A0
S11301908F929F92AF92BF92CF92DF92EF92FF9293
S11301A00F931F93CF93DF93582E809172008F7B10
S11301B08093720068E00E94AF0282E08A95F1F7B2
S11301C000C08091720080628093720068E00E9497
S11301D0AF0292E09A95F1F700C0852D881F882719
S11301E0881F982F9295907F80917200817E892B31
S11301F056FAAA24A0F8B12CAA0CBB1CAA0CBB1C4E
S1130200AA0CBB1CA82A55FACC24C0F8D12CCC0CBF
S1130210DD1CCC0CDD1CCA2854FA882780F9C82FB1
S113022090E0D92FCC0FDD1F8C2F8C298093720086
S113023068E00E94AF0282E08A95F1F700C08091E5
S113024072008F7D8093720068E00E94AF0292E09A
S11302509A95F1F700C080917200806280937200D9
S113026068E00E94AF0282E08A95F1F700C050FA7C
S1130270EE24E0F8F12CEE0CFF1C80917200817EDC
S1130280E82A53FA002700F910E002951295107F2E
S11302901027007F10270E2952FA882480F8912C09
S11302A0880C991C880C991C880C991C802A51FA7A
S11302B0662460F8712C660C771C660C771C882DFC
S11302C086298093720068E00E94AF0292E09A95BA
S11302D0F1F700C0809172008F7D8093720068E016
S11302E00E94AF028FEF850D823038F48FE99FE0D2
S11302F00197F1F700C0000004C095E89A95F1F762
S11303000000DF91CF911F910F91FF90EF90DF904C
S1130310CF90BF90AF909F908F907F906F905F90A1
S113032008950E9496028FE99CE80197F1F700C0B6
S1130330000082E00E94C50088E20E94C5008EE0B1
S11303400E94C50081E00E94C50086E00E94C500AD
S113035008955F926F927F928F929F92AF92BF9215
S1130360CF92DF92EF92FF920F931F93CF93DF937D
S1130370582E8091720080648093720068E00E941D
S1130380AF0282E08A95F1F700C08091720080622A
S11303908093720068E00E94AF0282E08A95F1F7D0
S11303A000C0852D881F8827881F982F9295907FDD
S11303B080917200817E892B56FAAA24A0F8B12C70
S11303C0AA0CBB1CAA0CBB1CAA0CBB1CA82A55FA61
S11303D0CC24C0F8D12CCC0CDD1CCC0CDD1CCA28E0
S11303E054FA882780F9C82F80E0D82FCC0FDD1F5E
S11303F08C2F8C298093720068E00E94AF0282E007
S11304008A95F1F700C0809172008F7D809372000D
S113041068E00E94AF0282E08A95F1F700C0809103
S1130420720080628093720068E00E94AF0282E0F2
S11304308A95F1F700C050FAEE24E0F8F12CEE0CA6
S1130440FF1C80917200817EE82A53FA002700F98C
S113045010E002951295107F1027007F10270E29B7
S113046052FA882480F8912C880C991C880C991CC9
S1130470880C991C802A51FA662460F8712C660C49
S1130480771C660C771C882D86298093720068E09F
S11304900E94AF0282E08A95F1F700C08091720059
S11304A08F7D8093720068E00E94AF028AE68A958D
S11304B0F1F700C0DF91CF911F910F91FF90EF9062
S11304C0DF90CF90BF90AF909F908F907F906F9070
S11304D05F9008956130710541F070F062307105EC
S11304E031F06330710529F006C0806405C0806175
S11304F003C0806501C080E080680E94C500089543
S11305000F931F93CF93FC018081882359F08F01AF
S1130510C0E00E94A901CF5FF801EC0FF11D8081BA
S11305208111F7CFCF911F910F91089561E082E07F
S11305300E94490061E080E00E94490061E081E09E
S11305400E94490060E082E00E94870060E080E051
S11305500E94870060E081E00E94870008950F9365
S11305601F93CF93CFEFC60FF2F0082F10E060E097
S113057082E00E94870098010C2E02C035952795D1
S11305800A94E2F720FF05C061E080E00E94870042
S113059004C060E080E00E94870061E082E00E9485
S11305A08700C15022F760E081E00E94870061E08B
S11305B081E00E948700CF911F910F910895F894D4
S10505C0FFCF67
S11305C268656C6C6F20414C49204D414B484C4F3F
S10505D2000023
S9030000FC
