S013000043414E5F50726F6772616D2E7372656308
S11300000C942A000C9447000C9447000C9447006D
S11300100C9447000C9447000C9447000C94470040
S11300200C9447000C9447000C9447000C94470030
S11300300C9447000C9447000C9447000C94470020
S11300400C9447000C9447000C9447000C94470010
S11300500C94470011241FBECFE5D4E0DEBFCDBF12
S113006010E0A0E6B0E0EAEBF4E002C005900D92E7
S1130070AC36B107D9F720E0ACE6B0E001C01D9280
S1130080AC36B207E1F70E9449000C945B020C9471
S11300900000CF93DF93CDB7DEB762970FB6F89425
S11300A0DEBF0FBECDBF8FEF8ABB81E08BBB0E944A
S11300B0E6010E94340289E0E3E6F0E0DE011196F5
S11300C001900D928A95E1F70E94AB012FE835E08B
S11300D040E050E060E081E00E94F50048E0BE01AD
S11300E06F5F7F4F81E00E94680181E00E94870179
S11300F011E002E08BB381278BBB8BB380278BBBD2
S1130100BE01665F7F4F812F0E944D0160E0CE01EA
S11301100A960E94420260E080E690E00E94420259
S113012060E080E690E00E9442022FEF83ED90E3CE
S1130130215080409040E1F700C00000DBCFC4981C
S113014080EC0E94ED01C49A0895CF92DF92EF9261
S1130150FF92CF93DF93D82FC62F69017A01C498F9
S113016082E00E94ED018D2F0E94ED01C13031F536
S1130170D701C601072E75E1B695A7959795879582
S11301807A95D1F7702D0E94ED01D701C601072E93
S11301907DE0B695A795979587957A95D1F7702DBB
S11301A0807E9E2D9370892B88600E94ED018D2D99
S11301B00E94ED018C2D0E94ED010FC0C6019695A1
S11301C0879596958795969587950E94ED018C2D38
S11301D08295880F807E0E94ED01C49ADF91CF91B1
S11301E0FF90EF90DF90CF900895CF92DF92EF923F
S11301F0FF92CF93C82F69017A01C498613081F5C9
S113020082E00E94ED018C2F86958295807F8F5C21
S11302100E94ED01D701C601072E75E1B695A79599
S1130220979587957A95D1F7702D0E94ED01D701A6
S1130230C601072E7DE0B695A795979587957A9583
S1130240D1F7702D807E9E2D9370892B88600E943B
S1130250ED018D2D0E94ED018C2D0E94ED0116C043
S1130260813009F4C0E08C2F80640E94ED01C60146
S11302709695879596958795969587950E94ED0115
S11302808C2D8295880F807E0E94ED01C49ACF91B7
S1130290FF90EF90DF90CF9008950F931F93CF932B
S11302A0C82F8B01C49883E00E94ED018C2F8695A2
S11302B08295807F8B590E94ED010E940A02682F6B
S11302C0C8010E940F02C49ACF911F910F91089503
S11302D00F931F93CF93DF93C82F8B01D42FC49810
S11302E082E00E94ED018C2F86958295807F8B5C45
S11302F00E94ED018D2F0E94ED016D2FC8010E9417
S1130300F101C49ADF91CF911F910F910895C49880
S113031080680E94ED01C49A8FE097E20197F1F79B
S113032000C0000008951F93CF93DF93182FD62F9A
S1130330C42FC49885E00E94ED01812F0E94ED0135
S11303408D2F0E94ED018C2F0E94ED01C49ADF9144
S1130350CF911F9108950E949F0040E06FE08CE0D0
S11303600E94930140E067E08DE00E94930140E029
S113037060E680E60E94930143E06FEF8BE20E9407
S1130380930141E46FEF8AE20E94930141EB6FEF26
S113039089E20E94930145E067E488E20E949301A8
S11303A02FEF3FE040E050E060E080E20E94A500D3
S11303B02FE835E040E050E060E080E00E94A500D6
S11303C048E46FEF8FE20E949301089580EB87BBAE
S11303D0BE9880E58DB91EB808958FB9779BFECF7E
S11303E008950F931F93CF93DF93662371F0EC016D
S11303F06150062F10E00F5F1F4F080F191F8991DE
S11304000E94ED01C017D107D1F7DF91CF911F9161
S11304100F91089581E30E94ED018FB10895DF9259
S1130420EF92FF920F931F93CF93DF937C01D62E0D
S1130430662371F0EC010FEF060F10E00F5F1F4F02
S1130440080F191F0E940A028993C017D107D1F718
S1130450F701ED0DF11D1082DF91CF911F910F91E6
S1130460FF90EF90DF90089582E08BB988E08AB91D
S113047086E880BD10BC87E689B908955D9BFECFF0
S11304808CB908950F931F93CF93DF93FC01808160
S1130490681761F0D62F8F01C0E00E943E02CF5F43
S11304A0F801EC0FF11D80818D13F7CFDF91CF910F
S10D04B01F910F910895F894FFCFF7
S10F04BA0D0A00746172746173686100C3
S9030000FC
