S01600006573705F6D6F746F72735F4543552E7372656387
S11300000C942A000C9447000C9447000C9447006D
S11300100C9447000C9447000C9447000C94470040
S11300200C9447000C9447000C9447000C942B0844
S11300300C947F0C0C94FE0D0C94290E0C94D30D8F
S11300400C9447000C9447000C9447000C94470010
S11300500C94470011241FBECFE5D8E0DEBFCDBF0E
S113006011E0A0E6B0E0E4E7F0E202C005900D92F2
S1130070A830B107D9F721E0A8E0B1E001C01D9292
S1130080AE32B207E1F70E9465040C9438100C9468
S11300900000E82FE695E695E69587706230E1F07A
S11300A0F0E09F01220F331FE20FF31FF195E1955A
S11300B0F10922AD41E050E0082E02C0440F551F63
S11300C00A94E2F7942F9095922301C0660F8A95C3
S11300D0EAF7692B62AF0895F0E09F01220F331F06
S11300E0E20FF31FF195E195F10942AD21E030E013
S11300F0B90102C0660F771F8A95E2F7CB01962FEC
S11301009095292F242322AF23AD9223892B83AFEB
S11301100895962F382F369536953695E32FF0E0CF
S1130120AF01440F551FE40FF51FF195E195F10957
S113013063AD330F330F330F831B21E030E0082E00
S113014002C0220F331F0A94E2F720952623692F59
S113015070E002C0660F771F8A95E2F7622B63AFE7
S11301600895282F269526952695E22FF0E0AF01D5
S1130170440F551FE40FF51FF195E195F10933ADD7
S1130180220F220F220F821B282F81E090E002C051
S1130190880F991F2A95E2F7832783AF089581E09A
S11301A0809308018CB180930D01809167008E3F8C
S11301B089F483E090E00E946B088FEF80936700DE
S11301C080910D018B3709F050C010926700109296
S11301D066000895809167008F3F51F480910D016E
S11301E08B3709F042C010926700109266000895A0
S11301F080916700811108C080910D0180930B01EB
S113020081E080936700089580916700813069F5EB
S113021080910D018D3789F4E09166000E2E000C5B
S1130220FF0BE35EFE4F10828FEF80936700809395
S1130230660081E080930C010895E09166000E2E23
S1130240000CFF0B80910D01E35EFE4F80838091D3
S113025066008F5F80936600809166008B302CF07F
S11302608FEF8093660080936700089560E08AE0D2
S11302700E94890061E08BE00E94890061E088E0CF
S11302800E94890060E089E00E948900089560E08E
S113029088E00E94890061E089E00E94890060E0B2
S11302A08AE00E94890061E08BE00E948900089541
S11302B061E088E00E94890060E089E00E94890092
S11302C060E08AE00E94890061E08BE00E9489007E
S11302D0089561E088E00E94490061E089E00E949D
S11302E0490061E08AE00E94490061E08BE00E94DD
S11302F0490068EE73E086E00E94F50886E00E94FB
S11303003F0B60E586E00E94730B08950F931F93E3
S1130310CF93DF93E0911B01F0911C0184819581BF
S1130320049788F50091710010917200CDE1D1E03D
S1130330FE0101900020E9F7CF018D5191400E9408
S1130340CD0EF8019183808309900020E9F7E091B4
S11303507100F0917200AE014D5151406DE171E0B8
S1130360808191810E94FA0F6091710070917200F6
S113037080910B01FB01828343E080911B019091EA
S11303801C010E94120CDF91CF911F910F910895CF
S1130390809167008E3F21F180910801813081F4C2
S11303A01092080183E090E00E94C708809109013F
S11303B090910A01019690930A018093090108958E
S11303C081110EC00E94C0088EEF809367008FEFEA
S11303D08093660010920A01109209010E9486011E
S11303E00895CF93DF93EC01E8E6F0E08BE7808398
S11303F061839881992379F0E0E0AE2FB0E0A859A9
S1130400BF4F12969C93EF5FDE01AE0FB11D9C911E
S11304109111F3CF01C0E0E0AE2FB0E0A859BF4F77
S11304208DE712968C93EF5FF0E0E859FF4F12824C
S1130430DF91CF910895EF92FF920F931F93CF9383
S1130440DF9305E010E00F2EF8EEEF2EF02D0F2EC7
S1130450F3E0FF2EF02DC8ECD0E080E00E94B10064
S11304608E2D9F2DFE013197F1F70197D9F7015099
S1130470110999F7DF91CF911F910F91FF90EF90A0
S11304800895EF92FF920F931F93CF93DF9305E0AC
S113049010E00F2EF0EDEF2EF02D0F2EF7E0FF2ED3
S11304A0F02DC8ECD0E080E00E94B1008E2D9F2D8D
S11304B0FE013197F1F70197D9F70150110999F726
S11304C0DF91CF911F910F91FF90EF900895EF92DC
S11304D0FF920F931F93CF93DF930AE010E00F2E48
S11304E0F8EEEF2EF02D0F2EF3E0FF2EF02DC8ECDA
S11304F0D0E080E00E94B1008E2D9F2DFE01319747
S1130500F1F70197D9F70150110999F7DF91CF91CC
S11305101F910F91FF90EF900895FF920F931F93F7
S1130520CF93DF9300D000D0CDB7DEB78C01F62E89
S113053019821A821B821C82FC0101900020E9F7B7
S1130540CF0101974AE0BE016F5F7F4F801B910B83
S11305500E94031040E06AE770E080E00E94FE0C15
S113056060E36F0D80E00E94860E6CE280E00E94E2
S1130570860E40E0BE016F5F7F4F80E00E94FE0C5C
S1130580909167009E3FE1F760E080E00E948C0E4E
S113059040E064E071E080E00E94FE0C86E890E0B8
S11305A09F938F938EE890E09F938F931F9282E0A6
S11305B08F9381E08F9384EF8F930E943C0D0FB64D
S11305C0F894DEBF0FBECDBF811103C00E9441026B
S11305D004C0823011F40E94670261E080E00E944E
S11305E08C0E40E0B80180E00E94FE0C40E064E024
S11305F071E080E00E94FE0C0F900F900F900F901E
S1130600DF91CF911F910F91FF900895DF92EF92A8
S1130610FF920F931F93CF93DF93CDB7DEB7279746
S11306200FB6F894DEBF0FBECDBFD82E85E0E3E74A
S1130630F0E0DE01119601900D928A95E1F71F8298
S11306401E8268E082E00E941E080F2EF8E8EF2E5A
S1130650F02D0F2EF3E1FF2EF02D08EC10E00BC06F
S11306602E2D3F2DF8013197F1F721503109D1F7A3
S113067080E00E94B10085E00E946B07882381F32B
S113068085E00E94E9070F2EF8EEEF2EF02D0F2ED5
S1130690F3E0FF2EF02D08EC10E00BC02E2D3F2DC3
S11306A0F8013197F1F721503109D1F780E00E9428
S11306B0B10081E00E946B07882381F381E00E94EE
S11306C0E907BE016F5F7F4F81E00E94460663E544
S11306D0CE0101960E94F1016D2D88E690E00E9402
S11306E08D0227960FB6F894DEBF0FBECDBFDF9103
S11306F0CF911F910F91FF90EF90DF900895DF92BB
S1130700EF92FF920F931F93CF93DF93CDB7DEB792
S11307102D970FB6F894DEBF0FBECDBFD82E81E360
S113072092E3A0E0B0E089839A83AB83BC8365E065
S113073081E00E941E0883E00E946B078823D9F39E
S113074083E00E94E9070F2EF8EEEF2EF02D0F2E16
S1130750F3E0FF2EF02D08EC10E00BC02E2D3F2D02
S1130760F8013197F1F721503109D1F780E00E9467
S1130770B10080E00E946B07882381F380E00E942F
S1130780E907BE016B5F7F4F80E00E9446068F81C0
S1130790898388858A8389858B831C8280E00E9473
S11307A0B10064E5CE0101960E94F1016D2D88E649
S11307B090E00E948D022D960FB6F894DEBF0FBE16
S11307C0CDBFDF91CF911F910F91FF90EF90DF90FC
S11307D00895DF92EF92FF920F931F93CF93DF93CD
S11307E0CDB7DEB72C970FB6F894DEBF0FBECDBFE2
S11307F0D82E88E399E3A0E089839A83AB8365E0EC
S113080081E00E941E080F2EF8E8EF2EF02D0F2E27
S1130810F3E1FF2EF02D08EC10E00BC02E2D3F2D40
S1130820F8013197F1F721503109D1F780E00E94A6
S1130830B10083E00E946B07882381F383E00E9468
S1130840E9070F2EF8EEEF2EF02D0F2EF3E0FF2E1A
S1130850F02D08EC10E00BC02E2D3F2DF801319740
S1130860F1F721503109D1F780E00E94B10080E016
S11308700E946B07882381F380E00E94E907BE0190
S11308806C5F7F4F80E00E9446068C8189838D8156
S11308908A831B8288E00E94B10068E4CE0101963D
S11308A00E94F1016D2D88E690E00E948D022C9645
S11308B00FB6F894DEBF0FBECDBFDF91CF911F916D
S11308C00F91FF90EF90DF900895CF93DF93CDB712
S11308D0DEB728970FB6F894DEBF0FBECDBF1A82DD
S11308E01982789461E080E00E94490061E082E02E
S11308F00E94490061E08FE10E94490061E081E0CB
S11309000E9449000E94060C90931C0180931B01D5
S1130910A12CC12CE12C03E023E040E855E260E087
S113092070E080E00E94340E6FEC70E080E00E9482
S1130930970E88EC91E00E94F00860E080E00E944D
S11309408C0E0E94C7062FE835E040E050E060E0DE
S113095081E00E9406062FE735E040E050E060E0C9
S113096082E00E9406062FE635E040E050E060E0B9
S113097084E00E94060640E063E970E080E00E94A3
S1130980FE0C0E94690161E080E00E948C0E0E94CE
S113099047018E010F5F1F4FF12C85E00E946B070A
S11309A0882319F085E00E94E90787E00E946B071D
S11309B0882319F087E00E94E90781E00E946B0711
S11309C0882311F182E00E94B10081E00E94E907CE
S11309D0BE016D5F7F4F81E00E9446069B81923489
S11309E099F48C81813341F4602F89E990E00E946D
S11309F08D02EE24E39408C0803331F4602F8EE935
S1130A0090E00E948D02EF2CE0911B01F0911C01FB
S1130A1024813581232B09F45FC0609171007091AA
S1130A20720043E050E0CF010E94510CE09171004C
S1130A30F09172009281933521F489810E9406031A
S1130A4048C0943521F489810E947F0342C09834C0
S1130A5021F489810E94E9033CC09434D1F50190CA
S1130A60F081E02D8081823519F40E94360131C075
S1130A708C3419F40E9458012CC0863499F4E11086
S1130A8028C061E088E00E9489006F2D89E00E94FF
S1130A90890061E08AE00E9489006F2D8BE00E944A
S1130AA0890017C0823419F40E94470112C08335AB
S1130AB081F46F2D8AE00E9489006F2D8BE00E94E3
S1130AC089006F2D88E00E9489006F2D89E00E94C3
S1130AD089000E941B0261CF8F2D0E94B1005DCF5F
S1130AE0CF92DF92EF92FF926B017C01DC01CB018C
S1130AF0072E75E1B695A795979587957A95D1F7C1
S1130B00702D0E94BE0CD701C601072E7DE0B6955C
S1130B10A795979587957A95D1F7702D807E9E2D10
S1130B209370892B88600E94BE0C8D2D0E94BE0C90
S1130B308C2D0E94BE0CFF90EF90DF90CF90089513
S1130B4060E08CE00E94890080EC0E94BE0C61E0B1
S1130B508CE00E94890008950F931F93CF93DF9335
S1130B60D82F8B01C42F60E08CE00E94890083E0C1
S1130B700E94BE0C8D2F0E94BE0CC13029F40E942D
S1130B80C70CF801808304C06C2FC8010E94E50CD7
S1130B9061E08CE00E948900DF91CF911F910F9159
S1130BA00895CF92DF92EF92FF92CF93DF93D82FE5
S1130BB0C62F69017A0160E08CE00E94890082E01E
S1130BC00E94BE0C8D2F0E94BE0CC13029F4C701B7
S1130BD0B6010E9470050FC0C6019695879596953B
S1130BE08795969587950E94BE0C8C2D8295880FCB
S1130BF0807E0E94BE0C61E08CE00E948900DF913F
S1130C00CF91FF90EF90DF90CF900895CF92DF9235
S1130C10EF92FF92CF93DF93C82FD62F69017A0109
S1130C2060E08CE00E948900D13079F482E00E9477
S1130C30BE0CC6958C2F8295807F8F5C0E94BE0C63
S1130C40C701B6010E94700516C0C13009F4C0E0A6
S1130C508C2F80640E94BE0CC6019695879596954C
S1130C608795969587950E94BE0C8C2D8295880F4A
S1130C70807E0E94BE0C61E08CE00E948900DF91BE
S1130C80CF91FF90EF90DF90CF9008950F931F9333
S1130C90CF93C82F8B0160E08CE00E94890083E031
S1130CA00E94BE0C8C2F8295807F8B590E94BE0CB3
S1130CB00E94C70C682F6F70C8010E94E50C61E0A8
S1130CC08CE00E948900CF911F910F910895EF92BB
S1130CD0FF921F93CF93DF93C82FD62F7A01122F41
S1130CE060E08CE00E94890082E00E94BE0CC69500
S1130CF08C2F8295807F8B5C0E94BE0C20E4D29F57
S1130D00C0011124812B0E94BE0CD11104C0612F9B
S1130D10C7010E94CC0C61E08CE00E948900DF9145
S1130D20CF911F91FF90EF900895CF93C82F60E06B
S1130D308CE00E9489008C2F80680E94BE0C61E0C8
S1130D408CE00E94890080E197E20197F1F7CF914E
S1130D5008951F93CF93DF93182FD62FC42F60E0ED
S1130D608CE00E94890085E00E94BE0C812F0E94C5
S1130D70BE0C8D2F0E94BE0C8C2F0E94BE0C61E015
S1130D808CE00E948900DF91CF911F910895CF9349
S1130D90DF93CDB7DEB72D970FB6F894DEBF0FBE45
S1130DA0CDBF0E94AA0C0E94A00540E06FE08CE039
S1130DB00E94A90640E067E08DE00E94A90640E099
S1130DC060E680E60E94A90640E060E680E70E94B3
S1130DD0A9064FEF6FEF8BE20E94A90641E46FEF83
S1130DE08AE20E94A90641EB6FEF89E20E94A906FC
S1130DF045E067E488E20E94A9062FEF3FE040E067
S1130E0050E060E080E20E94D1052FEF3FE040E037
S1130E1050E060E084E20E94D1052FE835E040E034
S1130E2050E060E080E00E94D1052FE735E040E02B
S1130E3050E060E088E00E94D1052FE635E040E014
S1130E4050E060E080E10E94D1052FE535E040E00C
S1130E5050E060E084E10E94D1052FE435E040E0F9
S1130E6050E060E088E10E94D10541E0BE016F5F7F
S1130E707F4F8EE20E94AC05898142E0BE016E5F25
S1130E807F4F90E00E94031040E0BE016E5F7F4FF1
S1130E9080E00E94FE0C48E06FEF8FE20E94A906FA
S1130EA02D960FB6F894DEBF0FBECDBFDF91CF9164
S1130EB00895CF9360E08CE00E94890080EA0E944C
S1130EC0BE0C0E94C70CC82F61E08CE00E94890010
S1130ED08C2FCF9108951F93CF93DF931F92CDB79B
S1130EE0DEB7182F883060F40E945907282F30E0AD
S1130EF0C90102C0959587951A95E2F7817064C07F
S1130F00803190F441E0BE016F5F7F4F8CE20E941C
S1130F10AC05298130E01850C90102C09595879528
S1130F201A95E2F7817050C0883198F441E0BE010F
S1130F306F5F7F4F80E30E94AC058981282F30E0EA
S1130F401051C90102C0959587951A95E2F78170F1
S1130F503BC0803298F441E0BE016F5F7F4F80E474
S1130F600E94AC058981282F30E01851C90102C0C4
S1130F70959587951A95E2F7817026C0883298F482
S1130F8041E0BE016F5F7F4F80E50E94AC0589811F
S1130F90282F30E01052C90102C0959587951A9503
S1130FA0E2F7817011C041E0BE016F5F7F4F8DE2B7
S1130FB00E94AC05298130E01852C90102C0959500
S1130FC087951A95E2F781700F90DF91CF911F9169
S1130FD008958830B8F4833031F0853031F08730AB
S1130FE029F484E003C082E001C083E061E070E0A2
S1130FF002C0660F771F8A95E2F740E08CE20E94F8
S1131000A9060895803168F4885061E070E002C058
S1131010660F771F8A95E2F740E08CE20E94A906EA
S11310200895885261E070E002C0660F771F8A95C8
S1131030E2F740E08CE20E94A9060895CF93C82FFE
S1131040262F40E050E061E00E9467068C2F0E944A
S11310509506CF9108951F920F920FB60F92112407
S11310602F933F934F935F936F937F938F939F93AC
S1131070AF93BF93EF93FF93F89480910E019091F7
S11310800F01009779F0019721F480911001819567
S113109082BF80910E0190910F01019790930F01EF
S11310A080930E01E0911101F0911201309709F043
S11310B009957894FF91EF91BF91AF919F918F9192
S11310C07F916F915F914F913F912F910F900FBE40
S11310D00F901F9018950F931F9340910E015091FC
S11310E00F01452B09F046C023B721113CC09C01D8
S11310F0A8EEB3E00E94BE0E8B019C010F2EFFE010
S11311003695279517950795FA95D1F7F02D0F5F2A
S11311101F4F10930F0100930E0125E023BF21E020
S113112029BFDC01CB01887F9F77AA27BB2768945E
S113113016F8B695A795979587951694D1F7809349
S1131140100120910E0130910F012130310529F455
S1131150682F619562BF81E010C02230310564F0D0
S113116012BE81E00AC013BE12BE89B78E7F89BF4A
S113117080E003C081E001C081E01F910F910895D8
S113118013BE12BE10920F0110920E0108950F9318
S11311901F939C01A8EEB3E00E94BE0E8B019C013C
S11311A00F2EFFE03695279517950795FA95D1F7F9
S11311B0F02D0F5F1F4F10930F0100930E0121E0DC
S11311C029BFDC01CB01689416F8B695A7959795CD
S11311D087951694D1F7809310011F910F9108956C
S11311E0909312018093110108954F925F926F9230
S11311F07F928F929F92AF92BF92CF92DF92EF92A3
S1131200FF920F931F93CF93DF93182FEB0180FF6F
S113121091C083B7887F83BF6B01E12CF12C60E020
S113122072E18AE790E0A70196010E949C0E2F3F8D
S113123031054105510518F481E083BF78C0D70119
S1131240C601880F991FAA1FBB1F880F991FAA1FC9
S1131250BB1F9C01AD01220F331F441F551F60E0CB
S113126072E18AE790E00E949C0E2F3F3105410510
S1131270510520F483B7826083BF59C0D701C601EA
S1131280880F991FAA1FBB1F880F991FAA1FBB1F76
S1131290880F991FAA1FBB1F880F991FAA1FBB1F66
S11312A09C01AD01220F331F441F551F220F331F12
S11312B0441F551F60E072E18AE790E00E949C0E93
S11312C02F3F31054105510520F483B7836083BF67
S11312D02EC088249C2CAD2CBE2C60E072E18AE7E1
S11312E090E0A50194010E949C0E2F3F3105410519
S11312F0510520F483B7846083BF19C0A701960108
S1131300012E1AE0220F331F441F551F1A95D1F7DF
S1131310102D60E072E18AE790E00E949C0E2F3F5E
S113132031054105510518F483B7856083BF83B740
S1131330886483BF812F867009F4A7C08FB5887F26
S11313408FBD6E01E12CF12C60E072E18AE790E040
S1131350A70196010E949C0E022FB32E2F3F3F4FF0
S11313604105510518F481E08EBD84C0D701C60142
S1131370880F991FAA1FBB1F880F991FAA1FBB1F85
S11313809C01AD01220F331F441F551F60E072E121
S11313908AE790E00E949C0E2F3F8FEF38074105AB
S11313A0510530F48EB582608EBD022FB32E62C01B
S11313B0D701C601880F991FAA1FBB1F880F991F49
S11313C0AA1FBB1F880F991FAA1FBB1F880F991F35
S11313D0AA1FBB1F9C01AD01220F331F441F551FC1
S11313E0220F331F441F551F60E072E18AE790E02B
S11313F00E949C0E2F3F8FEF38074105510530F4B2
S11314008EB583608EBD022FB32E34C044245C2C71
S11314106D2C7E2C60E072E18AE790E0A3019201DA
S11314200E949C0E2F3F8FEF38074105510530F481
S11314308EB584608EBD022FB32E1CC0A701960109
S1131440012E1AE0220F331F441F551F1A95D1F79E
S1131450102D60E072E18AE790E00E949C0E2F3F1D
S11314608FEF38074105510528F48EB585608EBD90
S1131470022FB32EB7BC06BD8EB588618EBD8FB565
S113148082608FBD8FB58E7F8FBD13FFE7C085B59A
S1131490887F85BD6E01E12CF12C60E072E18AE762
S11314A090E0A70196010E949C0E2F3F3105410553
S11314B0510518F481E085BDCEC0D701C601880F5F
S11314C0991FAA1FBB1F880F991FAA1FBB1F9C012E
S11314D0AD01220F331F441F551F60E072E18AE7FC
S11314E090E00E949C0E2F3F31054105510520F4E8
S11314F085B5826085BDAFC0D701C601880F991F2D
S1131500AA1FBB1F880F991FAA1FBB1F880F991FF3
S1131510AA1FBB1F880F991FAA1FBB1F9C01AD01E7
S1131520220F331F441F551F60E072E18AE790E0E9
S11315300E949C0E2F3F31054105510520F485B5CD
S1131540836085BD88C0D701C601880F991FAA1F73
S1131550BB1F880F991FAA1FBB1F880F991FAA1FA3
S1131560BB1F880F991FAA1FBB1F9C01AD01220F2F
S1131570331F441F551F220F331F441F551F60E0A4
S113158072E18AE790E00E949C0E2F3F31054105ED
S1131590510520F485B5846085BD5DC0D701C601C1
S11315A0880F991FAA1FBB1F880F991FAA1FBB1F53
S11315B0880F991FAA1FBB1F880F991FAA1FBB1F43
S11315C0880F991FAA1FBB1F880F991FAA1FBB1F33
S11315D09C01AD01220F331F441F551F60E072E1CF
S11315E08AE790E00E949C0E2F3F3105410551058A
S11315F020F485B5856085BD2EC03E2D2D2D1C2D76
S1131600002760E072E18AE790E0A90198010E9456
S11316109C0E2F3F31054105510520F485B58660A8
S113162085BD19C0A7019601012E1AE0220F331FB0
S1131630441F551F1A95D1F7102D60E072E18AE717
S113164090E00E949C0E2F3F31054105510518F48E
S113165085B5876085BD85B5886485BDDF91CF91EB
S11316601F910F91FF90EF90DF90CF90BF90AF90BC
S11316709F908F907F906F905F904F900895CF933D
S1131680C82F80FF0AC061E08BE00E94490083B745
S1131690806283BF83B78F7E83BFC1FF0AC061E0CE
S11316A08DE10E9449008FB58F7B8FBD8FB5806817
S11316B08FBDC2FF0AC061E08CE10E9449008FB572
S11316C08F7E8FBD8FB580628FBDC3FF0AC061E07E
S11316D08FE10E94490085B5806285BD85B58F7E06
S11316E085BDCF910895CF93DF93C82FD62F80FF68
S11316F019C0643629F48FEF8CBFC1FD17C07DC0BB
S11317008FEF689F9001112436952795369527957C
S1131710ABE7B4E10E94BE0E969587958CBFC1FDE0
S113172015C06EC081FF28C0643681F426B597B514
S113173030E021503109892F90E0982F8827820FBB
S1131740931F9BBD8ABDC2FD1BC040C086B527B593
S113175030E0322F2227280F311DAD2FB0E00E9438
S1131760BE0E24E630E040E050E00E949C0E3BBDFB
S11317702ABDC2FD15C02AC082FF28C0643681F488
S113178026B597B530E021503109892F90E0982F84
S11317908827820F931F99BD88BDC3FD1BC033C02A
S11317A086B527B530E0322F2227280F311DAD2F03
S11317B0B0E00E94BE0E24E630E040E050E00E941B
S11317C09C0E39BD28BDC3FD08C01DC0C3FF1BC08E
S11317D0D43619F48FEF83BD16C08FEFD89F9001D4
S11317E011243695279536952795ABE7B4E10E94E9
S11317F0BE0E9695879583BD06C0C2FDC1CFE6CFC8
S1131800C2FDCECFE3CFDF91CF91089586E090E083
S11318100E94CD0EFC011182108213821282158265
S113182014820895CF92DF92EF92FF920F931F9349
S1131830CF93DF93EC016B01042F84E090E00E94CE
S1131840CD0E7C0110E0C8010E94CD0EF7019183FA
S11318508083A801B6010E94FA0FF7011382128255
S11318608C819D81892B29F4F982E882FB82EA82AA
S11318700AC0EA81FB81F382E282EA81FB818281F0
S113188093819B838A838C819D8101969D838C8324
S1131890DF91CF911F910F91FF90EF90DF90CF9048
S11318A008950F931F93CF93DF93FC012481358117
S11318B0232BF9F09B01EC010190F081E02D608174
S11318C07181C9010E94FA0F08811981F80182818E
S11318D0938199838883808191810E94620FC801DA
S11318E00E94620F8C819D8101979D838C8381E08E
S11318F001C08FEFDF91CF911F910F9108951F9237
S11319000F920FB60F9211242F933F934F935F932F
S11319106F937F938F939F93AF93BF93EF93FF93B3
S1131920F894E0911301F0911401309709F00995AE
S11319307894FF91EF91BF91AF919F918F917F9197
S11319406F915F914F913F912F910F900FBE0F9028
S11319501F90189561E08DE00E94490061E08CE0E1
S11319600E94490061E08FE00E94490060E08EE03F
S11319700E94490080E58DB91EB808958FB90FB64D
S113198007FE02C06F9902C0779BFECF089581E3E2
S11319900E94BE0C8FB108950F931F93CF93DF93D2
S11319A0662371F0EC016150062F10E00F5F1F4FAA
S11319B0080F191F89910E94BE0CC017D107D1F7D7
S11319C0DF91CF911F910F9108950F931F93CF93A0
S11319D0DF93662371F0EC016150062F10E00F5F76
S11319E01F4F080F191F0E94C70C8993C017D107F6
S11319F0D1F7DF91CF911F910F910895FF920F932B
S1131A001F93CF93DF93FB016081641771F0D42F90
S1131A108F01F82EC0E08F2D0E94860ECF5FF80153
S1131A20EC0FF11D60816D13F6CFDF91CF911F9103
S1131A300F91FF900895FA012081FC01E20FF11D3E
S1131A40308136130CC02F5FFA012083FC01E20FB2
S1131A50F11D81E09081992371F080E00895FC01EB
S1131A608081861305C081E0FA01808380E00895B7
S1131A70FA01108280E008952F923F924F925F9274
S1131A806F927F928F929F92AF92BF92CF92DF928A
S1131A90EF92FF920F931F93CF93DF93CDB7DEB7EF
S1131AA0ED88FE880F89188D8DB69EB6C801880F03
S1131AB0991F2DB73EB7281B390B0FB6F8943EBFBC
S1131AC00FBE2DBF8DB79EB701966C01201B310B45
S1131AD00FB6F8943EBF0FBE2DBF8DB79EB70196CB
S1131AE05C0110161106B4F4DE01599680E090E012
S1131AF020E0880F991FF601E80FF91F8D919C9142
S1131B001197918380832F5F822F90E01296801724
S1131B1091077CF3712C212C312C412C22C05F9B2A
S1131B2020C05CB010161106E4F4822D932D642CB1
S1131B30A501480F591F880F991FF601E80FF91FD7
S1131B40652D808191810E941B0D882321F07724CB
S1131B507394760C06C06394862D90E080179107E9
S1131B603CF3C7010E946B08882311F07720B9F277
S1131B700E94C008872D0FB6F8949EBE0FBE8DBE7E
S1131B80DF91CF911F910F91FF90EF90DF90CF9055
S1131B90BF90AF909F908F907F906F905F904F9089
S1131BA03F902F9008951F920F920FB60F92112419
S1131BB02F933F934F935F936F937F938F939F9351
S1131BC0AF93BF93EF93FF93F894E0911901F091D1
S1131BD01A01309709F009957894FF91EF91BF911C
S1131BE0AF919F918F917F916F915F914F913F91B1
S1131BF02F910F900FBE0F901F9018951F920F9268
S1131C000FB60F9211242F933F934F935F936F93CB
S1131C107F938F939F93AF93BF93EF93FF93F89426
S1131C20E0911701F0911801309709F00995789423
S1131C30FF91EF91BF91AF919F918F917F916F91A0
S1131C405F914F913F912F910F900FBE0F901F9076
S1131C501895F8945D9AE0911501F091160130976A
S1131C6009F0099578940895AF92CF92EF92FF927C
S1131C700F93CF93C22F811142C0DB01CA01880F99
S1131C80991FAA1FBB1F880F991FAA1FBB1F880F6C
S1131C90991FAA1FBB1F880F991FAA1FBB1F9C0156
S1131CA0AD01207F5F7760E078E488EE91E00E94E8
S1131CB09C0E2250310920FF05C0369527952F5FD1
S1131CC03F4F02C03695279582E08BB9000F000F75
S1131CD0000F8C2F8470082B0AB98A2D8068CC0CD5
S1131CE0CC0CCC0CAC2CA82A80E1E89E7001112409
S1131CF0EA28C370CC0FEC2AE0BC30BD29B9CF91DF
S1131D000F91FF90EF90CF90AF900895559902C036
S1131D105D9BFECF6CB90895811108C0662319F04C
S1131D208AB1806802C08AB18F778AB908957093A6
S1131D301801609317010895A1E21A2EAA1BBB1B78
S1131D40FD010DC0AA1FBB1FEE1FFF1FA217B30783
S1131D50E407F50720F0A21BB30BE40BF50B661F99
S1131D60771F881F991F1A9469F76095709580955D
S1131D7090959B01AC01BD01CF010895A29FB001D4
S1131D80B39FC001A39F700D811D1124911DB29FAB
S1131D90700D811D1124911D0895CF93DF9382301E
S1131DA0910510F482E090E0E0912C01F0912D0176
S1131DB020E030E0C0E0D0E0309711F14081518163
S1131DC048175907C0F04817590761F48281938175
S1131DD0209719F09B838A832BC090932D018093C5
S1131DE02C0126C02115310519F04217530718F4A8
S1131DF09A01BE01DF01EF010280F381E02DDCCF07
S1131E002115310509F1281B390B2430310590F4D3
S1131E1012968D919C9113976115710521F0FB0128
S1131E209383828304C090932D0180932C01FD0140
S1131E30329644C0FD01E20FF31F81939193225027
S1131E4031092D933C933AC020912A0130912B0102
S1131E50232B41F4209162003091630030932B01D5
S1131E6020932A01209160003091610021153105F1
S1131E7041F42DB73EB74091640050916500241B96
S1131E80350BE0912A01F0912B01E217F307A0F43E
S1131E902E1B3F0B2817390778F0AC014E5F5F4FBC
S1131EA02417350748F04E0F5F1F50932B014093C2
S1131EB02A018193919302C0E0E0F0E0CF01DF9129
S1131EC0CF9108950F931F93CF93DF93009709F455
S1131ED08CC0FC0132971382128200912C01109164
S1131EE02D010115110581F420813181820F931F89
S1131EF020912A0130912B012817390779F5F093A5
S1131F002B01E0932A0171C0D80140E050E0AE17E4
S1131F10BF0750F412962D913C911397AD012115F2
S1131F20310509F1D901F3CF9D01DA01338322830D
S1131F3060817181860F971F8217930769F4EC0102
S1131F4028813981260F371F2E5F3F4F318320832D
S1131F508A819B8193838283452B29F4F0932D01FD
S1131F60E0932C0142C01396FC93EE931297ED017B
S1131F70499159919E01240F351FE217F30771F41B
S1131F8080819181840F951F029611969C938E9364
S1131F908281938113969C938E931297E0E0F0E0F4
S1131FA0D80112968D919C911397009719F0F8011E
S1131FB08C01F6CF8D919C9198012E5F3F4F820F3B
S1131FC0931F20912A0130912B012817390769F4B6
S1131FD0309729F410922D0110922C0102C0138223
S1131FE0128210932B0100932A01DF91CF911F914C
S1131FF00F910895FB01DC0102C001900D92415044
S11320005040D8F70895BB274A3031F4992322F47D
S1132010BDE2909581959F4F0C940F10BB27FB0157
S11320205527AA27880F991FAA1FA41710F0A41BCD
S113203083955051B9F7A05DAA3308F0A95DA19327
S1132040009779F7B111B1931192CB010C94281038
S1132050DC01FC01672F71917723E1F7329704C00B
S11320607C916D9370836291AE17BF07C8F3089596
S1072070F894FFCF0E
S113207400002E012000FFFE7B20202020202020B1
S11320842027013132333400000041542B4349509A
S113209453454E443D004552524F520D0A004F4B96
S11320A40D0A005245414459007B42427D007B4263
S11320B44E7D003A20534D4F4B45003A204E4F423B
S11320C45245414B210041540D0A0041542B4357BE
S11320D44D4F44453D310D0A0041542B4349504D65
S11320E455583D310D0A0041542B43494653520D72
S11320F40A0041542B4349505345525645523D31ED
S11321042C38300D0A0041542B43495053544F3D4D
S10B2114313030300D0A0000E7
S9030000FC
